{
	"CrowdFunding.sol": {
		"CrowdFunding": {
			"abi": [
				{
					"inputs": [
						{
							"internalType": "uint256",
							"name": "_target",
							"type": "uint256"
						},
						{
							"internalType": "uint256",
							"name": "_deadline",
							"type": "uint256"
						}
					],
					"stateMutability": "nonpayable",
					"type": "constructor"
				},
				{
					"inputs": [
						{
							"internalType": "address",
							"name": "",
							"type": "address"
						}
					],
					"name": "contributors",
					"outputs": [
						{
							"internalType": "uint256",
							"name": "",
							"type": "uint256"
						}
					],
					"stateMutability": "view",
					"type": "function"
				},
				{
					"inputs": [
						{
							"internalType": "string",
							"name": "_description",
							"type": "string"
						},
						{
							"internalType": "address payable",
							"name": "_recipient",
							"type": "address"
						},
						{
							"internalType": "uint256",
							"name": "_value",
							"type": "uint256"
						}
					],
					"name": "createRequests",
					"outputs": [],
					"stateMutability": "nonpayable",
					"type": "function"
				},
				{
					"inputs": [],
					"name": "deadline",
					"outputs": [
						{
							"internalType": "uint256",
							"name": "",
							"type": "uint256"
						}
					],
					"stateMutability": "view",
					"type": "function"
				},
				{
					"inputs": [],
					"name": "getContractBalance",
					"outputs": [
						{
							"internalType": "uint256",
							"name": "",
							"type": "uint256"
						}
					],
					"stateMutability": "view",
					"type": "function"
				},
				{
					"inputs": [
						{
							"internalType": "uint256",
							"name": "_requestNo",
							"type": "uint256"
						}
					],
					"name": "makePayment",
					"outputs": [],
					"stateMutability": "nonpayable",
					"type": "function"
				},
				{
					"inputs": [],
					"name": "manager",
					"outputs": [
						{
							"internalType": "address",
							"name": "",
							"type": "address"
						}
					],
					"stateMutability": "view",
					"type": "function"
				},
				{
					"inputs": [],
					"name": "minimumContribution",
					"outputs": [
						{
							"internalType": "uint256",
							"name": "",
							"type": "uint256"
						}
					],
					"stateMutability": "view",
					"type": "function"
				},
				{
					"inputs": [],
					"name": "noOfContributors",
					"outputs": [
						{
							"internalType": "uint256",
							"name": "",
							"type": "uint256"
						}
					],
					"stateMutability": "view",
					"type": "function"
				},
				{
					"inputs": [],
					"name": "numRequests",
					"outputs": [
						{
							"internalType": "uint256",
							"name": "",
							"type": "uint256"
						}
					],
					"stateMutability": "view",
					"type": "function"
				},
				{
					"inputs": [],
					"name": "raisedAmount",
					"outputs": [
						{
							"internalType": "uint256",
							"name": "",
							"type": "uint256"
						}
					],
					"stateMutability": "view",
					"type": "function"
				},
				{
					"inputs": [],
					"name": "refund",
					"outputs": [],
					"stateMutability": "nonpayable",
					"type": "function"
				},
				{
					"inputs": [
						{
							"internalType": "uint256",
							"name": "",
							"type": "uint256"
						}
					],
					"name": "requests",
					"outputs": [
						{
							"internalType": "string",
							"name": "description",
							"type": "string"
						},
						{
							"internalType": "address payable",
							"name": "recipient",
							"type": "address"
						},
						{
							"internalType": "uint256",
							"name": "value",
							"type": "uint256"
						},
						{
							"internalType": "bool",
							"name": "completed",
							"type": "bool"
						},
						{
							"internalType": "uint256",
							"name": "noOfVoters",
							"type": "uint256"
						}
					],
					"stateMutability": "view",
					"type": "function"
				},
				{
					"inputs": [],
					"name": "sendEth",
					"outputs": [],
					"stateMutability": "payable",
					"type": "function"
				},
				{
					"inputs": [],
					"name": "target",
					"outputs": [
						{
							"internalType": "uint256",
							"name": "",
							"type": "uint256"
						}
					],
					"stateMutability": "view",
					"type": "function"
				},
				{
					"inputs": [
						{
							"internalType": "uint256",
							"name": "_requestNo",
							"type": "uint256"
						}
					],
					"name": "voteRequest",
					"outputs": [],
					"stateMutability": "nonpayable",
					"type": "function"
				}
			],
			"devdoc": {
				"kind": "dev",
				"methods": {},
				"version": 1
			},
			"evm": {
				"assembly": "    /* \"CrowdFunding.sol\":75:3006  contract CrowdFunding{... */\n  mstore(0x40, 0x80)\n    /* \"CrowdFunding.sol\":655:866  constructor(uint _target,uint _deadline){... */\n  callvalue\n  dup1\n  iszero\n  tag_1\n  jumpi\n  0x00\n  dup1\n  revert\ntag_1:\n  pop\n  mload(0x40)\n  sub(codesize, bytecodeSize)\n  dup1\n  bytecodeSize\n  dup4\n  codecopy\n  dup2\n  dup2\n  add\n  0x40\n  mstore\n  dup2\n  add\n  swap1\n  tag_2\n  swap2\n  swap1\n  tag_3\n  jump\t// in\ntag_2:\n    /* \"CrowdFunding.sol\":713:720  _target */\n  dup2\n    /* \"CrowdFunding.sol\":706:712  target */\n  0x04\n    /* \"CrowdFunding.sol\":706:720  target=_target */\n  dup2\n  swap1\n  sstore\n  pop\n    /* \"CrowdFunding.sol\":756:765  _deadline */\n  dup1\n    /* \"CrowdFunding.sol\":740:755  block.timestamp */\n  timestamp\n    /* \"CrowdFunding.sol\":740:765  block.timestamp+_deadline */\n  tag_6\n  swap2\n  swap1\n  tag_7\n  jump\t// in\ntag_6:\n    /* \"CrowdFunding.sol\":731:739  deadline */\n  0x03\n    /* \"CrowdFunding.sol\":731:765  deadline=block.timestamp+_deadline */\n  dup2\n  swap1\n  sstore\n  pop\n    /* \"CrowdFunding.sol\":822:829  100 wei */\n  0x64\n    /* \"CrowdFunding.sol\":802:821  minimumContribution */\n  0x02\n    /* \"CrowdFunding.sol\":802:829  minimumContribution=100 wei */\n  dup2\n  swap1\n  sstore\n  pop\n    /* \"CrowdFunding.sol\":848:858  msg.sender */\n  caller\n    /* \"CrowdFunding.sol\":840:847  manager */\n  0x01\n  0x00\n    /* \"CrowdFunding.sol\":840:858  manager=msg.sender */\n  0x0100\n  exp\n  dup2\n  sload\n  dup2\n  0xffffffffffffffffffffffffffffffffffffffff\n  mul\n  not\n  and\n  swap1\n  dup4\n  0xffffffffffffffffffffffffffffffffffffffff\n  and\n  mul\n  or\n  swap1\n  sstore\n  pop\n    /* \"CrowdFunding.sol\":655:866  constructor(uint _target,uint _deadline){... */\n  pop\n  pop\n    /* \"CrowdFunding.sol\":75:3006  contract CrowdFunding{... */\n  jump(tag_8)\n    /* \"#utility.yul\":88:205   */\ntag_10:\n    /* \"#utility.yul\":197:198   */\n  0x00\n    /* \"#utility.yul\":194:195   */\n  dup1\n    /* \"#utility.yul\":187:199   */\n  revert\n    /* \"#utility.yul\":334:411   */\ntag_12:\n    /* \"#utility.yul\":371:378   */\n  0x00\n    /* \"#utility.yul\":400:405   */\n  dup2\n    /* \"#utility.yul\":389:405   */\n  swap1\n  pop\n    /* \"#utility.yul\":334:411   */\n  swap2\n  swap1\n  pop\n  jump\t// out\n    /* \"#utility.yul\":417:539   */\ntag_13:\n    /* \"#utility.yul\":490:514   */\n  tag_22\n    /* \"#utility.yul\":508:513   */\n  dup2\n    /* \"#utility.yul\":490:514   */\n  tag_12\n  jump\t// in\ntag_22:\n    /* \"#utility.yul\":483:488   */\n  dup2\n    /* \"#utility.yul\":480:515   */\n  eq\n    /* \"#utility.yul\":470:533   */\n  tag_23\n  jumpi\n    /* \"#utility.yul\":529:530   */\n  0x00\n    /* \"#utility.yul\":526:527   */\n  dup1\n    /* \"#utility.yul\":519:531   */\n  revert\n    /* \"#utility.yul\":470:533   */\ntag_23:\n    /* \"#utility.yul\":417:539   */\n  pop\n  jump\t// out\n    /* \"#utility.yul\":545:688   */\ntag_14:\n    /* \"#utility.yul\":602:607   */\n  0x00\n    /* \"#utility.yul\":633:639   */\n  dup2\n    /* \"#utility.yul\":627:640   */\n  mload\n    /* \"#utility.yul\":618:640   */\n  swap1\n  pop\n    /* \"#utility.yul\":649:682   */\n  tag_25\n    /* \"#utility.yul\":676:681   */\n  dup2\n    /* \"#utility.yul\":649:682   */\n  tag_13\n  jump\t// in\ntag_25:\n    /* \"#utility.yul\":545:688   */\n  swap3\n  swap2\n  pop\n  pop\n  jump\t// out\n    /* \"#utility.yul\":694:1201   */\ntag_3:\n    /* \"#utility.yul\":773:779   */\n  0x00\n    /* \"#utility.yul\":781:787   */\n  dup1\n    /* \"#utility.yul\":830:832   */\n  0x40\n    /* \"#utility.yul\":818:827   */\n  dup4\n    /* \"#utility.yul\":809:816   */\n  dup6\n    /* \"#utility.yul\":805:828   */\n  sub\n    /* \"#utility.yul\":801:833   */\n  slt\n    /* \"#utility.yul\":798:917   */\n  iszero\n  tag_27\n  jumpi\n    /* \"#utility.yul\":836:915   */\n  tag_28\n  tag_10\n  jump\t// in\ntag_28:\n    /* \"#utility.yul\":798:917   */\ntag_27:\n    /* \"#utility.yul\":956:957   */\n  0x00\n    /* \"#utility.yul\":981:1045   */\n  tag_29\n    /* \"#utility.yul\":1037:1044   */\n  dup6\n    /* \"#utility.yul\":1028:1034   */\n  dup3\n    /* \"#utility.yul\":1017:1026   */\n  dup7\n    /* \"#utility.yul\":1013:1035   */\n  add\n    /* \"#utility.yul\":981:1045   */\n  tag_14\n  jump\t// in\ntag_29:\n    /* \"#utility.yul\":971:1045   */\n  swap3\n  pop\n    /* \"#utility.yul\":927:1055   */\n  pop\n    /* \"#utility.yul\":1094:1096   */\n  0x20\n    /* \"#utility.yul\":1120:1184   */\n  tag_30\n    /* \"#utility.yul\":1176:1183   */\n  dup6\n    /* \"#utility.yul\":1167:1173   */\n  dup3\n    /* \"#utility.yul\":1156:1165   */\n  dup7\n    /* \"#utility.yul\":1152:1174   */\n  add\n    /* \"#utility.yul\":1120:1184   */\n  tag_14\n  jump\t// in\ntag_30:\n    /* \"#utility.yul\":1110:1184   */\n  swap2\n  pop\n    /* \"#utility.yul\":1065:1194   */\n  pop\n    /* \"#utility.yul\":694:1201   */\n  swap3\n  pop\n  swap3\n  swap1\n  pop\n  jump\t// out\n    /* \"#utility.yul\":1207:1387   */\ntag_15:\n    /* \"#utility.yul\":1255:1332   */\n  0x4e487b7100000000000000000000000000000000000000000000000000000000\n    /* \"#utility.yul\":1252:1253   */\n  0x00\n    /* \"#utility.yul\":1245:1333   */\n  mstore\n    /* \"#utility.yul\":1352:1356   */\n  0x11\n    /* \"#utility.yul\":1349:1350   */\n  0x04\n    /* \"#utility.yul\":1342:1357   */\n  mstore\n    /* \"#utility.yul\":1376:1380   */\n  0x24\n    /* \"#utility.yul\":1373:1374   */\n  0x00\n    /* \"#utility.yul\":1366:1381   */\n  revert\n    /* \"#utility.yul\":1393:1584   */\ntag_7:\n    /* \"#utility.yul\":1433:1436   */\n  0x00\n    /* \"#utility.yul\":1452:1472   */\n  tag_33\n    /* \"#utility.yul\":1470:1471   */\n  dup3\n    /* \"#utility.yul\":1452:1472   */\n  tag_12\n  jump\t// in\ntag_33:\n    /* \"#utility.yul\":1447:1472   */\n  swap2\n  pop\n    /* \"#utility.yul\":1486:1506   */\n  tag_34\n    /* \"#utility.yul\":1504:1505   */\n  dup4\n    /* \"#utility.yul\":1486:1506   */\n  tag_12\n  jump\t// in\ntag_34:\n    /* \"#utility.yul\":1481:1506   */\n  swap3\n  pop\n    /* \"#utility.yul\":1529:1530   */\n  dup3\n    /* \"#utility.yul\":1526:1527   */\n  dup3\n    /* \"#utility.yul\":1522:1531   */\n  add\n    /* \"#utility.yul\":1515:1531   */\n  swap1\n  pop\n    /* \"#utility.yul\":1550:1553   */\n  dup1\n    /* \"#utility.yul\":1547:1548   */\n  dup3\n    /* \"#utility.yul\":1544:1554   */\n  gt\n    /* \"#utility.yul\":1541:1577   */\n  iszero\n  tag_35\n  jumpi\n    /* \"#utility.yul\":1557:1575   */\n  tag_36\n  tag_15\n  jump\t// in\ntag_36:\n    /* \"#utility.yul\":1541:1577   */\ntag_35:\n    /* \"#utility.yul\":1393:1584   */\n  swap3\n  swap2\n  pop\n  pop\n  jump\t// out\n    /* \"CrowdFunding.sol\":75:3006  contract CrowdFunding{... */\ntag_8:\n  dataSize(sub_0)\n  dup1\n  dataOffset(sub_0)\n  0x00\n  codecopy\n  0x00\n  return\nstop\n\nsub_0: assembly {\n        /* \"CrowdFunding.sol\":75:3006  contract CrowdFunding{... */\n      mstore(0x40, 0x80)\n      jumpi(tag_1, lt(calldatasize, 0x04))\n      shr(0xe0, calldataload(0x00))\n      dup1\n      0x5114cb52\n      gt\n      tag_17\n      jumpi\n      dup1\n      0x937e09b1\n      gt\n      tag_18\n      jumpi\n      dup1\n      0x937e09b1\n      eq\n      tag_13\n      jumpi\n      dup1\n      0x9fb42b1f\n      eq\n      tag_14\n      jumpi\n      dup1\n      0xc59ee1dc\n      eq\n      tag_15\n      jumpi\n      dup1\n      0xd4b83992\n      eq\n      tag_16\n      jumpi\n      jump(tag_1)\n    tag_18:\n      dup1\n      0x5114cb52\n      eq\n      tag_9\n      jumpi\n      dup1\n      0x590e1ae3\n      eq\n      tag_10\n      jumpi\n      dup1\n      0x6f9fb98a\n      eq\n      tag_11\n      jumpi\n      dup1\n      0x81d12c58\n      eq\n      tag_12\n      jumpi\n      jump(tag_1)\n    tag_17:\n      dup1\n      0x3eb7647b\n      gt\n      tag_19\n      jumpi\n      dup1\n      0x3eb7647b\n      eq\n      tag_5\n      jumpi\n      dup1\n      0x481c6a75\n      eq\n      tag_6\n      jumpi\n      dup1\n      0x4cb6f4a5\n      eq\n      tag_7\n      jumpi\n      dup1\n      0x4e260f6f\n      eq\n      tag_8\n      jumpi\n      jump(tag_1)\n    tag_19:\n      dup1\n      0x06e99fef\n      eq\n      tag_2\n      jumpi\n      dup1\n      0x1f6d4942\n      eq\n      tag_3\n      jumpi\n      dup1\n      0x29dcb0cf\n      eq\n      tag_4\n      jumpi\n    tag_1:\n      0x00\n      dup1\n      revert\n        /* \"CrowdFunding.sol\":878:1248  function sendEth() public payable{... */\n    tag_2:\n      tag_20\n      tag_21\n      jump\t// in\n    tag_20:\n      stop\n        /* \"CrowdFunding.sol\":103:145  mapping(address=>uint) public contributors */\n    tag_3:\n      callvalue\n      dup1\n      iszero\n      tag_22\n      jumpi\n      0x00\n      dup1\n      revert\n    tag_22:\n      pop\n      tag_23\n      0x04\n      dup1\n      calldatasize\n      sub\n      dup2\n      add\n      swap1\n      tag_24\n      swap2\n      swap1\n      tag_25\n      jump\t// in\n    tag_24:\n      tag_26\n      jump\t// in\n    tag_23:\n      mload(0x40)\n      tag_27\n      swap2\n      swap1\n      tag_28\n      jump\t// in\n    tag_27:\n      mload(0x40)\n      dup1\n      swap2\n      sub\n      swap1\n      return\n        /* \"CrowdFunding.sol\":251:271  uint public deadline */\n    tag_4:\n      callvalue\n      dup1\n      iszero\n      tag_29\n      jumpi\n      0x00\n      dup1\n      revert\n    tag_29:\n      pop\n      tag_30\n      tag_31\n      jump\t// in\n    tag_30:\n      mload(0x40)\n      tag_32\n      swap2\n      swap1\n      tag_28\n      jump\t// in\n    tag_32:\n      mload(0x40)\n      dup1\n      swap2\n      sub\n      swap1\n      return\n        /* \"CrowdFunding.sol\":1820:2214  function createRequests(string memory _description,address payable _recipient,uint _value) public onlyManger{... */\n    tag_5:\n      callvalue\n      dup1\n      iszero\n      tag_33\n      jumpi\n      0x00\n      dup1\n      revert\n    tag_33:\n      pop\n      tag_34\n      0x04\n      dup1\n      calldatasize\n      sub\n      dup2\n      add\n      swap1\n      tag_35\n      swap2\n      swap1\n      tag_36\n      jump\t// in\n    tag_35:\n      tag_37\n      jump\t// in\n    tag_34:\n      stop\n        /* \"CrowdFunding.sol\":183:205  address public manager */\n    tag_6:\n      callvalue\n      dup1\n      iszero\n      tag_38\n      jumpi\n      0x00\n      dup1\n      revert\n    tag_38:\n      pop\n      tag_39\n      tag_40\n      jump\t// in\n    tag_39:\n      mload(0x40)\n      tag_41\n      swap2\n      swap1\n      tag_42\n      jump\t// in\n    tag_41:\n      mload(0x40)\n      dup1\n      swap2\n      sub\n      swap1\n      return\n        /* \"CrowdFunding.sol\":2220:2566  function voteRequest(uint _requestNo) public{... */\n    tag_7:\n      callvalue\n      dup1\n      iszero\n      tag_43\n      jumpi\n      0x00\n      dup1\n      revert\n    tag_43:\n      pop\n      tag_44\n      0x04\n      dup1\n      calldatasize\n      sub\n      dup2\n      add\n      swap1\n      tag_45\n      swap2\n      swap1\n      tag_46\n      jump\t// in\n    tag_45:\n      tag_47\n      jump\t// in\n    tag_44:\n      stop\n        /* \"CrowdFunding.sol\":334:362  uint public noOfContributors */\n    tag_8:\n      callvalue\n      dup1\n      iszero\n      tag_48\n      jumpi\n      0x00\n      dup1\n      revert\n    tag_48:\n      pop\n      tag_49\n      tag_50\n      jump\t// in\n    tag_49:\n      mload(0x40)\n      tag_51\n      swap2\n      swap1\n      tag_28\n      jump\t// in\n    tag_51:\n      mload(0x40)\n      dup1\n      swap2\n      sub\n      swap1\n      return\n        /* \"CrowdFunding.sol\":2572:3003  function makePayment(uint _requestNo) public onlyManger{... */\n    tag_9:\n      callvalue\n      dup1\n      iszero\n      tag_52\n      jumpi\n      0x00\n      dup1\n      revert\n    tag_52:\n      pop\n      tag_53\n      0x04\n      dup1\n      calldatasize\n      sub\n      dup2\n      add\n      swap1\n      tag_54\n      swap2\n      swap1\n      tag_46\n      jump\t// in\n    tag_54:\n      tag_55\n      jump\t// in\n    tag_53:\n      stop\n        /* \"CrowdFunding.sol\":1362:1689  function refund() public{... */\n    tag_10:\n      callvalue\n      dup1\n      iszero\n      tag_56\n      jumpi\n      0x00\n      dup1\n      revert\n    tag_56:\n      pop\n      tag_57\n      tag_58\n      jump\t// in\n    tag_57:\n      stop\n        /* \"CrowdFunding.sol\":1254:1356  function getContractBalance() public view returns(uint){... */\n    tag_11:\n      callvalue\n      dup1\n      iszero\n      tag_59\n      jumpi\n      0x00\n      dup1\n      revert\n    tag_59:\n      pop\n      tag_60\n      tag_61\n      jump\t// in\n    tag_60:\n      mload(0x40)\n      tag_62\n      swap2\n      swap1\n      tag_28\n      jump\t// in\n    tag_62:\n      mload(0x40)\n      dup1\n      swap2\n      sub\n      swap1\n      return\n        /* \"CrowdFunding.sol\":580:618  mapping(uint=>Request) public requests */\n    tag_12:\n      callvalue\n      dup1\n      iszero\n      tag_63\n      jumpi\n      0x00\n      dup1\n      revert\n    tag_63:\n      pop\n      tag_64\n      0x04\n      dup1\n      calldatasize\n      sub\n      dup2\n      add\n      swap1\n      tag_65\n      swap2\n      swap1\n      tag_46\n      jump\t// in\n    tag_65:\n      tag_66\n      jump\t// in\n    tag_64:\n      mload(0x40)\n      tag_67\n      swap6\n      swap5\n      swap4\n      swap3\n      swap2\n      swap1\n      tag_68\n      jump\t// in\n    tag_67:\n      mload(0x40)\n      dup1\n      swap2\n      sub\n      swap1\n      return\n        /* \"CrowdFunding.sol\":213:244  uint public minimumContribution */\n    tag_13:\n      callvalue\n      dup1\n      iszero\n      tag_69\n      jumpi\n      0x00\n      dup1\n      revert\n    tag_69:\n      pop\n      tag_70\n      tag_71\n      jump\t// in\n    tag_70:\n      mload(0x40)\n      tag_72\n      swap2\n      swap1\n      tag_28\n      jump\t// in\n    tag_72:\n      mload(0x40)\n      dup1\n      swap2\n      sub\n      swap1\n      return\n        /* \"CrowdFunding.sol\":625:648  uint public numRequests */\n    tag_14:\n      callvalue\n      dup1\n      iszero\n      tag_73\n      jumpi\n      0x00\n      dup1\n      revert\n    tag_73:\n      pop\n      tag_74\n      tag_75\n      jump\t// in\n    tag_74:\n      mload(0x40)\n      tag_76\n      swap2\n      swap1\n      tag_28\n      jump\t// in\n    tag_76:\n      mload(0x40)\n      dup1\n      swap2\n      sub\n      swap1\n      return\n        /* \"CrowdFunding.sol\":303:327  uint public raisedAmount */\n    tag_15:\n      callvalue\n      dup1\n      iszero\n      tag_77\n      jumpi\n      0x00\n      dup1\n      revert\n    tag_77:\n      pop\n      tag_78\n      tag_79\n      jump\t// in\n    tag_78:\n      mload(0x40)\n      tag_80\n      swap2\n      swap1\n      tag_28\n      jump\t// in\n    tag_80:\n      mload(0x40)\n      dup1\n      swap2\n      sub\n      swap1\n      return\n        /* \"CrowdFunding.sol\":278:296  uint public target */\n    tag_16:\n      callvalue\n      dup1\n      iszero\n      tag_81\n      jumpi\n      0x00\n      dup1\n      revert\n    tag_81:\n      pop\n      tag_82\n      tag_83\n      jump\t// in\n    tag_82:\n      mload(0x40)\n      tag_84\n      swap2\n      swap1\n      tag_28\n      jump\t// in\n    tag_84:\n      mload(0x40)\n      dup1\n      swap2\n      sub\n      swap1\n      return\n        /* \"CrowdFunding.sol\":878:1248  function sendEth() public payable{... */\n    tag_21:\n        /* \"CrowdFunding.sol\":948:956  deadline */\n      sload(0x03)\n        /* \"CrowdFunding.sol\":930:945  block.timestamp */\n      timestamp\n        /* \"CrowdFunding.sol\":930:956  block.timestamp < deadline */\n      lt\n        /* \"CrowdFunding.sol\":922:979  require(block.timestamp < deadline,\"Deadline has passed\") */\n      tag_86\n      jumpi\n      mload(0x40)\n      0x08c379a000000000000000000000000000000000000000000000000000000000\n      dup2\n      mstore\n      0x04\n      add\n      tag_87\n      swap1\n      tag_88\n      jump\t// in\n    tag_87:\n      mload(0x40)\n      dup1\n      swap2\n      sub\n      swap1\n      revert\n    tag_86:\n        /* \"CrowdFunding.sol\":1010:1029  minimumContribution */\n      sload(0x02)\n        /* \"CrowdFunding.sol\":998:1007  msg.value */\n      callvalue\n        /* \"CrowdFunding.sol\":998:1029  msg.value >=minimumContribution */\n      lt\n      iszero\n        /* \"CrowdFunding.sol\":990:1064  require(msg.value >=minimumContribution,\"Minimum Contribution is not met\") */\n      tag_89\n      jumpi\n      mload(0x40)\n      0x08c379a000000000000000000000000000000000000000000000000000000000\n      dup2\n      mstore\n      0x04\n      add\n      tag_90\n      swap1\n      tag_91\n      jump\t// in\n    tag_90:\n      mload(0x40)\n      dup1\n      swap2\n      sub\n      swap1\n      revert\n    tag_89:\n        /* \"CrowdFunding.sol\":1114:1115  0 */\n      0x00\n        /* \"CrowdFunding.sol\":1088:1100  contributors */\n      dup1\n        /* \"CrowdFunding.sol\":1088:1112  contributors[msg.sender] */\n      0x00\n        /* \"CrowdFunding.sol\":1101:1111  msg.sender */\n      caller\n        /* \"CrowdFunding.sol\":1088:1112  contributors[msg.sender] */\n      0xffffffffffffffffffffffffffffffffffffffff\n      and\n      0xffffffffffffffffffffffffffffffffffffffff\n      and\n      dup2\n      mstore\n      0x20\n      add\n      swap1\n      dup2\n      mstore\n      0x20\n      add\n      0x00\n      keccak256\n      sload\n        /* \"CrowdFunding.sol\":1088:1115  contributors[msg.sender]==0 */\n      sub\n        /* \"CrowdFunding.sol\":1085:1161  if(contributors[msg.sender]==0){... */\n      tag_92\n      jumpi\n        /* \"CrowdFunding.sol\":1131:1147  noOfContributors */\n      0x06\n      0x00\n        /* \"CrowdFunding.sol\":1131:1149  noOfContributors++ */\n      dup2\n      sload\n      dup1\n      swap3\n      swap2\n      swap1\n      tag_93\n      swap1\n      tag_94\n      jump\t// in\n    tag_93:\n      swap2\n      swap1\n      pop\n      sstore\n      pop\n        /* \"CrowdFunding.sol\":1085:1161  if(contributors[msg.sender]==0){... */\n    tag_92:\n        /* \"CrowdFunding.sol\":1197:1206  msg.value */\n      callvalue\n        /* \"CrowdFunding.sol\":1171:1183  contributors */\n      0x00\n        /* \"CrowdFunding.sol\":1171:1195  contributors[msg.sender] */\n      dup1\n        /* \"CrowdFunding.sol\":1184:1194  msg.sender */\n      caller\n        /* \"CrowdFunding.sol\":1171:1195  contributors[msg.sender] */\n      0xffffffffffffffffffffffffffffffffffffffff\n      and\n      0xffffffffffffffffffffffffffffffffffffffff\n      and\n      dup2\n      mstore\n      0x20\n      add\n      swap1\n      dup2\n      mstore\n      0x20\n      add\n      0x00\n      keccak256\n      0x00\n        /* \"CrowdFunding.sol\":1171:1206  contributors[msg.sender]+=msg.value */\n      dup3\n      dup3\n      sload\n      tag_95\n      swap2\n      swap1\n      tag_96\n      jump\t// in\n    tag_95:\n      swap3\n      pop\n      pop\n      dup2\n      swap1\n      sstore\n      pop\n        /* \"CrowdFunding.sol\":1231:1240  msg.value */\n      callvalue\n        /* \"CrowdFunding.sol\":1217:1229  raisedAmount */\n      0x05\n      0x00\n        /* \"CrowdFunding.sol\":1217:1240  raisedAmount+=msg.value */\n      dup3\n      dup3\n      sload\n      tag_97\n      swap2\n      swap1\n      tag_96\n      jump\t// in\n    tag_97:\n      swap3\n      pop\n      pop\n      dup2\n      swap1\n      sstore\n      pop\n        /* \"CrowdFunding.sol\":878:1248  function sendEth() public payable{... */\n      jump\t// out\n        /* \"CrowdFunding.sol\":103:145  mapping(address=>uint) public contributors */\n    tag_26:\n      mstore(0x20, 0x00)\n      dup1\n      0x00\n      mstore\n      keccak256(0x00, 0x40)\n      0x00\n      swap2\n      pop\n      swap1\n      pop\n      sload\n      dup2\n      jump\t// out\n        /* \"CrowdFunding.sol\":251:271  uint public deadline */\n    tag_31:\n      sload(0x03)\n      dup2\n      jump\t// out\n        /* \"CrowdFunding.sol\":1820:2214  function createRequests(string memory _description,address payable _recipient,uint _value) public onlyManger{... */\n    tag_37:\n        /* \"CrowdFunding.sol\":1747:1754  manager */\n      0x01\n      0x00\n      swap1\n      sload\n      swap1\n      0x0100\n      exp\n      swap1\n      div\n      0xffffffffffffffffffffffffffffffffffffffff\n      and\n        /* \"CrowdFunding.sol\":1735:1754  msg.sender==manager */\n      0xffffffffffffffffffffffffffffffffffffffff\n      and\n        /* \"CrowdFunding.sol\":1735:1745  msg.sender */\n      caller\n        /* \"CrowdFunding.sol\":1735:1754  msg.sender==manager */\n      0xffffffffffffffffffffffffffffffffffffffff\n      and\n      eq\n        /* \"CrowdFunding.sol\":1727:1794  require(msg.sender==manager,\"Only manager can calll this function\") */\n      tag_99\n      jumpi\n      mload(0x40)\n      0x08c379a000000000000000000000000000000000000000000000000000000000\n      dup2\n      mstore\n      0x04\n      add\n      tag_100\n      swap1\n      tag_101\n      jump\t// in\n    tag_100:\n      mload(0x40)\n      dup1\n      swap2\n      sub\n      swap1\n      revert\n    tag_99:\n        /* \"CrowdFunding.sol\":1939:1965  Request storage newRequest */\n      0x00\n        /* \"CrowdFunding.sol\":1968:1976  requests */\n      0x07\n        /* \"CrowdFunding.sol\":1968:1989  requests[numRequests] */\n      0x00\n        /* \"CrowdFunding.sol\":1977:1988  numRequests */\n      sload(0x08)\n        /* \"CrowdFunding.sol\":1968:1989  requests[numRequests] */\n      dup2\n      mstore\n      0x20\n      add\n      swap1\n      dup2\n      mstore\n      0x20\n      add\n      0x00\n      keccak256\n        /* \"CrowdFunding.sol\":1939:1989  Request storage newRequest = requests[numRequests] */\n      swap1\n      pop\n        /* \"CrowdFunding.sol\":2000:2011  numRequests */\n      0x08\n      0x00\n        /* \"CrowdFunding.sol\":2000:2013  numRequests++ */\n      dup2\n      sload\n      dup1\n      swap3\n      swap2\n      swap1\n      tag_103\n      swap1\n      tag_94\n      jump\t// in\n    tag_103:\n      swap2\n      swap1\n      pop\n      sstore\n      pop\n        /* \"CrowdFunding.sol\":2047:2059  _description */\n      dup4\n        /* \"CrowdFunding.sol\":2024:2034  newRequest */\n      dup2\n        /* \"CrowdFunding.sol\":2024:2046  newRequest.description */\n      0x00\n      add\n        /* \"CrowdFunding.sol\":2024:2059  newRequest.description=_description */\n      swap1\n      dup2\n      tag_104\n      swap2\n      swap1\n      tag_105\n      jump\t// in\n    tag_104:\n      pop\n        /* \"CrowdFunding.sol\":2091:2101  _recipient */\n      dup3\n        /* \"CrowdFunding.sol\":2070:2080  newRequest */\n      dup2\n        /* \"CrowdFunding.sol\":2070:2090  newRequest.recipient */\n      0x01\n      add\n      0x00\n        /* \"CrowdFunding.sol\":2070:2101  newRequest.recipient=_recipient */\n      0x0100\n      exp\n      dup2\n      sload\n      dup2\n      0xffffffffffffffffffffffffffffffffffffffff\n      mul\n      not\n      and\n      swap1\n      dup4\n      0xffffffffffffffffffffffffffffffffffffffff\n      and\n      mul\n      or\n      swap1\n      sstore\n      pop\n        /* \"CrowdFunding.sol\":2129:2135  _value */\n      dup2\n        /* \"CrowdFunding.sol\":2112:2122  newRequest */\n      dup2\n        /* \"CrowdFunding.sol\":2112:2128  newRequest.value */\n      0x02\n      add\n        /* \"CrowdFunding.sol\":2112:2135  newRequest.value=_value */\n      dup2\n      swap1\n      sstore\n      pop\n        /* \"CrowdFunding.sol\":2167:2172  false */\n      0x00\n        /* \"CrowdFunding.sol\":2146:2156  newRequest */\n      dup2\n        /* \"CrowdFunding.sol\":2146:2166  newRequest.completed */\n      0x03\n      add\n      0x00\n        /* \"CrowdFunding.sol\":2146:2172  newRequest.completed=false */\n      0x0100\n      exp\n      dup2\n      sload\n      dup2\n      0xff\n      mul\n      not\n      and\n      swap1\n      dup4\n      iszero\n      iszero\n      mul\n      or\n      swap1\n      sstore\n      pop\n        /* \"CrowdFunding.sol\":2205:2206  0 */\n      0x00\n        /* \"CrowdFunding.sol\":2183:2193  newRequest */\n      dup2\n        /* \"CrowdFunding.sol\":2183:2204  newRequest.noOfVoters */\n      0x04\n      add\n        /* \"CrowdFunding.sol\":2183:2206  newRequest.noOfVoters=0 */\n      dup2\n      swap1\n      sstore\n      pop\n        /* \"CrowdFunding.sol\":1928:2214  {... */\n      pop\n        /* \"CrowdFunding.sol\":1820:2214  function createRequests(string memory _description,address payable _recipient,uint _value) public onlyManger{... */\n      pop\n      pop\n      pop\n      jump\t// out\n        /* \"CrowdFunding.sol\":183:205  address public manager */\n    tag_40:\n      0x01\n      0x00\n      swap1\n      sload\n      swap1\n      0x0100\n      exp\n      swap1\n      div\n      0xffffffffffffffffffffffffffffffffffffffff\n      and\n      dup2\n      jump\t// out\n        /* \"CrowdFunding.sol\":2220:2566  function voteRequest(uint _requestNo) public{... */\n    tag_47:\n        /* \"CrowdFunding.sol\":2308:2309  0 */\n      0x00\n        /* \"CrowdFunding.sol\":2283:2295  contributors */\n      dup1\n        /* \"CrowdFunding.sol\":2283:2307  contributors[msg.sender] */\n      0x00\n        /* \"CrowdFunding.sol\":2296:2306  msg.sender */\n      caller\n        /* \"CrowdFunding.sol\":2283:2307  contributors[msg.sender] */\n      0xffffffffffffffffffffffffffffffffffffffff\n      and\n      0xffffffffffffffffffffffffffffffffffffffff\n      and\n      dup2\n      mstore\n      0x20\n      add\n      swap1\n      dup2\n      mstore\n      0x20\n      add\n      0x00\n      keccak256\n      sload\n        /* \"CrowdFunding.sol\":2283:2309  contributors[msg.sender]>0 */\n      gt\n        /* \"CrowdFunding.sol\":2275:2336  require(contributors[msg.sender]>0,\"YOu must be contributor\") */\n      tag_107\n      jumpi\n      mload(0x40)\n      0x08c379a000000000000000000000000000000000000000000000000000000000\n      dup2\n      mstore\n      0x04\n      add\n      tag_108\n      swap1\n      tag_109\n      jump\t// in\n    tag_108:\n      mload(0x40)\n      dup1\n      swap2\n      sub\n      swap1\n      revert\n    tag_107:\n        /* \"CrowdFunding.sol\":2347:2374  Request storage thisRequest */\n      0x00\n        /* \"CrowdFunding.sol\":2375:2383  requests */\n      0x07\n        /* \"CrowdFunding.sol\":2375:2395  requests[_requestNo] */\n      0x00\n        /* \"CrowdFunding.sol\":2384:2394  _requestNo */\n      dup4\n        /* \"CrowdFunding.sol\":2375:2395  requests[_requestNo] */\n      dup2\n      mstore\n      0x20\n      add\n      swap1\n      dup2\n      mstore\n      0x20\n      add\n      0x00\n      keccak256\n        /* \"CrowdFunding.sol\":2347:2395  Request storage thisRequest=requests[_requestNo] */\n      swap1\n      pop\n        /* \"CrowdFunding.sol\":2446:2451  false */\n      0x00\n        /* \"CrowdFunding.sol\":2414:2451  thisRequest.voters[msg.sender]==false */\n      iszero\n      iszero\n        /* \"CrowdFunding.sol\":2414:2425  thisRequest */\n      dup2\n        /* \"CrowdFunding.sol\":2414:2432  thisRequest.voters */\n      0x05\n      add\n        /* \"CrowdFunding.sol\":2414:2444  thisRequest.voters[msg.sender] */\n      0x00\n        /* \"CrowdFunding.sol\":2433:2443  msg.sender */\n      caller\n        /* \"CrowdFunding.sol\":2414:2444  thisRequest.voters[msg.sender] */\n      0xffffffffffffffffffffffffffffffffffffffff\n      and\n      0xffffffffffffffffffffffffffffffffffffffff\n      and\n      dup2\n      mstore\n      0x20\n      add\n      swap1\n      dup2\n      mstore\n      0x20\n      add\n      0x00\n      keccak256\n      0x00\n      swap1\n      sload\n      swap1\n      0x0100\n      exp\n      swap1\n      div\n      0xff\n      and\n        /* \"CrowdFunding.sol\":2414:2451  thisRequest.voters[msg.sender]==false */\n      iszero\n      iszero\n      eq\n        /* \"CrowdFunding.sol\":2406:2477  require(thisRequest.voters[msg.sender]==false,\"You have already voted\") */\n      tag_110\n      jumpi\n      mload(0x40)\n      0x08c379a000000000000000000000000000000000000000000000000000000000\n      dup2\n      mstore\n      0x04\n      add\n      tag_111\n      swap1\n      tag_112\n      jump\t// in\n    tag_111:\n      mload(0x40)\n      dup1\n      swap2\n      sub\n      swap1\n      revert\n    tag_110:\n        /* \"CrowdFunding.sol\":2519:2523  true */\n      0x01\n        /* \"CrowdFunding.sol\":2488:2499  thisRequest */\n      dup2\n        /* \"CrowdFunding.sol\":2488:2506  thisRequest.voters */\n      0x05\n      add\n        /* \"CrowdFunding.sol\":2488:2518  thisRequest.voters[msg.sender] */\n      0x00\n        /* \"CrowdFunding.sol\":2507:2517  msg.sender */\n      caller\n        /* \"CrowdFunding.sol\":2488:2518  thisRequest.voters[msg.sender] */\n      0xffffffffffffffffffffffffffffffffffffffff\n      and\n      0xffffffffffffffffffffffffffffffffffffffff\n      and\n      dup2\n      mstore\n      0x20\n      add\n      swap1\n      dup2\n      mstore\n      0x20\n      add\n      0x00\n      keccak256\n      0x00\n        /* \"CrowdFunding.sol\":2488:2523  thisRequest.voters[msg.sender]=true */\n      0x0100\n      exp\n      dup2\n      sload\n      dup2\n      0xff\n      mul\n      not\n      and\n      swap1\n      dup4\n      iszero\n      iszero\n      mul\n      or\n      swap1\n      sstore\n      pop\n        /* \"CrowdFunding.sol\":2534:2545  thisRequest */\n      dup1\n        /* \"CrowdFunding.sol\":2534:2556  thisRequest.noOfVoters */\n      0x04\n      add\n      0x00\n        /* \"CrowdFunding.sol\":2534:2558  thisRequest.noOfVoters++ */\n      dup2\n      sload\n      dup1\n      swap3\n      swap2\n      swap1\n      tag_113\n      swap1\n      tag_94\n      jump\t// in\n    tag_113:\n      swap2\n      swap1\n      pop\n      sstore\n      pop\n        /* \"CrowdFunding.sol\":2264:2566  {... */\n      pop\n        /* \"CrowdFunding.sol\":2220:2566  function voteRequest(uint _requestNo) public{... */\n      pop\n      jump\t// out\n        /* \"CrowdFunding.sol\":334:362  uint public noOfContributors */\n    tag_50:\n      sload(0x06)\n      dup2\n      jump\t// out\n        /* \"CrowdFunding.sol\":2572:3003  function makePayment(uint _requestNo) public onlyManger{... */\n    tag_55:\n        /* \"CrowdFunding.sol\":1747:1754  manager */\n      0x01\n      0x00\n      swap1\n      sload\n      swap1\n      0x0100\n      exp\n      swap1\n      div\n      0xffffffffffffffffffffffffffffffffffffffff\n      and\n        /* \"CrowdFunding.sol\":1735:1754  msg.sender==manager */\n      0xffffffffffffffffffffffffffffffffffffffff\n      and\n        /* \"CrowdFunding.sol\":1735:1745  msg.sender */\n      caller\n        /* \"CrowdFunding.sol\":1735:1754  msg.sender==manager */\n      0xffffffffffffffffffffffffffffffffffffffff\n      and\n      eq\n        /* \"CrowdFunding.sol\":1727:1794  require(msg.sender==manager,\"Only manager can calll this function\") */\n      tag_115\n      jumpi\n      mload(0x40)\n      0x08c379a000000000000000000000000000000000000000000000000000000000\n      dup2\n      mstore\n      0x04\n      add\n      tag_116\n      swap1\n      tag_101\n      jump\t// in\n    tag_116:\n      mload(0x40)\n      dup1\n      swap2\n      sub\n      swap1\n      revert\n    tag_115:\n        /* \"CrowdFunding.sol\":2660:2666  target */\n      sload(0x04)\n        /* \"CrowdFunding.sol\":2646:2658  raisedAmount */\n      sload(0x05)\n        /* \"CrowdFunding.sol\":2646:2666  raisedAmount>=target */\n      lt\n      iszero\n        /* \"CrowdFunding.sol\":2638:2667  require(raisedAmount>=target) */\n      tag_118\n      jumpi\n      0x00\n      dup1\n      revert\n    tag_118:\n        /* \"CrowdFunding.sol\":2678:2705  Request storage thisRequest */\n      0x00\n        /* \"CrowdFunding.sol\":2706:2714  requests */\n      0x07\n        /* \"CrowdFunding.sol\":2706:2726  requests[_requestNo] */\n      0x00\n        /* \"CrowdFunding.sol\":2715:2725  _requestNo */\n      dup4\n        /* \"CrowdFunding.sol\":2706:2726  requests[_requestNo] */\n      dup2\n      mstore\n      0x20\n      add\n      swap1\n      dup2\n      mstore\n      0x20\n      add\n      0x00\n      keccak256\n        /* \"CrowdFunding.sol\":2678:2726  Request storage thisRequest=requests[_requestNo] */\n      swap1\n      pop\n        /* \"CrowdFunding.sol\":2768:2773  false */\n      0x00\n        /* \"CrowdFunding.sol\":2745:2773  thisRequest.completed==false */\n      iszero\n      iszero\n        /* \"CrowdFunding.sol\":2745:2756  thisRequest */\n      dup2\n        /* \"CrowdFunding.sol\":2745:2766  thisRequest.completed */\n      0x03\n      add\n      0x00\n      swap1\n      sload\n      swap1\n      0x0100\n      exp\n      swap1\n      div\n      0xff\n      and\n        /* \"CrowdFunding.sol\":2745:2773  thisRequest.completed==false */\n      iszero\n      iszero\n      eq\n        /* \"CrowdFunding.sol\":2737:2807  require(thisRequest.completed==false,\"The request has been completed\") */\n      tag_119\n      jumpi\n      mload(0x40)\n      0x08c379a000000000000000000000000000000000000000000000000000000000\n      dup2\n      mstore\n      0x04\n      add\n      tag_120\n      swap1\n      tag_121\n      jump\t// in\n    tag_120:\n      mload(0x40)\n      dup1\n      swap2\n      sub\n      swap1\n      revert\n    tag_119:\n        /* \"CrowdFunding.sol\":2868:2869  2 */\n      0x02\n        /* \"CrowdFunding.sol\":2851:2867  noOfContributors */\n      sload(0x06)\n        /* \"CrowdFunding.sol\":2851:2869  noOfContributors/2 */\n      tag_122\n      swap2\n      swap1\n      tag_123\n      jump\t// in\n    tag_122:\n        /* \"CrowdFunding.sol\":2826:2837  thisRequest */\n      dup2\n        /* \"CrowdFunding.sol\":2826:2848  thisRequest.noOfVoters */\n      0x04\n      add\n      sload\n        /* \"CrowdFunding.sol\":2826:2869  thisRequest.noOfVoters > noOfContributors/2 */\n      gt\n        /* \"CrowdFunding.sol\":2818:2898  require(thisRequest.noOfVoters > noOfContributors/2,\"Majority does not support\") */\n      tag_124\n      jumpi\n      mload(0x40)\n      0x08c379a000000000000000000000000000000000000000000000000000000000\n      dup2\n      mstore\n      0x04\n      add\n      tag_125\n      swap1\n      tag_126\n      jump\t// in\n    tag_125:\n      mload(0x40)\n      dup1\n      swap2\n      sub\n      swap1\n      revert\n    tag_124:\n        /* \"CrowdFunding.sol\":2909:2920  thisRequest */\n      dup1\n        /* \"CrowdFunding.sol\":2909:2930  thisRequest.recipient */\n      0x01\n      add\n      0x00\n      swap1\n      sload\n      swap1\n      0x0100\n      exp\n      swap1\n      div\n      0xffffffffffffffffffffffffffffffffffffffff\n      and\n        /* \"CrowdFunding.sol\":2909:2939  thisRequest.recipient.transfer */\n      0xffffffffffffffffffffffffffffffffffffffff\n      and\n        /* \"CrowdFunding.sol\":2909:2958  thisRequest.recipient.transfer(thisRequest.value) */\n      0x08fc\n        /* \"CrowdFunding.sol\":2940:2951  thisRequest */\n      dup3\n        /* \"CrowdFunding.sol\":2940:2957  thisRequest.value */\n      0x02\n      add\n      sload\n        /* \"CrowdFunding.sol\":2909:2958  thisRequest.recipient.transfer(thisRequest.value) */\n      swap1\n      dup2\n      iszero\n      mul\n      swap1\n      mload(0x40)\n      0x00\n      mload(0x40)\n      dup1\n      dup4\n      sub\n      dup2\n      dup6\n      dup9\n      dup9\n      call\n      swap4\n      pop\n      pop\n      pop\n      pop\n      iszero\n      dup1\n      iszero\n      tag_128\n      jumpi\n      returndatasize\n      0x00\n      dup1\n      returndatacopy\n      revert(0x00, returndatasize)\n    tag_128:\n      pop\n        /* \"CrowdFunding.sol\":2991:2995  true */\n      0x01\n        /* \"CrowdFunding.sol\":2969:2980  thisRequest */\n      dup2\n        /* \"CrowdFunding.sol\":2969:2990  thisRequest.completed */\n      0x03\n      add\n      0x00\n        /* \"CrowdFunding.sol\":2969:2995  thisRequest.completed=true */\n      0x0100\n      exp\n      dup2\n      sload\n      dup2\n      0xff\n      mul\n      not\n      and\n      swap1\n      dup4\n      iszero\n      iszero\n      mul\n      or\n      swap1\n      sstore\n      pop\n        /* \"CrowdFunding.sol\":2627:3003  {... */\n      pop\n        /* \"CrowdFunding.sol\":2572:3003  function makePayment(uint _requestNo) public onlyManger{... */\n      pop\n      jump\t// out\n        /* \"CrowdFunding.sol\":1362:1689  function refund() public{... */\n    tag_58:\n        /* \"CrowdFunding.sol\":1421:1429  deadline */\n      sload(0x03)\n        /* \"CrowdFunding.sol\":1405:1420  block.timestamp */\n      timestamp\n        /* \"CrowdFunding.sol\":1405:1429  block.timestamp>deadline */\n      gt\n        /* \"CrowdFunding.sol\":1405:1452  block.timestamp>deadline && raisedAmount<target */\n      dup1\n      iszero\n      tag_130\n      jumpi\n      pop\n        /* \"CrowdFunding.sol\":1446:1452  target */\n      sload(0x04)\n        /* \"CrowdFunding.sol\":1433:1445  raisedAmount */\n      sload(0x05)\n        /* \"CrowdFunding.sol\":1433:1452  raisedAmount<target */\n      lt\n        /* \"CrowdFunding.sol\":1405:1452  block.timestamp>deadline && raisedAmount<target */\n    tag_130:\n        /* \"CrowdFunding.sol\":1397:1487  require(block.timestamp>deadline && raisedAmount<target,\"You are not eligible for refund\") */\n      tag_131\n      jumpi\n      mload(0x40)\n      0x08c379a000000000000000000000000000000000000000000000000000000000\n      dup2\n      mstore\n      0x04\n      add\n      tag_132\n      swap1\n      tag_133\n      jump\t// in\n    tag_132:\n      mload(0x40)\n      dup1\n      swap2\n      sub\n      swap1\n      revert\n    tag_131:\n        /* \"CrowdFunding.sol\":1531:1532  0 */\n      0x00\n        /* \"CrowdFunding.sol\":1506:1518  contributors */\n      dup1\n        /* \"CrowdFunding.sol\":1506:1530  contributors[msg.sender] */\n      0x00\n        /* \"CrowdFunding.sol\":1519:1529  msg.sender */\n      caller\n        /* \"CrowdFunding.sol\":1506:1530  contributors[msg.sender] */\n      0xffffffffffffffffffffffffffffffffffffffff\n      and\n      0xffffffffffffffffffffffffffffffffffffffff\n      and\n      dup2\n      mstore\n      0x20\n      add\n      swap1\n      dup2\n      mstore\n      0x20\n      add\n      0x00\n      keccak256\n      sload\n        /* \"CrowdFunding.sol\":1506:1532  contributors[msg.sender]>0 */\n      gt\n        /* \"CrowdFunding.sol\":1498:1533  require(contributors[msg.sender]>0) */\n      tag_134\n      jumpi\n      0x00\n      dup1\n      revert\n    tag_134:\n        /* \"CrowdFunding.sol\":1544:1564  address payable user */\n      0x00\n        /* \"CrowdFunding.sol\":1573:1583  msg.sender */\n      caller\n        /* \"CrowdFunding.sol\":1544:1584  address payable user=payable(msg.sender) */\n      swap1\n      pop\n        /* \"CrowdFunding.sol\":1595:1599  user */\n      dup1\n        /* \"CrowdFunding.sol\":1595:1608  user.transfer */\n      0xffffffffffffffffffffffffffffffffffffffff\n      and\n        /* \"CrowdFunding.sol\":1595:1634  user.transfer(contributors[msg.sender]) */\n      0x08fc\n        /* \"CrowdFunding.sol\":1609:1621  contributors */\n      0x00\n        /* \"CrowdFunding.sol\":1609:1633  contributors[msg.sender] */\n      dup1\n        /* \"CrowdFunding.sol\":1622:1632  msg.sender */\n      caller\n        /* \"CrowdFunding.sol\":1609:1633  contributors[msg.sender] */\n      0xffffffffffffffffffffffffffffffffffffffff\n      and\n      0xffffffffffffffffffffffffffffffffffffffff\n      and\n      dup2\n      mstore\n      0x20\n      add\n      swap1\n      dup2\n      mstore\n      0x20\n      add\n      0x00\n      keccak256\n      sload\n        /* \"CrowdFunding.sol\":1595:1634  user.transfer(contributors[msg.sender]) */\n      swap1\n      dup2\n      iszero\n      mul\n      swap1\n      mload(0x40)\n      0x00\n      mload(0x40)\n      dup1\n      dup4\n      sub\n      dup2\n      dup6\n      dup9\n      dup9\n      call\n      swap4\n      pop\n      pop\n      pop\n      pop\n      iszero\n      dup1\n      iszero\n      tag_136\n      jumpi\n      returndatasize\n      0x00\n      dup1\n      returndatacopy\n      revert(0x00, returndatasize)\n    tag_136:\n      pop\n        /* \"CrowdFunding.sol\":1670:1671  0 */\n      0x00\n        /* \"CrowdFunding.sol\":1645:1657  contributors */\n      dup1\n        /* \"CrowdFunding.sol\":1645:1669  contributors[msg.sender] */\n      0x00\n        /* \"CrowdFunding.sol\":1658:1668  msg.sender */\n      caller\n        /* \"CrowdFunding.sol\":1645:1669  contributors[msg.sender] */\n      0xffffffffffffffffffffffffffffffffffffffff\n      and\n      0xffffffffffffffffffffffffffffffffffffffff\n      and\n      dup2\n      mstore\n      0x20\n      add\n      swap1\n      dup2\n      mstore\n      0x20\n      add\n      0x00\n      keccak256\n        /* \"CrowdFunding.sol\":1645:1671  contributors[msg.sender]=0 */\n      dup2\n      swap1\n      sstore\n      pop\n        /* \"CrowdFunding.sol\":1386:1689  {... */\n      pop\n        /* \"CrowdFunding.sol\":1362:1689  function refund() public{... */\n      jump\t// out\n        /* \"CrowdFunding.sol\":1254:1356  function getContractBalance() public view returns(uint){... */\n    tag_61:\n        /* \"CrowdFunding.sol\":1304:1308  uint */\n      0x00\n        /* \"CrowdFunding.sol\":1327:1348  address(this).balance */\n      selfbalance\n        /* \"CrowdFunding.sol\":1320:1348  return address(this).balance */\n      swap1\n      pop\n        /* \"CrowdFunding.sol\":1254:1356  function getContractBalance() public view returns(uint){... */\n      swap1\n      jump\t// out\n        /* \"CrowdFunding.sol\":580:618  mapping(uint=>Request) public requests */\n    tag_66:\n      mstore(0x20, 0x07)\n      dup1\n      0x00\n      mstore\n      keccak256(0x00, 0x40)\n      0x00\n      swap2\n      pop\n      swap1\n      pop\n      dup1\n      0x00\n      add\n      dup1\n      sload\n      tag_138\n      swap1\n      tag_139\n      jump\t// in\n    tag_138:\n      dup1\n      0x1f\n      add\n      0x20\n      dup1\n      swap2\n      div\n      mul\n      0x20\n      add\n      mload(0x40)\n      swap1\n      dup2\n      add\n      0x40\n      mstore\n      dup1\n      swap3\n      swap2\n      swap1\n      dup2\n      dup2\n      mstore\n      0x20\n      add\n      dup3\n      dup1\n      sload\n      tag_140\n      swap1\n      tag_139\n      jump\t// in\n    tag_140:\n      dup1\n      iszero\n      tag_141\n      jumpi\n      dup1\n      0x1f\n      lt\n      tag_142\n      jumpi\n      0x0100\n      dup1\n      dup4\n      sload\n      div\n      mul\n      dup4\n      mstore\n      swap2\n      0x20\n      add\n      swap2\n      jump(tag_141)\n    tag_142:\n      dup3\n      add\n      swap2\n      swap1\n      0x00\n      mstore\n      keccak256(0x00, 0x20)\n      swap1\n    tag_143:\n      dup2\n      sload\n      dup2\n      mstore\n      swap1\n      0x01\n      add\n      swap1\n      0x20\n      add\n      dup1\n      dup4\n      gt\n      tag_143\n      jumpi\n      dup3\n      swap1\n      sub\n      0x1f\n      and\n      dup3\n      add\n      swap2\n    tag_141:\n      pop\n      pop\n      pop\n      pop\n      pop\n      swap1\n      dup1\n      0x01\n      add\n      0x00\n      swap1\n      sload\n      swap1\n      0x0100\n      exp\n      swap1\n      div\n      0xffffffffffffffffffffffffffffffffffffffff\n      and\n      swap1\n      dup1\n      0x02\n      add\n      sload\n      swap1\n      dup1\n      0x03\n      add\n      0x00\n      swap1\n      sload\n      swap1\n      0x0100\n      exp\n      swap1\n      div\n      0xff\n      and\n      swap1\n      dup1\n      0x04\n      add\n      sload\n      swap1\n      pop\n      dup6\n      jump\t// out\n        /* \"CrowdFunding.sol\":213:244  uint public minimumContribution */\n    tag_71:\n      sload(0x02)\n      dup2\n      jump\t// out\n        /* \"CrowdFunding.sol\":625:648  uint public numRequests */\n    tag_75:\n      sload(0x08)\n      dup2\n      jump\t// out\n        /* \"CrowdFunding.sol\":303:327  uint public raisedAmount */\n    tag_79:\n      sload(0x05)\n      dup2\n      jump\t// out\n        /* \"CrowdFunding.sol\":278:296  uint public target */\n    tag_83:\n      sload(0x04)\n      dup2\n      jump\t// out\n        /* \"#utility.yul\":7:82   */\n    tag_144:\n        /* \"#utility.yul\":40:46   */\n      0x00\n        /* \"#utility.yul\":73:75   */\n      0x40\n        /* \"#utility.yul\":67:76   */\n      mload\n        /* \"#utility.yul\":57:76   */\n      swap1\n      pop\n        /* \"#utility.yul\":7:82   */\n      swap1\n      jump\t// out\n        /* \"#utility.yul\":88:205   */\n    tag_145:\n        /* \"#utility.yul\":197:198   */\n      0x00\n        /* \"#utility.yul\":194:195   */\n      dup1\n        /* \"#utility.yul\":187:199   */\n      revert\n        /* \"#utility.yul\":211:328   */\n    tag_146:\n        /* \"#utility.yul\":320:321   */\n      0x00\n        /* \"#utility.yul\":317:318   */\n      dup1\n        /* \"#utility.yul\":310:322   */\n      revert\n        /* \"#utility.yul\":334:460   */\n    tag_147:\n        /* \"#utility.yul\":371:378   */\n      0x00\n        /* \"#utility.yul\":411:453   */\n      0xffffffffffffffffffffffffffffffffffffffff\n        /* \"#utility.yul\":404:409   */\n      dup3\n        /* \"#utility.yul\":400:454   */\n      and\n        /* \"#utility.yul\":389:454   */\n      swap1\n      pop\n        /* \"#utility.yul\":334:460   */\n      swap2\n      swap1\n      pop\n      jump\t// out\n        /* \"#utility.yul\":466:562   */\n    tag_148:\n        /* \"#utility.yul\":503:510   */\n      0x00\n        /* \"#utility.yul\":532:556   */\n      tag_216\n        /* \"#utility.yul\":550:555   */\n      dup3\n        /* \"#utility.yul\":532:556   */\n      tag_147\n      jump\t// in\n    tag_216:\n        /* \"#utility.yul\":521:556   */\n      swap1\n      pop\n        /* \"#utility.yul\":466:562   */\n      swap2\n      swap1\n      pop\n      jump\t// out\n        /* \"#utility.yul\":568:690   */\n    tag_149:\n        /* \"#utility.yul\":641:665   */\n      tag_218\n        /* \"#utility.yul\":659:664   */\n      dup2\n        /* \"#utility.yul\":641:665   */\n      tag_148\n      jump\t// in\n    tag_218:\n        /* \"#utility.yul\":634:639   */\n      dup2\n        /* \"#utility.yul\":631:666   */\n      eq\n        /* \"#utility.yul\":621:684   */\n      tag_219\n      jumpi\n        /* \"#utility.yul\":680:681   */\n      0x00\n        /* \"#utility.yul\":677:678   */\n      dup1\n        /* \"#utility.yul\":670:682   */\n      revert\n        /* \"#utility.yul\":621:684   */\n    tag_219:\n        /* \"#utility.yul\":568:690   */\n      pop\n      jump\t// out\n        /* \"#utility.yul\":696:835   */\n    tag_150:\n        /* \"#utility.yul\":742:747   */\n      0x00\n        /* \"#utility.yul\":780:786   */\n      dup2\n        /* \"#utility.yul\":767:787   */\n      calldataload\n        /* \"#utility.yul\":758:787   */\n      swap1\n      pop\n        /* \"#utility.yul\":796:829   */\n      tag_221\n        /* \"#utility.yul\":823:828   */\n      dup2\n        /* \"#utility.yul\":796:829   */\n      tag_149\n      jump\t// in\n    tag_221:\n        /* \"#utility.yul\":696:835   */\n      swap3\n      swap2\n      pop\n      pop\n      jump\t// out\n        /* \"#utility.yul\":841:1170   */\n    tag_25:\n        /* \"#utility.yul\":900:906   */\n      0x00\n        /* \"#utility.yul\":949:951   */\n      0x20\n        /* \"#utility.yul\":937:946   */\n      dup3\n        /* \"#utility.yul\":928:935   */\n      dup5\n        /* \"#utility.yul\":924:947   */\n      sub\n        /* \"#utility.yul\":920:952   */\n      slt\n        /* \"#utility.yul\":917:1036   */\n      iszero\n      tag_223\n      jumpi\n        /* \"#utility.yul\":955:1034   */\n      tag_224\n      tag_145\n      jump\t// in\n    tag_224:\n        /* \"#utility.yul\":917:1036   */\n    tag_223:\n        /* \"#utility.yul\":1075:1076   */\n      0x00\n        /* \"#utility.yul\":1100:1153   */\n      tag_225\n        /* \"#utility.yul\":1145:1152   */\n      dup5\n        /* \"#utility.yul\":1136:1142   */\n      dup3\n        /* \"#utility.yul\":1125:1134   */\n      dup6\n        /* \"#utility.yul\":1121:1143   */\n      add\n        /* \"#utility.yul\":1100:1153   */\n      tag_150\n      jump\t// in\n    tag_225:\n        /* \"#utility.yul\":1090:1153   */\n      swap2\n      pop\n        /* \"#utility.yul\":1046:1163   */\n      pop\n        /* \"#utility.yul\":841:1170   */\n      swap3\n      swap2\n      pop\n      pop\n      jump\t// out\n        /* \"#utility.yul\":1176:1253   */\n    tag_151:\n        /* \"#utility.yul\":1213:1220   */\n      0x00\n        /* \"#utility.yul\":1242:1247   */\n      dup2\n        /* \"#utility.yul\":1231:1247   */\n      swap1\n      pop\n        /* \"#utility.yul\":1176:1253   */\n      swap2\n      swap1\n      pop\n      jump\t// out\n        /* \"#utility.yul\":1259:1377   */\n    tag_152:\n        /* \"#utility.yul\":1346:1370   */\n      tag_228\n        /* \"#utility.yul\":1364:1369   */\n      dup2\n        /* \"#utility.yul\":1346:1370   */\n      tag_151\n      jump\t// in\n    tag_228:\n        /* \"#utility.yul\":1341:1344   */\n      dup3\n        /* \"#utility.yul\":1334:1371   */\n      mstore\n        /* \"#utility.yul\":1259:1377   */\n      pop\n      pop\n      jump\t// out\n        /* \"#utility.yul\":1383:1605   */\n    tag_28:\n        /* \"#utility.yul\":1476:1480   */\n      0x00\n        /* \"#utility.yul\":1514:1516   */\n      0x20\n        /* \"#utility.yul\":1503:1512   */\n      dup3\n        /* \"#utility.yul\":1499:1517   */\n      add\n        /* \"#utility.yul\":1491:1517   */\n      swap1\n      pop\n        /* \"#utility.yul\":1527:1598   */\n      tag_230\n        /* \"#utility.yul\":1595:1596   */\n      0x00\n        /* \"#utility.yul\":1584:1593   */\n      dup4\n        /* \"#utility.yul\":1580:1597   */\n      add\n        /* \"#utility.yul\":1571:1577   */\n      dup5\n        /* \"#utility.yul\":1527:1598   */\n      tag_152\n      jump\t// in\n    tag_230:\n        /* \"#utility.yul\":1383:1605   */\n      swap3\n      swap2\n      pop\n      pop\n      jump\t// out\n        /* \"#utility.yul\":1611:1728   */\n    tag_153:\n        /* \"#utility.yul\":1720:1721   */\n      0x00\n        /* \"#utility.yul\":1717:1718   */\n      dup1\n        /* \"#utility.yul\":1710:1722   */\n      revert\n        /* \"#utility.yul\":1734:1851   */\n    tag_154:\n        /* \"#utility.yul\":1843:1844   */\n      0x00\n        /* \"#utility.yul\":1840:1841   */\n      dup1\n        /* \"#utility.yul\":1833:1845   */\n      revert\n        /* \"#utility.yul\":1857:1959   */\n    tag_155:\n        /* \"#utility.yul\":1898:1904   */\n      0x00\n        /* \"#utility.yul\":1949:1951   */\n      0x1f\n        /* \"#utility.yul\":1945:1952   */\n      not\n        /* \"#utility.yul\":1940:1942   */\n      0x1f\n        /* \"#utility.yul\":1933:1938   */\n      dup4\n        /* \"#utility.yul\":1929:1943   */\n      add\n        /* \"#utility.yul\":1925:1953   */\n      and\n        /* \"#utility.yul\":1915:1953   */\n      swap1\n      pop\n        /* \"#utility.yul\":1857:1959   */\n      swap2\n      swap1\n      pop\n      jump\t// out\n        /* \"#utility.yul\":1965:2145   */\n    tag_156:\n        /* \"#utility.yul\":2013:2090   */\n      0x4e487b7100000000000000000000000000000000000000000000000000000000\n        /* \"#utility.yul\":2010:2011   */\n      0x00\n        /* \"#utility.yul\":2003:2091   */\n      mstore\n        /* \"#utility.yul\":2110:2114   */\n      0x41\n        /* \"#utility.yul\":2107:2108   */\n      0x04\n        /* \"#utility.yul\":2100:2115   */\n      mstore\n        /* \"#utility.yul\":2134:2138   */\n      0x24\n        /* \"#utility.yul\":2131:2132   */\n      0x00\n        /* \"#utility.yul\":2124:2139   */\n      revert\n        /* \"#utility.yul\":2151:2432   */\n    tag_157:\n        /* \"#utility.yul\":2234:2261   */\n      tag_236\n        /* \"#utility.yul\":2256:2260   */\n      dup3\n        /* \"#utility.yul\":2234:2261   */\n      tag_155\n      jump\t// in\n    tag_236:\n        /* \"#utility.yul\":2226:2232   */\n      dup2\n        /* \"#utility.yul\":2222:2262   */\n      add\n        /* \"#utility.yul\":2364:2370   */\n      dup2\n        /* \"#utility.yul\":2352:2362   */\n      dup2\n        /* \"#utility.yul\":2349:2371   */\n      lt\n        /* \"#utility.yul\":2328:2346   */\n      0xffffffffffffffff\n        /* \"#utility.yul\":2316:2326   */\n      dup3\n        /* \"#utility.yul\":2313:2347   */\n      gt\n        /* \"#utility.yul\":2310:2372   */\n      or\n        /* \"#utility.yul\":2307:2395   */\n      iszero\n      tag_237\n      jumpi\n        /* \"#utility.yul\":2375:2393   */\n      tag_238\n      tag_156\n      jump\t// in\n    tag_238:\n        /* \"#utility.yul\":2307:2395   */\n    tag_237:\n        /* \"#utility.yul\":2415:2425   */\n      dup1\n        /* \"#utility.yul\":2411:2413   */\n      0x40\n        /* \"#utility.yul\":2404:2426   */\n      mstore\n        /* \"#utility.yul\":2194:2432   */\n      pop\n        /* \"#utility.yul\":2151:2432   */\n      pop\n      pop\n      jump\t// out\n        /* \"#utility.yul\":2438:2567   */\n    tag_158:\n        /* \"#utility.yul\":2472:2478   */\n      0x00\n        /* \"#utility.yul\":2499:2519   */\n      tag_240\n      tag_144\n      jump\t// in\n    tag_240:\n        /* \"#utility.yul\":2489:2519   */\n      swap1\n      pop\n        /* \"#utility.yul\":2528:2561   */\n      tag_241\n        /* \"#utility.yul\":2556:2560   */\n      dup3\n        /* \"#utility.yul\":2548:2554   */\n      dup3\n        /* \"#utility.yul\":2528:2561   */\n      tag_157\n      jump\t// in\n    tag_241:\n        /* \"#utility.yul\":2438:2567   */\n      swap2\n      swap1\n      pop\n      jump\t// out\n        /* \"#utility.yul\":2573:2881   */\n    tag_159:\n        /* \"#utility.yul\":2635:2639   */\n      0x00\n        /* \"#utility.yul\":2725:2743   */\n      0xffffffffffffffff\n        /* \"#utility.yul\":2717:2723   */\n      dup3\n        /* \"#utility.yul\":2714:2744   */\n      gt\n        /* \"#utility.yul\":2711:2767   */\n      iszero\n      tag_243\n      jumpi\n        /* \"#utility.yul\":2747:2765   */\n      tag_244\n      tag_156\n      jump\t// in\n    tag_244:\n        /* \"#utility.yul\":2711:2767   */\n    tag_243:\n        /* \"#utility.yul\":2785:2814   */\n      tag_245\n        /* \"#utility.yul\":2807:2813   */\n      dup3\n        /* \"#utility.yul\":2785:2814   */\n      tag_155\n      jump\t// in\n    tag_245:\n        /* \"#utility.yul\":2777:2814   */\n      swap1\n      pop\n        /* \"#utility.yul\":2869:2873   */\n      0x20\n        /* \"#utility.yul\":2863:2867   */\n      dup2\n        /* \"#utility.yul\":2859:2874   */\n      add\n        /* \"#utility.yul\":2851:2874   */\n      swap1\n      pop\n        /* \"#utility.yul\":2573:2881   */\n      swap2\n      swap1\n      pop\n      jump\t// out\n        /* \"#utility.yul\":2887:3033   */\n    tag_160:\n        /* \"#utility.yul\":2984:2990   */\n      dup3\n        /* \"#utility.yul\":2979:2982   */\n      dup2\n        /* \"#utility.yul\":2974:2977   */\n      dup4\n        /* \"#utility.yul\":2961:2991   */\n      calldatacopy\n        /* \"#utility.yul\":3025:3026   */\n      0x00\n        /* \"#utility.yul\":3016:3022   */\n      dup4\n        /* \"#utility.yul\":3011:3014   */\n      dup4\n        /* \"#utility.yul\":3007:3023   */\n      add\n        /* \"#utility.yul\":3000:3027   */\n      mstore\n        /* \"#utility.yul\":2887:3033   */\n      pop\n      pop\n      pop\n      jump\t// out\n        /* \"#utility.yul\":3039:3464   */\n    tag_161:\n        /* \"#utility.yul\":3117:3122   */\n      0x00\n        /* \"#utility.yul\":3142:3208   */\n      tag_248\n        /* \"#utility.yul\":3158:3207   */\n      tag_249\n        /* \"#utility.yul\":3200:3206   */\n      dup5\n        /* \"#utility.yul\":3158:3207   */\n      tag_159\n      jump\t// in\n    tag_249:\n        /* \"#utility.yul\":3142:3208   */\n      tag_158\n      jump\t// in\n    tag_248:\n        /* \"#utility.yul\":3133:3208   */\n      swap1\n      pop\n        /* \"#utility.yul\":3231:3237   */\n      dup3\n        /* \"#utility.yul\":3224:3229   */\n      dup2\n        /* \"#utility.yul\":3217:3238   */\n      mstore\n        /* \"#utility.yul\":3269:3273   */\n      0x20\n        /* \"#utility.yul\":3262:3267   */\n      dup2\n        /* \"#utility.yul\":3258:3274   */\n      add\n        /* \"#utility.yul\":3307:3310   */\n      dup5\n        /* \"#utility.yul\":3298:3304   */\n      dup5\n        /* \"#utility.yul\":3293:3296   */\n      dup5\n        /* \"#utility.yul\":3289:3305   */\n      add\n        /* \"#utility.yul\":3286:3311   */\n      gt\n        /* \"#utility.yul\":3283:3395   */\n      iszero\n      tag_250\n      jumpi\n        /* \"#utility.yul\":3314:3393   */\n      tag_251\n      tag_154\n      jump\t// in\n    tag_251:\n        /* \"#utility.yul\":3283:3395   */\n    tag_250:\n        /* \"#utility.yul\":3404:3458   */\n      tag_252\n        /* \"#utility.yul\":3451:3457   */\n      dup5\n        /* \"#utility.yul\":3446:3449   */\n      dup3\n        /* \"#utility.yul\":3441:3444   */\n      dup6\n        /* \"#utility.yul\":3404:3458   */\n      tag_160\n      jump\t// in\n    tag_252:\n        /* \"#utility.yul\":3123:3464   */\n      pop\n        /* \"#utility.yul\":3039:3464   */\n      swap4\n      swap3\n      pop\n      pop\n      pop\n      jump\t// out\n        /* \"#utility.yul\":3484:3824   */\n    tag_162:\n        /* \"#utility.yul\":3540:3545   */\n      0x00\n        /* \"#utility.yul\":3589:3592   */\n      dup3\n        /* \"#utility.yul\":3582:3586   */\n      0x1f\n        /* \"#utility.yul\":3574:3580   */\n      dup4\n        /* \"#utility.yul\":3570:3587   */\n      add\n        /* \"#utility.yul\":3566:3593   */\n      slt\n        /* \"#utility.yul\":3556:3678   */\n      tag_254\n      jumpi\n        /* \"#utility.yul\":3597:3676   */\n      tag_255\n      tag_153\n      jump\t// in\n    tag_255:\n        /* \"#utility.yul\":3556:3678   */\n    tag_254:\n        /* \"#utility.yul\":3714:3720   */\n      dup2\n        /* \"#utility.yul\":3701:3721   */\n      calldataload\n        /* \"#utility.yul\":3739:3818   */\n      tag_256\n        /* \"#utility.yul\":3814:3817   */\n      dup5\n        /* \"#utility.yul\":3806:3812   */\n      dup3\n        /* \"#utility.yul\":3799:3803   */\n      0x20\n        /* \"#utility.yul\":3791:3797   */\n      dup7\n        /* \"#utility.yul\":3787:3804   */\n      add\n        /* \"#utility.yul\":3739:3818   */\n      tag_161\n      jump\t// in\n    tag_256:\n        /* \"#utility.yul\":3730:3818   */\n      swap2\n      pop\n        /* \"#utility.yul\":3546:3824   */\n      pop\n        /* \"#utility.yul\":3484:3824   */\n      swap3\n      swap2\n      pop\n      pop\n      jump\t// out\n        /* \"#utility.yul\":3830:3934   */\n    tag_163:\n        /* \"#utility.yul\":3875:3882   */\n      0x00\n        /* \"#utility.yul\":3904:3928   */\n      tag_258\n        /* \"#utility.yul\":3922:3927   */\n      dup3\n        /* \"#utility.yul\":3904:3928   */\n      tag_147\n      jump\t// in\n    tag_258:\n        /* \"#utility.yul\":3893:3928   */\n      swap1\n      pop\n        /* \"#utility.yul\":3830:3934   */\n      swap2\n      swap1\n      pop\n      jump\t// out\n        /* \"#utility.yul\":3940:4078   */\n    tag_164:\n        /* \"#utility.yul\":4021:4053   */\n      tag_260\n        /* \"#utility.yul\":4047:4052   */\n      dup2\n        /* \"#utility.yul\":4021:4053   */\n      tag_163\n      jump\t// in\n    tag_260:\n        /* \"#utility.yul\":4014:4019   */\n      dup2\n        /* \"#utility.yul\":4011:4054   */\n      eq\n        /* \"#utility.yul\":4001:4072   */\n      tag_261\n      jumpi\n        /* \"#utility.yul\":4068:4069   */\n      0x00\n        /* \"#utility.yul\":4065:4066   */\n      dup1\n        /* \"#utility.yul\":4058:4070   */\n      revert\n        /* \"#utility.yul\":4001:4072   */\n    tag_261:\n        /* \"#utility.yul\":3940:4078   */\n      pop\n      jump\t// out\n        /* \"#utility.yul\":4084:4239   */\n    tag_165:\n        /* \"#utility.yul\":4138:4143   */\n      0x00\n        /* \"#utility.yul\":4176:4182   */\n      dup2\n        /* \"#utility.yul\":4163:4183   */\n      calldataload\n        /* \"#utility.yul\":4154:4183   */\n      swap1\n      pop\n        /* \"#utility.yul\":4192:4233   */\n      tag_263\n        /* \"#utility.yul\":4227:4232   */\n      dup2\n        /* \"#utility.yul\":4192:4233   */\n      tag_164\n      jump\t// in\n    tag_263:\n        /* \"#utility.yul\":4084:4239   */\n      swap3\n      swap2\n      pop\n      pop\n      jump\t// out\n        /* \"#utility.yul\":4245:4367   */\n    tag_166:\n        /* \"#utility.yul\":4318:4342   */\n      tag_265\n        /* \"#utility.yul\":4336:4341   */\n      dup2\n        /* \"#utility.yul\":4318:4342   */\n      tag_151\n      jump\t// in\n    tag_265:\n        /* \"#utility.yul\":4311:4316   */\n      dup2\n        /* \"#utility.yul\":4308:4343   */\n      eq\n        /* \"#utility.yul\":4298:4361   */\n      tag_266\n      jumpi\n        /* \"#utility.yul\":4357:4358   */\n      0x00\n        /* \"#utility.yul\":4354:4355   */\n      dup1\n        /* \"#utility.yul\":4347:4359   */\n      revert\n        /* \"#utility.yul\":4298:4361   */\n    tag_266:\n        /* \"#utility.yul\":4245:4367   */\n      pop\n      jump\t// out\n        /* \"#utility.yul\":4373:4512   */\n    tag_167:\n        /* \"#utility.yul\":4419:4424   */\n      0x00\n        /* \"#utility.yul\":4457:4463   */\n      dup2\n        /* \"#utility.yul\":4444:4464   */\n      calldataload\n        /* \"#utility.yul\":4435:4464   */\n      swap1\n      pop\n        /* \"#utility.yul\":4473:4506   */\n      tag_268\n        /* \"#utility.yul\":4500:4505   */\n      dup2\n        /* \"#utility.yul\":4473:4506   */\n      tag_166\n      jump\t// in\n    tag_268:\n        /* \"#utility.yul\":4373:4512   */\n      swap3\n      swap2\n      pop\n      pop\n      jump\t// out\n        /* \"#utility.yul\":4518:5333   */\n    tag_36:\n        /* \"#utility.yul\":4613:4619   */\n      0x00\n        /* \"#utility.yul\":4621:4627   */\n      dup1\n        /* \"#utility.yul\":4629:4635   */\n      0x00\n        /* \"#utility.yul\":4678:4680   */\n      0x60\n        /* \"#utility.yul\":4666:4675   */\n      dup5\n        /* \"#utility.yul\":4657:4664   */\n      dup7\n        /* \"#utility.yul\":4653:4676   */\n      sub\n        /* \"#utility.yul\":4649:4681   */\n      slt\n        /* \"#utility.yul\":4646:4765   */\n      iszero\n      tag_270\n      jumpi\n        /* \"#utility.yul\":4684:4763   */\n      tag_271\n      tag_145\n      jump\t// in\n    tag_271:\n        /* \"#utility.yul\":4646:4765   */\n    tag_270:\n        /* \"#utility.yul\":4832:4833   */\n      0x00\n        /* \"#utility.yul\":4821:4830   */\n      dup5\n        /* \"#utility.yul\":4817:4834   */\n      add\n        /* \"#utility.yul\":4804:4835   */\n      calldataload\n        /* \"#utility.yul\":4862:4880   */\n      0xffffffffffffffff\n        /* \"#utility.yul\":4854:4860   */\n      dup2\n        /* \"#utility.yul\":4851:4881   */\n      gt\n        /* \"#utility.yul\":4848:4965   */\n      iszero\n      tag_272\n      jumpi\n        /* \"#utility.yul\":4884:4963   */\n      tag_273\n      tag_146\n      jump\t// in\n    tag_273:\n        /* \"#utility.yul\":4848:4965   */\n    tag_272:\n        /* \"#utility.yul\":4989:5052   */\n      tag_274\n        /* \"#utility.yul\":5044:5051   */\n      dup7\n        /* \"#utility.yul\":5035:5041   */\n      dup3\n        /* \"#utility.yul\":5024:5033   */\n      dup8\n        /* \"#utility.yul\":5020:5042   */\n      add\n        /* \"#utility.yul\":4989:5052   */\n      tag_162\n      jump\t// in\n    tag_274:\n        /* \"#utility.yul\":4979:5052   */\n      swap4\n      pop\n        /* \"#utility.yul\":4775:5062   */\n      pop\n        /* \"#utility.yul\":5101:5103   */\n      0x20\n        /* \"#utility.yul\":5127:5188   */\n      tag_275\n        /* \"#utility.yul\":5180:5187   */\n      dup7\n        /* \"#utility.yul\":5171:5177   */\n      dup3\n        /* \"#utility.yul\":5160:5169   */\n      dup8\n        /* \"#utility.yul\":5156:5178   */\n      add\n        /* \"#utility.yul\":5127:5188   */\n      tag_165\n      jump\t// in\n    tag_275:\n        /* \"#utility.yul\":5117:5188   */\n      swap3\n      pop\n        /* \"#utility.yul\":5072:5198   */\n      pop\n        /* \"#utility.yul\":5237:5239   */\n      0x40\n        /* \"#utility.yul\":5263:5316   */\n      tag_276\n        /* \"#utility.yul\":5308:5315   */\n      dup7\n        /* \"#utility.yul\":5299:5305   */\n      dup3\n        /* \"#utility.yul\":5288:5297   */\n      dup8\n        /* \"#utility.yul\":5284:5306   */\n      add\n        /* \"#utility.yul\":5263:5316   */\n      tag_167\n      jump\t// in\n    tag_276:\n        /* \"#utility.yul\":5253:5316   */\n      swap2\n      pop\n        /* \"#utility.yul\":5208:5326   */\n      pop\n        /* \"#utility.yul\":4518:5333   */\n      swap3\n      pop\n      swap3\n      pop\n      swap3\n      jump\t// out\n        /* \"#utility.yul\":5339:5457   */\n    tag_168:\n        /* \"#utility.yul\":5426:5450   */\n      tag_278\n        /* \"#utility.yul\":5444:5449   */\n      dup2\n        /* \"#utility.yul\":5426:5450   */\n      tag_148\n      jump\t// in\n    tag_278:\n        /* \"#utility.yul\":5421:5424   */\n      dup3\n        /* \"#utility.yul\":5414:5451   */\n      mstore\n        /* \"#utility.yul\":5339:5457   */\n      pop\n      pop\n      jump\t// out\n        /* \"#utility.yul\":5463:5685   */\n    tag_42:\n        /* \"#utility.yul\":5556:5560   */\n      0x00\n        /* \"#utility.yul\":5594:5596   */\n      0x20\n        /* \"#utility.yul\":5583:5592   */\n      dup3\n        /* \"#utility.yul\":5579:5597   */\n      add\n        /* \"#utility.yul\":5571:5597   */\n      swap1\n      pop\n        /* \"#utility.yul\":5607:5678   */\n      tag_280\n        /* \"#utility.yul\":5675:5676   */\n      0x00\n        /* \"#utility.yul\":5664:5673   */\n      dup4\n        /* \"#utility.yul\":5660:5677   */\n      add\n        /* \"#utility.yul\":5651:5657   */\n      dup5\n        /* \"#utility.yul\":5607:5678   */\n      tag_168\n      jump\t// in\n    tag_280:\n        /* \"#utility.yul\":5463:5685   */\n      swap3\n      swap2\n      pop\n      pop\n      jump\t// out\n        /* \"#utility.yul\":5691:6020   */\n    tag_46:\n        /* \"#utility.yul\":5750:5756   */\n      0x00\n        /* \"#utility.yul\":5799:5801   */\n      0x20\n        /* \"#utility.yul\":5787:5796   */\n      dup3\n        /* \"#utility.yul\":5778:5785   */\n      dup5\n        /* \"#utility.yul\":5774:5797   */\n      sub\n        /* \"#utility.yul\":5770:5802   */\n      slt\n        /* \"#utility.yul\":5767:5886   */\n      iszero\n      tag_282\n      jumpi\n        /* \"#utility.yul\":5805:5884   */\n      tag_283\n      tag_145\n      jump\t// in\n    tag_283:\n        /* \"#utility.yul\":5767:5886   */\n    tag_282:\n        /* \"#utility.yul\":5925:5926   */\n      0x00\n        /* \"#utility.yul\":5950:6003   */\n      tag_284\n        /* \"#utility.yul\":5995:6002   */\n      dup5\n        /* \"#utility.yul\":5986:5992   */\n      dup3\n        /* \"#utility.yul\":5975:5984   */\n      dup6\n        /* \"#utility.yul\":5971:5993   */\n      add\n        /* \"#utility.yul\":5950:6003   */\n      tag_167\n      jump\t// in\n    tag_284:\n        /* \"#utility.yul\":5940:6003   */\n      swap2\n      pop\n        /* \"#utility.yul\":5896:6013   */\n      pop\n        /* \"#utility.yul\":5691:6020   */\n      swap3\n      swap2\n      pop\n      pop\n      jump\t// out\n        /* \"#utility.yul\":6026:6125   */\n    tag_169:\n        /* \"#utility.yul\":6078:6084   */\n      0x00\n        /* \"#utility.yul\":6112:6117   */\n      dup2\n        /* \"#utility.yul\":6106:6118   */\n      mload\n        /* \"#utility.yul\":6096:6118   */\n      swap1\n      pop\n        /* \"#utility.yul\":6026:6125   */\n      swap2\n      swap1\n      pop\n      jump\t// out\n        /* \"#utility.yul\":6131:6300   */\n    tag_170:\n        /* \"#utility.yul\":6215:6226   */\n      0x00\n        /* \"#utility.yul\":6249:6255   */\n      dup3\n        /* \"#utility.yul\":6244:6247   */\n      dup3\n        /* \"#utility.yul\":6237:6256   */\n      mstore\n        /* \"#utility.yul\":6289:6293   */\n      0x20\n        /* \"#utility.yul\":6284:6287   */\n      dup3\n        /* \"#utility.yul\":6280:6294   */\n      add\n        /* \"#utility.yul\":6265:6294   */\n      swap1\n      pop\n        /* \"#utility.yul\":6131:6300   */\n      swap3\n      swap2\n      pop\n      pop\n      jump\t// out\n        /* \"#utility.yul\":6306:6552   */\n    tag_171:\n        /* \"#utility.yul\":6387:6388   */\n      0x00\n        /* \"#utility.yul\":6397:6510   */\n    tag_288:\n        /* \"#utility.yul\":6411:6417   */\n      dup4\n        /* \"#utility.yul\":6408:6409   */\n      dup2\n        /* \"#utility.yul\":6405:6418   */\n      lt\n        /* \"#utility.yul\":6397:6510   */\n      iszero\n      tag_290\n      jumpi\n        /* \"#utility.yul\":6496:6497   */\n      dup1\n        /* \"#utility.yul\":6491:6494   */\n      dup3\n        /* \"#utility.yul\":6487:6498   */\n      add\n        /* \"#utility.yul\":6481:6499   */\n      mload\n        /* \"#utility.yul\":6477:6478   */\n      dup2\n        /* \"#utility.yul\":6472:6475   */\n      dup5\n        /* \"#utility.yul\":6468:6479   */\n      add\n        /* \"#utility.yul\":6461:6500   */\n      mstore\n        /* \"#utility.yul\":6433:6435   */\n      0x20\n        /* \"#utility.yul\":6430:6431   */\n      dup2\n        /* \"#utility.yul\":6426:6436   */\n      add\n        /* \"#utility.yul\":6421:6436   */\n      swap1\n      pop\n        /* \"#utility.yul\":6397:6510   */\n      jump(tag_288)\n    tag_290:\n        /* \"#utility.yul\":6544:6545   */\n      0x00\n        /* \"#utility.yul\":6535:6541   */\n      dup5\n        /* \"#utility.yul\":6530:6533   */\n      dup5\n        /* \"#utility.yul\":6526:6542   */\n      add\n        /* \"#utility.yul\":6519:6546   */\n      mstore\n        /* \"#utility.yul\":6368:6552   */\n      pop\n        /* \"#utility.yul\":6306:6552   */\n      pop\n      pop\n      pop\n      jump\t// out\n        /* \"#utility.yul\":6558:6935   */\n    tag_172:\n        /* \"#utility.yul\":6646:6649   */\n      0x00\n        /* \"#utility.yul\":6674:6713   */\n      tag_292\n        /* \"#utility.yul\":6707:6712   */\n      dup3\n        /* \"#utility.yul\":6674:6713   */\n      tag_169\n      jump\t// in\n    tag_292:\n        /* \"#utility.yul\":6729:6800   */\n      tag_293\n        /* \"#utility.yul\":6793:6799   */\n      dup2\n        /* \"#utility.yul\":6788:6791   */\n      dup6\n        /* \"#utility.yul\":6729:6800   */\n      tag_170\n      jump\t// in\n    tag_293:\n        /* \"#utility.yul\":6722:6800   */\n      swap4\n      pop\n        /* \"#utility.yul\":6809:6874   */\n      tag_294\n        /* \"#utility.yul\":6867:6873   */\n      dup2\n        /* \"#utility.yul\":6862:6865   */\n      dup6\n        /* \"#utility.yul\":6855:6859   */\n      0x20\n        /* \"#utility.yul\":6848:6853   */\n      dup7\n        /* \"#utility.yul\":6844:6860   */\n      add\n        /* \"#utility.yul\":6809:6874   */\n      tag_171\n      jump\t// in\n    tag_294:\n        /* \"#utility.yul\":6899:6928   */\n      tag_295\n        /* \"#utility.yul\":6921:6927   */\n      dup2\n        /* \"#utility.yul\":6899:6928   */\n      tag_155\n      jump\t// in\n    tag_295:\n        /* \"#utility.yul\":6894:6897   */\n      dup5\n        /* \"#utility.yul\":6890:6929   */\n      add\n        /* \"#utility.yul\":6883:6929   */\n      swap2\n      pop\n        /* \"#utility.yul\":6650:6935   */\n      pop\n        /* \"#utility.yul\":6558:6935   */\n      swap3\n      swap2\n      pop\n      pop\n      jump\t// out\n        /* \"#utility.yul\":6941:7083   */\n    tag_173:\n        /* \"#utility.yul\":7044:7076   */\n      tag_297\n        /* \"#utility.yul\":7070:7075   */\n      dup2\n        /* \"#utility.yul\":7044:7076   */\n      tag_163\n      jump\t// in\n    tag_297:\n        /* \"#utility.yul\":7039:7042   */\n      dup3\n        /* \"#utility.yul\":7032:7077   */\n      mstore\n        /* \"#utility.yul\":6941:7083   */\n      pop\n      pop\n      jump\t// out\n        /* \"#utility.yul\":7089:7179   */\n    tag_174:\n        /* \"#utility.yul\":7123:7130   */\n      0x00\n        /* \"#utility.yul\":7166:7171   */\n      dup2\n        /* \"#utility.yul\":7159:7172   */\n      iszero\n        /* \"#utility.yul\":7152:7173   */\n      iszero\n        /* \"#utility.yul\":7141:7173   */\n      swap1\n      pop\n        /* \"#utility.yul\":7089:7179   */\n      swap2\n      swap1\n      pop\n      jump\t// out\n        /* \"#utility.yul\":7185:7294   */\n    tag_175:\n        /* \"#utility.yul\":7266:7287   */\n      tag_300\n        /* \"#utility.yul\":7281:7286   */\n      dup2\n        /* \"#utility.yul\":7266:7287   */\n      tag_174\n      jump\t// in\n    tag_300:\n        /* \"#utility.yul\":7261:7264   */\n      dup3\n        /* \"#utility.yul\":7254:7288   */\n      mstore\n        /* \"#utility.yul\":7185:7294   */\n      pop\n      pop\n      jump\t// out\n        /* \"#utility.yul\":7300:8075   */\n    tag_68:\n        /* \"#utility.yul\":7535:7539   */\n      0x00\n        /* \"#utility.yul\":7573:7576   */\n      0xa0\n        /* \"#utility.yul\":7562:7571   */\n      dup3\n        /* \"#utility.yul\":7558:7577   */\n      add\n        /* \"#utility.yul\":7550:7577   */\n      swap1\n      pop\n        /* \"#utility.yul\":7623:7632   */\n      dup2\n        /* \"#utility.yul\":7617:7621   */\n      dup2\n        /* \"#utility.yul\":7613:7633   */\n      sub\n        /* \"#utility.yul\":7609:7610   */\n      0x00\n        /* \"#utility.yul\":7598:7607   */\n      dup4\n        /* \"#utility.yul\":7594:7611   */\n      add\n        /* \"#utility.yul\":7587:7634   */\n      mstore\n        /* \"#utility.yul\":7651:7729   */\n      tag_302\n        /* \"#utility.yul\":7724:7728   */\n      dup2\n        /* \"#utility.yul\":7715:7721   */\n      dup9\n        /* \"#utility.yul\":7651:7729   */\n      tag_172\n      jump\t// in\n    tag_302:\n        /* \"#utility.yul\":7643:7729   */\n      swap1\n      pop\n        /* \"#utility.yul\":7739:7827   */\n      tag_303\n        /* \"#utility.yul\":7823:7825   */\n      0x20\n        /* \"#utility.yul\":7812:7821   */\n      dup4\n        /* \"#utility.yul\":7808:7826   */\n      add\n        /* \"#utility.yul\":7799:7805   */\n      dup8\n        /* \"#utility.yul\":7739:7827   */\n      tag_173\n      jump\t// in\n    tag_303:\n        /* \"#utility.yul\":7837:7909   */\n      tag_304\n        /* \"#utility.yul\":7905:7907   */\n      0x40\n        /* \"#utility.yul\":7894:7903   */\n      dup4\n        /* \"#utility.yul\":7890:7908   */\n      add\n        /* \"#utility.yul\":7881:7887   */\n      dup7\n        /* \"#utility.yul\":7837:7909   */\n      tag_152\n      jump\t// in\n    tag_304:\n        /* \"#utility.yul\":7919:7985   */\n      tag_305\n        /* \"#utility.yul\":7981:7983   */\n      0x60\n        /* \"#utility.yul\":7970:7979   */\n      dup4\n        /* \"#utility.yul\":7966:7984   */\n      add\n        /* \"#utility.yul\":7957:7963   */\n      dup6\n        /* \"#utility.yul\":7919:7985   */\n      tag_175\n      jump\t// in\n    tag_305:\n        /* \"#utility.yul\":7995:8068   */\n      tag_306\n        /* \"#utility.yul\":8063:8066   */\n      0x80\n        /* \"#utility.yul\":8052:8061   */\n      dup4\n        /* \"#utility.yul\":8048:8067   */\n      add\n        /* \"#utility.yul\":8039:8045   */\n      dup5\n        /* \"#utility.yul\":7995:8068   */\n      tag_152\n      jump\t// in\n    tag_306:\n        /* \"#utility.yul\":7300:8075   */\n      swap7\n      swap6\n      pop\n      pop\n      pop\n      pop\n      pop\n      pop\n      jump\t// out\n        /* \"#utility.yul\":8081:8250   */\n    tag_176:\n        /* \"#utility.yul\":8221:8242   */\n      0x446561646c696e65206861732070617373656400000000000000000000000000\n        /* \"#utility.yul\":8217:8218   */\n      0x00\n        /* \"#utility.yul\":8209:8215   */\n      dup3\n        /* \"#utility.yul\":8205:8219   */\n      add\n        /* \"#utility.yul\":8198:8243   */\n      mstore\n        /* \"#utility.yul\":8081:8250   */\n      pop\n      jump\t// out\n        /* \"#utility.yul\":8256:8622   */\n    tag_177:\n        /* \"#utility.yul\":8398:8401   */\n      0x00\n        /* \"#utility.yul\":8419:8486   */\n      tag_309\n        /* \"#utility.yul\":8483:8485   */\n      0x13\n        /* \"#utility.yul\":8478:8481   */\n      dup4\n        /* \"#utility.yul\":8419:8486   */\n      tag_170\n      jump\t// in\n    tag_309:\n        /* \"#utility.yul\":8412:8486   */\n      swap2\n      pop\n        /* \"#utility.yul\":8495:8588   */\n      tag_310\n        /* \"#utility.yul\":8584:8587   */\n      dup3\n        /* \"#utility.yul\":8495:8588   */\n      tag_176\n      jump\t// in\n    tag_310:\n        /* \"#utility.yul\":8613:8615   */\n      0x20\n        /* \"#utility.yul\":8608:8611   */\n      dup3\n        /* \"#utility.yul\":8604:8616   */\n      add\n        /* \"#utility.yul\":8597:8616   */\n      swap1\n      pop\n        /* \"#utility.yul\":8256:8622   */\n      swap2\n      swap1\n      pop\n      jump\t// out\n        /* \"#utility.yul\":8628:9047   */\n    tag_88:\n        /* \"#utility.yul\":8794:8798   */\n      0x00\n        /* \"#utility.yul\":8832:8834   */\n      0x20\n        /* \"#utility.yul\":8821:8830   */\n      dup3\n        /* \"#utility.yul\":8817:8835   */\n      add\n        /* \"#utility.yul\":8809:8835   */\n      swap1\n      pop\n        /* \"#utility.yul\":8881:8890   */\n      dup2\n        /* \"#utility.yul\":8875:8879   */\n      dup2\n        /* \"#utility.yul\":8871:8891   */\n      sub\n        /* \"#utility.yul\":8867:8868   */\n      0x00\n        /* \"#utility.yul\":8856:8865   */\n      dup4\n        /* \"#utility.yul\":8852:8869   */\n      add\n        /* \"#utility.yul\":8845:8892   */\n      mstore\n        /* \"#utility.yul\":8909:9040   */\n      tag_312\n        /* \"#utility.yul\":9035:9039   */\n      dup2\n        /* \"#utility.yul\":8909:9040   */\n      tag_177\n      jump\t// in\n    tag_312:\n        /* \"#utility.yul\":8901:9040   */\n      swap1\n      pop\n        /* \"#utility.yul\":8628:9047   */\n      swap2\n      swap1\n      pop\n      jump\t// out\n        /* \"#utility.yul\":9053:9234   */\n    tag_178:\n        /* \"#utility.yul\":9193:9226   */\n      0x4d696e696d756d20436f6e747269627574696f6e206973206e6f74206d657400\n        /* \"#utility.yul\":9189:9190   */\n      0x00\n        /* \"#utility.yul\":9181:9187   */\n      dup3\n        /* \"#utility.yul\":9177:9191   */\n      add\n        /* \"#utility.yul\":9170:9227   */\n      mstore\n        /* \"#utility.yul\":9053:9234   */\n      pop\n      jump\t// out\n        /* \"#utility.yul\":9240:9606   */\n    tag_179:\n        /* \"#utility.yul\":9382:9385   */\n      0x00\n        /* \"#utility.yul\":9403:9470   */\n      tag_315\n        /* \"#utility.yul\":9467:9469   */\n      0x1f\n        /* \"#utility.yul\":9462:9465   */\n      dup4\n        /* \"#utility.yul\":9403:9470   */\n      tag_170\n      jump\t// in\n    tag_315:\n        /* \"#utility.yul\":9396:9470   */\n      swap2\n      pop\n        /* \"#utility.yul\":9479:9572   */\n      tag_316\n        /* \"#utility.yul\":9568:9571   */\n      dup3\n        /* \"#utility.yul\":9479:9572   */\n      tag_178\n      jump\t// in\n    tag_316:\n        /* \"#utility.yul\":9597:9599   */\n      0x20\n        /* \"#utility.yul\":9592:9595   */\n      dup3\n        /* \"#utility.yul\":9588:9600   */\n      add\n        /* \"#utility.yul\":9581:9600   */\n      swap1\n      pop\n        /* \"#utility.yul\":9240:9606   */\n      swap2\n      swap1\n      pop\n      jump\t// out\n        /* \"#utility.yul\":9612:10031   */\n    tag_91:\n        /* \"#utility.yul\":9778:9782   */\n      0x00\n        /* \"#utility.yul\":9816:9818   */\n      0x20\n        /* \"#utility.yul\":9805:9814   */\n      dup3\n        /* \"#utility.yul\":9801:9819   */\n      add\n        /* \"#utility.yul\":9793:9819   */\n      swap1\n      pop\n        /* \"#utility.yul\":9865:9874   */\n      dup2\n        /* \"#utility.yul\":9859:9863   */\n      dup2\n        /* \"#utility.yul\":9855:9875   */\n      sub\n        /* \"#utility.yul\":9851:9852   */\n      0x00\n        /* \"#utility.yul\":9840:9849   */\n      dup4\n        /* \"#utility.yul\":9836:9853   */\n      add\n        /* \"#utility.yul\":9829:9876   */\n      mstore\n        /* \"#utility.yul\":9893:10024   */\n      tag_318\n        /* \"#utility.yul\":10019:10023   */\n      dup2\n        /* \"#utility.yul\":9893:10024   */\n      tag_179\n      jump\t// in\n    tag_318:\n        /* \"#utility.yul\":9885:10024   */\n      swap1\n      pop\n        /* \"#utility.yul\":9612:10031   */\n      swap2\n      swap1\n      pop\n      jump\t// out\n        /* \"#utility.yul\":10037:10217   */\n    tag_180:\n        /* \"#utility.yul\":10085:10162   */\n      0x4e487b7100000000000000000000000000000000000000000000000000000000\n        /* \"#utility.yul\":10082:10083   */\n      0x00\n        /* \"#utility.yul\":10075:10163   */\n      mstore\n        /* \"#utility.yul\":10182:10186   */\n      0x11\n        /* \"#utility.yul\":10179:10180   */\n      0x04\n        /* \"#utility.yul\":10172:10187   */\n      mstore\n        /* \"#utility.yul\":10206:10210   */\n      0x24\n        /* \"#utility.yul\":10203:10204   */\n      0x00\n        /* \"#utility.yul\":10196:10211   */\n      revert\n        /* \"#utility.yul\":10223:10456   */\n    tag_94:\n        /* \"#utility.yul\":10262:10265   */\n      0x00\n        /* \"#utility.yul\":10285:10309   */\n      tag_321\n        /* \"#utility.yul\":10303:10308   */\n      dup3\n        /* \"#utility.yul\":10285:10309   */\n      tag_151\n      jump\t// in\n    tag_321:\n        /* \"#utility.yul\":10276:10309   */\n      swap2\n      pop\n        /* \"#utility.yul\":10331:10397   */\n      0xffffffffffffffffffffffffffffffffffffffffffffffffffffffffffffffff\n        /* \"#utility.yul\":10324:10329   */\n      dup3\n        /* \"#utility.yul\":10321:10398   */\n      sub\n        /* \"#utility.yul\":10318:10421   */\n      tag_322\n      jumpi\n        /* \"#utility.yul\":10401:10419   */\n      tag_323\n      tag_180\n      jump\t// in\n    tag_323:\n        /* \"#utility.yul\":10318:10421   */\n    tag_322:\n        /* \"#utility.yul\":10448:10449   */\n      0x01\n        /* \"#utility.yul\":10441:10446   */\n      dup3\n        /* \"#utility.yul\":10437:10450   */\n      add\n        /* \"#utility.yul\":10430:10450   */\n      swap1\n      pop\n        /* \"#utility.yul\":10223:10456   */\n      swap2\n      swap1\n      pop\n      jump\t// out\n        /* \"#utility.yul\":10462:10653   */\n    tag_96:\n        /* \"#utility.yul\":10502:10505   */\n      0x00\n        /* \"#utility.yul\":10521:10541   */\n      tag_325\n        /* \"#utility.yul\":10539:10540   */\n      dup3\n        /* \"#utility.yul\":10521:10541   */\n      tag_151\n      jump\t// in\n    tag_325:\n        /* \"#utility.yul\":10516:10541   */\n      swap2\n      pop\n        /* \"#utility.yul\":10555:10575   */\n      tag_326\n        /* \"#utility.yul\":10573:10574   */\n      dup4\n        /* \"#utility.yul\":10555:10575   */\n      tag_151\n      jump\t// in\n    tag_326:\n        /* \"#utility.yul\":10550:10575   */\n      swap3\n      pop\n        /* \"#utility.yul\":10598:10599   */\n      dup3\n        /* \"#utility.yul\":10595:10596   */\n      dup3\n        /* \"#utility.yul\":10591:10600   */\n      add\n        /* \"#utility.yul\":10584:10600   */\n      swap1\n      pop\n        /* \"#utility.yul\":10619:10622   */\n      dup1\n        /* \"#utility.yul\":10616:10617   */\n      dup3\n        /* \"#utility.yul\":10613:10623   */\n      gt\n        /* \"#utility.yul\":10610:10646   */\n      iszero\n      tag_327\n      jumpi\n        /* \"#utility.yul\":10626:10644   */\n      tag_328\n      tag_180\n      jump\t// in\n    tag_328:\n        /* \"#utility.yul\":10610:10646   */\n    tag_327:\n        /* \"#utility.yul\":10462:10653   */\n      swap3\n      swap2\n      pop\n      pop\n      jump\t// out\n        /* \"#utility.yul\":10659:10882   */\n    tag_181:\n        /* \"#utility.yul\":10799:10833   */\n      0x4f6e6c79206d616e616765722063616e2063616c6c6c20746869732066756e63\n        /* \"#utility.yul\":10795:10796   */\n      0x00\n        /* \"#utility.yul\":10787:10793   */\n      dup3\n        /* \"#utility.yul\":10783:10797   */\n      add\n        /* \"#utility.yul\":10776:10834   */\n      mstore\n        /* \"#utility.yul\":10868:10874   */\n      0x74696f6e00000000000000000000000000000000000000000000000000000000\n        /* \"#utility.yul\":10863:10865   */\n      0x20\n        /* \"#utility.yul\":10855:10861   */\n      dup3\n        /* \"#utility.yul\":10851:10866   */\n      add\n        /* \"#utility.yul\":10844:10875   */\n      mstore\n        /* \"#utility.yul\":10659:10882   */\n      pop\n      jump\t// out\n        /* \"#utility.yul\":10888:11254   */\n    tag_182:\n        /* \"#utility.yul\":11030:11033   */\n      0x00\n        /* \"#utility.yul\":11051:11118   */\n      tag_331\n        /* \"#utility.yul\":11115:11117   */\n      0x24\n        /* \"#utility.yul\":11110:11113   */\n      dup4\n        /* \"#utility.yul\":11051:11118   */\n      tag_170\n      jump\t// in\n    tag_331:\n        /* \"#utility.yul\":11044:11118   */\n      swap2\n      pop\n        /* \"#utility.yul\":11127:11220   */\n      tag_332\n        /* \"#utility.yul\":11216:11219   */\n      dup3\n        /* \"#utility.yul\":11127:11220   */\n      tag_181\n      jump\t// in\n    tag_332:\n        /* \"#utility.yul\":11245:11247   */\n      0x40\n        /* \"#utility.yul\":11240:11243   */\n      dup3\n        /* \"#utility.yul\":11236:11248   */\n      add\n        /* \"#utility.yul\":11229:11248   */\n      swap1\n      pop\n        /* \"#utility.yul\":10888:11254   */\n      swap2\n      swap1\n      pop\n      jump\t// out\n        /* \"#utility.yul\":11260:11679   */\n    tag_101:\n        /* \"#utility.yul\":11426:11430   */\n      0x00\n        /* \"#utility.yul\":11464:11466   */\n      0x20\n        /* \"#utility.yul\":11453:11462   */\n      dup3\n        /* \"#utility.yul\":11449:11467   */\n      add\n        /* \"#utility.yul\":11441:11467   */\n      swap1\n      pop\n        /* \"#utility.yul\":11513:11522   */\n      dup2\n        /* \"#utility.yul\":11507:11511   */\n      dup2\n        /* \"#utility.yul\":11503:11523   */\n      sub\n        /* \"#utility.yul\":11499:11500   */\n      0x00\n        /* \"#utility.yul\":11488:11497   */\n      dup4\n        /* \"#utility.yul\":11484:11501   */\n      add\n        /* \"#utility.yul\":11477:11524   */\n      mstore\n        /* \"#utility.yul\":11541:11672   */\n      tag_334\n        /* \"#utility.yul\":11667:11671   */\n      dup2\n        /* \"#utility.yul\":11541:11672   */\n      tag_182\n      jump\t// in\n    tag_334:\n        /* \"#utility.yul\":11533:11672   */\n      swap1\n      pop\n        /* \"#utility.yul\":11260:11679   */\n      swap2\n      swap1\n      pop\n      jump\t// out\n        /* \"#utility.yul\":11685:11865   */\n    tag_183:\n        /* \"#utility.yul\":11733:11810   */\n      0x4e487b7100000000000000000000000000000000000000000000000000000000\n        /* \"#utility.yul\":11730:11731   */\n      0x00\n        /* \"#utility.yul\":11723:11811   */\n      mstore\n        /* \"#utility.yul\":11830:11834   */\n      0x22\n        /* \"#utility.yul\":11827:11828   */\n      0x04\n        /* \"#utility.yul\":11820:11835   */\n      mstore\n        /* \"#utility.yul\":11854:11858   */\n      0x24\n        /* \"#utility.yul\":11851:11852   */\n      0x00\n        /* \"#utility.yul\":11844:11859   */\n      revert\n        /* \"#utility.yul\":11871:12191   */\n    tag_139:\n        /* \"#utility.yul\":11915:11921   */\n      0x00\n        /* \"#utility.yul\":11952:11953   */\n      0x02\n        /* \"#utility.yul\":11946:11950   */\n      dup3\n        /* \"#utility.yul\":11942:11954   */\n      div\n        /* \"#utility.yul\":11932:11954   */\n      swap1\n      pop\n        /* \"#utility.yul\":11999:12000   */\n      0x01\n        /* \"#utility.yul\":11993:11997   */\n      dup3\n        /* \"#utility.yul\":11989:12001   */\n      and\n        /* \"#utility.yul\":12020:12038   */\n      dup1\n        /* \"#utility.yul\":12010:12091   */\n      tag_337\n      jumpi\n        /* \"#utility.yul\":12076:12080   */\n      0x7f\n        /* \"#utility.yul\":12068:12074   */\n      dup3\n        /* \"#utility.yul\":12064:12081   */\n      and\n        /* \"#utility.yul\":12054:12081   */\n      swap2\n      pop\n        /* \"#utility.yul\":12010:12091   */\n    tag_337:\n        /* \"#utility.yul\":12138:12140   */\n      0x20\n        /* \"#utility.yul\":12130:12136   */\n      dup3\n        /* \"#utility.yul\":12127:12141   */\n      lt\n        /* \"#utility.yul\":12107:12125   */\n      dup2\n        /* \"#utility.yul\":12104:12142   */\n      sub\n        /* \"#utility.yul\":12101:12185   */\n      tag_338\n      jumpi\n        /* \"#utility.yul\":12157:12175   */\n      tag_339\n      tag_183\n      jump\t// in\n    tag_339:\n        /* \"#utility.yul\":12101:12185   */\n    tag_338:\n        /* \"#utility.yul\":11922:12191   */\n      pop\n        /* \"#utility.yul\":11871:12191   */\n      swap2\n      swap1\n      pop\n      jump\t// out\n        /* \"#utility.yul\":12197:12338   */\n    tag_184:\n        /* \"#utility.yul\":12246:12250   */\n      0x00\n        /* \"#utility.yul\":12269:12272   */\n      dup2\n        /* \"#utility.yul\":12261:12272   */\n      swap1\n      pop\n        /* \"#utility.yul\":12292:12295   */\n      dup2\n        /* \"#utility.yul\":12289:12290   */\n      0x00\n        /* \"#utility.yul\":12282:12296   */\n      mstore\n        /* \"#utility.yul\":12326:12330   */\n      0x20\n        /* \"#utility.yul\":12323:12324   */\n      0x00\n        /* \"#utility.yul\":12313:12331   */\n      keccak256\n        /* \"#utility.yul\":12305:12331   */\n      swap1\n      pop\n        /* \"#utility.yul\":12197:12338   */\n      swap2\n      swap1\n      pop\n      jump\t// out\n        /* \"#utility.yul\":12344:12437   */\n    tag_185:\n        /* \"#utility.yul\":12381:12387   */\n      0x00\n        /* \"#utility.yul\":12428:12430   */\n      0x20\n        /* \"#utility.yul\":12423:12425   */\n      0x1f\n        /* \"#utility.yul\":12416:12421   */\n      dup4\n        /* \"#utility.yul\":12412:12426   */\n      add\n        /* \"#utility.yul\":12408:12431   */\n      div\n        /* \"#utility.yul\":12398:12431   */\n      swap1\n      pop\n        /* \"#utility.yul\":12344:12437   */\n      swap2\n      swap1\n      pop\n      jump\t// out\n        /* \"#utility.yul\":12443:12550   */\n    tag_186:\n        /* \"#utility.yul\":12487:12495   */\n      0x00\n        /* \"#utility.yul\":12537:12542   */\n      dup3\n        /* \"#utility.yul\":12531:12535   */\n      dup3\n        /* \"#utility.yul\":12527:12543   */\n      shl\n        /* \"#utility.yul\":12506:12543   */\n      swap1\n      pop\n        /* \"#utility.yul\":12443:12550   */\n      swap3\n      swap2\n      pop\n      pop\n      jump\t// out\n        /* \"#utility.yul\":12556:12949   */\n    tag_187:\n        /* \"#utility.yul\":12625:12631   */\n      0x00\n        /* \"#utility.yul\":12675:12676   */\n      0x08\n        /* \"#utility.yul\":12663:12673   */\n      dup4\n        /* \"#utility.yul\":12659:12677   */\n      mul\n        /* \"#utility.yul\":12698:12795   */\n      tag_344\n        /* \"#utility.yul\":12728:12794   */\n      0xffffffffffffffffffffffffffffffffffffffffffffffffffffffffffffffff\n        /* \"#utility.yul\":12717:12726   */\n      dup3\n        /* \"#utility.yul\":12698:12795   */\n      tag_186\n      jump\t// in\n    tag_344:\n        /* \"#utility.yul\":12816:12855   */\n      tag_345\n        /* \"#utility.yul\":12846:12854   */\n      dup7\n        /* \"#utility.yul\":12835:12844   */\n      dup4\n        /* \"#utility.yul\":12816:12855   */\n      tag_186\n      jump\t// in\n    tag_345:\n        /* \"#utility.yul\":12804:12855   */\n      swap6\n      pop\n        /* \"#utility.yul\":12888:12892   */\n      dup1\n        /* \"#utility.yul\":12884:12893   */\n      not\n        /* \"#utility.yul\":12877:12882   */\n      dup5\n        /* \"#utility.yul\":12873:12894   */\n      and\n        /* \"#utility.yul\":12864:12894   */\n      swap4\n      pop\n        /* \"#utility.yul\":12937:12941   */\n      dup1\n        /* \"#utility.yul\":12927:12935   */\n      dup7\n        /* \"#utility.yul\":12923:12942   */\n      and\n        /* \"#utility.yul\":12916:12921   */\n      dup5\n        /* \"#utility.yul\":12913:12943   */\n      or\n        /* \"#utility.yul\":12903:12943   */\n      swap3\n      pop\n        /* \"#utility.yul\":12632:12949   */\n      pop\n      pop\n        /* \"#utility.yul\":12556:12949   */\n      swap4\n      swap3\n      pop\n      pop\n      pop\n      jump\t// out\n        /* \"#utility.yul\":12955:13015   */\n    tag_188:\n        /* \"#utility.yul\":12983:12986   */\n      0x00\n        /* \"#utility.yul\":13004:13009   */\n      dup2\n        /* \"#utility.yul\":12997:13009   */\n      swap1\n      pop\n        /* \"#utility.yul\":12955:13015   */\n      swap2\n      swap1\n      pop\n      jump\t// out\n        /* \"#utility.yul\":13021:13163   */\n    tag_189:\n        /* \"#utility.yul\":13071:13080   */\n      0x00\n        /* \"#utility.yul\":13104:13157   */\n      tag_348\n        /* \"#utility.yul\":13122:13156   */\n      tag_349\n        /* \"#utility.yul\":13131:13155   */\n      tag_350\n        /* \"#utility.yul\":13149:13154   */\n      dup5\n        /* \"#utility.yul\":13131:13155   */\n      tag_151\n      jump\t// in\n    tag_350:\n        /* \"#utility.yul\":13122:13156   */\n      tag_188\n      jump\t// in\n    tag_349:\n        /* \"#utility.yul\":13104:13157   */\n      tag_151\n      jump\t// in\n    tag_348:\n        /* \"#utility.yul\":13091:13157   */\n      swap1\n      pop\n        /* \"#utility.yul\":13021:13163   */\n      swap2\n      swap1\n      pop\n      jump\t// out\n        /* \"#utility.yul\":13169:13244   */\n    tag_190:\n        /* \"#utility.yul\":13212:13215   */\n      0x00\n        /* \"#utility.yul\":13233:13238   */\n      dup2\n        /* \"#utility.yul\":13226:13238   */\n      swap1\n      pop\n        /* \"#utility.yul\":13169:13244   */\n      swap2\n      swap1\n      pop\n      jump\t// out\n        /* \"#utility.yul\":13250:13519   */\n    tag_191:\n        /* \"#utility.yul\":13360:13399   */\n      tag_353\n        /* \"#utility.yul\":13391:13398   */\n      dup4\n        /* \"#utility.yul\":13360:13399   */\n      tag_189\n      jump\t// in\n    tag_353:\n        /* \"#utility.yul\":13421:13512   */\n      tag_354\n        /* \"#utility.yul\":13470:13511   */\n      tag_355\n        /* \"#utility.yul\":13494:13510   */\n      dup3\n        /* \"#utility.yul\":13470:13511   */\n      tag_190\n      jump\t// in\n    tag_355:\n        /* \"#utility.yul\":13462:13468   */\n      dup5\n        /* \"#utility.yul\":13455:13459   */\n      dup5\n        /* \"#utility.yul\":13449:13460   */\n      sload\n        /* \"#utility.yul\":13421:13512   */\n      tag_187\n      jump\t// in\n    tag_354:\n        /* \"#utility.yul\":13415:13419   */\n      dup3\n        /* \"#utility.yul\":13408:13513   */\n      sstore\n        /* \"#utility.yul\":13326:13519   */\n      pop\n        /* \"#utility.yul\":13250:13519   */\n      pop\n      pop\n      pop\n      jump\t// out\n        /* \"#utility.yul\":13525:13598   */\n    tag_192:\n        /* \"#utility.yul\":13570:13573   */\n      0x00\n        /* \"#utility.yul\":13525:13598   */\n      swap1\n      jump\t// out\n        /* \"#utility.yul\":13604:13793   */\n    tag_193:\n        /* \"#utility.yul\":13681:13713   */\n      tag_358\n      tag_192\n      jump\t// in\n    tag_358:\n        /* \"#utility.yul\":13722:13787   */\n      tag_359\n        /* \"#utility.yul\":13780:13786   */\n      dup2\n        /* \"#utility.yul\":13772:13778   */\n      dup5\n        /* \"#utility.yul\":13766:13770   */\n      dup5\n        /* \"#utility.yul\":13722:13787   */\n      tag_191\n      jump\t// in\n    tag_359:\n        /* \"#utility.yul\":13657:13793   */\n      pop\n        /* \"#utility.yul\":13604:13793   */\n      pop\n      pop\n      jump\t// out\n        /* \"#utility.yul\":13799:13985   */\n    tag_194:\n        /* \"#utility.yul\":13859:13979   */\n    tag_361:\n        /* \"#utility.yul\":13876:13879   */\n      dup2\n        /* \"#utility.yul\":13869:13874   */\n      dup2\n        /* \"#utility.yul\":13866:13880   */\n      lt\n        /* \"#utility.yul\":13859:13979   */\n      iszero\n      tag_363\n      jumpi\n        /* \"#utility.yul\":13930:13969   */\n      tag_364\n        /* \"#utility.yul\":13967:13968   */\n      0x00\n        /* \"#utility.yul\":13960:13965   */\n      dup3\n        /* \"#utility.yul\":13930:13969   */\n      tag_193\n      jump\t// in\n    tag_364:\n        /* \"#utility.yul\":13903:13904   */\n      0x01\n        /* \"#utility.yul\":13896:13901   */\n      dup2\n        /* \"#utility.yul\":13892:13905   */\n      add\n        /* \"#utility.yul\":13883:13905   */\n      swap1\n      pop\n        /* \"#utility.yul\":13859:13979   */\n      jump(tag_361)\n    tag_363:\n        /* \"#utility.yul\":13799:13985   */\n      pop\n      pop\n      jump\t// out\n        /* \"#utility.yul\":13991:14534   */\n    tag_195:\n        /* \"#utility.yul\":14092:14094   */\n      0x1f\n        /* \"#utility.yul\":14087:14090   */\n      dup3\n        /* \"#utility.yul\":14084:14095   */\n      gt\n        /* \"#utility.yul\":14081:14527   */\n      iszero\n      tag_366\n      jumpi\n        /* \"#utility.yul\":14126:14164   */\n      tag_367\n        /* \"#utility.yul\":14158:14163   */\n      dup2\n        /* \"#utility.yul\":14126:14164   */\n      tag_184\n      jump\t// in\n    tag_367:\n        /* \"#utility.yul\":14210:14239   */\n      tag_368\n        /* \"#utility.yul\":14228:14238   */\n      dup5\n        /* \"#utility.yul\":14210:14239   */\n      tag_185\n      jump\t// in\n    tag_368:\n        /* \"#utility.yul\":14200:14208   */\n      dup2\n        /* \"#utility.yul\":14196:14240   */\n      add\n        /* \"#utility.yul\":14393:14395   */\n      0x20\n        /* \"#utility.yul\":14381:14391   */\n      dup6\n        /* \"#utility.yul\":14378:14396   */\n      lt\n        /* \"#utility.yul\":14375:14424   */\n      iszero\n      tag_369\n      jumpi\n        /* \"#utility.yul\":14414:14422   */\n      dup2\n        /* \"#utility.yul\":14399:14422   */\n      swap1\n      pop\n        /* \"#utility.yul\":14375:14424   */\n    tag_369:\n        /* \"#utility.yul\":14437:14517   */\n      tag_370\n        /* \"#utility.yul\":14493:14515   */\n      tag_371\n        /* \"#utility.yul\":14511:14514   */\n      dup6\n        /* \"#utility.yul\":14493:14515   */\n      tag_185\n      jump\t// in\n    tag_371:\n        /* \"#utility.yul\":14483:14491   */\n      dup4\n        /* \"#utility.yul\":14479:14516   */\n      add\n        /* \"#utility.yul\":14466:14477   */\n      dup3\n        /* \"#utility.yul\":14437:14517   */\n      tag_194\n      jump\t// in\n    tag_370:\n        /* \"#utility.yul\":14096:14527   */\n      pop\n      pop\n        /* \"#utility.yul\":14081:14527   */\n    tag_366:\n        /* \"#utility.yul\":13991:14534   */\n      pop\n      pop\n      pop\n      jump\t// out\n        /* \"#utility.yul\":14540:14657   */\n    tag_196:\n        /* \"#utility.yul\":14594:14602   */\n      0x00\n        /* \"#utility.yul\":14644:14649   */\n      dup3\n        /* \"#utility.yul\":14638:14642   */\n      dup3\n        /* \"#utility.yul\":14634:14650   */\n      shr\n        /* \"#utility.yul\":14613:14650   */\n      swap1\n      pop\n        /* \"#utility.yul\":14540:14657   */\n      swap3\n      swap2\n      pop\n      pop\n      jump\t// out\n        /* \"#utility.yul\":14663:14832   */\n    tag_197:\n        /* \"#utility.yul\":14707:14713   */\n      0x00\n        /* \"#utility.yul\":14740:14791   */\n      tag_374\n        /* \"#utility.yul\":14788:14789   */\n      0x00\n        /* \"#utility.yul\":14784:14790   */\n      not\n        /* \"#utility.yul\":14776:14781   */\n      dup5\n        /* \"#utility.yul\":14773:14774   */\n      0x08\n        /* \"#utility.yul\":14769:14782   */\n      mul\n        /* \"#utility.yul\":14740:14791   */\n      tag_196\n      jump\t// in\n    tag_374:\n        /* \"#utility.yul\":14736:14792   */\n      not\n        /* \"#utility.yul\":14821:14825   */\n      dup1\n        /* \"#utility.yul\":14815:14819   */\n      dup4\n        /* \"#utility.yul\":14811:14826   */\n      and\n        /* \"#utility.yul\":14801:14826   */\n      swap2\n      pop\n        /* \"#utility.yul\":14714:14832   */\n      pop\n        /* \"#utility.yul\":14663:14832   */\n      swap3\n      swap2\n      pop\n      pop\n      jump\t// out\n        /* \"#utility.yul\":14837:15132   */\n    tag_198:\n        /* \"#utility.yul\":14913:14917   */\n      0x00\n        /* \"#utility.yul\":15059:15088   */\n      tag_376\n        /* \"#utility.yul\":15084:15087   */\n      dup4\n        /* \"#utility.yul\":15078:15082   */\n      dup4\n        /* \"#utility.yul\":15059:15088   */\n      tag_197\n      jump\t// in\n    tag_376:\n        /* \"#utility.yul\":15051:15088   */\n      swap2\n      pop\n        /* \"#utility.yul\":15121:15124   */\n      dup3\n        /* \"#utility.yul\":15118:15119   */\n      0x02\n        /* \"#utility.yul\":15114:15125   */\n      mul\n        /* \"#utility.yul\":15108:15112   */\n      dup3\n        /* \"#utility.yul\":15105:15126   */\n      or\n        /* \"#utility.yul\":15097:15126   */\n      swap1\n      pop\n        /* \"#utility.yul\":14837:15132   */\n      swap3\n      swap2\n      pop\n      pop\n      jump\t// out\n        /* \"#utility.yul\":15137:16532   */\n    tag_105:\n        /* \"#utility.yul\":15254:15291   */\n      tag_378\n        /* \"#utility.yul\":15287:15290   */\n      dup3\n        /* \"#utility.yul\":15254:15291   */\n      tag_169\n      jump\t// in\n    tag_378:\n        /* \"#utility.yul\":15356:15374   */\n      0xffffffffffffffff\n        /* \"#utility.yul\":15348:15354   */\n      dup2\n        /* \"#utility.yul\":15345:15375   */\n      gt\n        /* \"#utility.yul\":15342:15398   */\n      iszero\n      tag_379\n      jumpi\n        /* \"#utility.yul\":15378:15396   */\n      tag_380\n      tag_156\n      jump\t// in\n    tag_380:\n        /* \"#utility.yul\":15342:15398   */\n    tag_379:\n        /* \"#utility.yul\":15422:15460   */\n      tag_381\n        /* \"#utility.yul\":15454:15458   */\n      dup3\n        /* \"#utility.yul\":15448:15459   */\n      sload\n        /* \"#utility.yul\":15422:15460   */\n      tag_139\n      jump\t// in\n    tag_381:\n        /* \"#utility.yul\":15507:15574   */\n      tag_382\n        /* \"#utility.yul\":15567:15573   */\n      dup3\n        /* \"#utility.yul\":15559:15565   */\n      dup3\n        /* \"#utility.yul\":15553:15557   */\n      dup6\n        /* \"#utility.yul\":15507:15574   */\n      tag_195\n      jump\t// in\n    tag_382:\n        /* \"#utility.yul\":15601:15602   */\n      0x00\n        /* \"#utility.yul\":15625:15629   */\n      0x20\n        /* \"#utility.yul\":15612:15629   */\n      swap1\n      pop\n        /* \"#utility.yul\":15657:15659   */\n      0x1f\n        /* \"#utility.yul\":15649:15655   */\n      dup4\n        /* \"#utility.yul\":15646:15660   */\n      gt\n        /* \"#utility.yul\":15674:15675   */\n      0x01\n        /* \"#utility.yul\":15669:16287   */\n      dup2\n      eq\n      tag_384\n      jumpi\n        /* \"#utility.yul\":16331:16332   */\n      0x00\n        /* \"#utility.yul\":16348:16354   */\n      dup5\n        /* \"#utility.yul\":16345:16422   */\n      iszero\n      tag_385\n      jumpi\n        /* \"#utility.yul\":16397:16406   */\n      dup3\n        /* \"#utility.yul\":16392:16395   */\n      dup8\n        /* \"#utility.yul\":16388:16407   */\n      add\n        /* \"#utility.yul\":16382:16408   */\n      mload\n        /* \"#utility.yul\":16373:16408   */\n      swap1\n      pop\n        /* \"#utility.yul\":16345:16422   */\n    tag_385:\n        /* \"#utility.yul\":16448:16515   */\n      tag_386\n        /* \"#utility.yul\":16508:16514   */\n      dup6\n        /* \"#utility.yul\":16501:16506   */\n      dup3\n        /* \"#utility.yul\":16448:16515   */\n      tag_198\n      jump\t// in\n    tag_386:\n        /* \"#utility.yul\":16442:16446   */\n      dup7\n        /* \"#utility.yul\":16435:16516   */\n      sstore\n        /* \"#utility.yul\":16304:16526   */\n      pop\n        /* \"#utility.yul\":15639:16526   */\n      jump(tag_383)\n        /* \"#utility.yul\":15669:16287   */\n    tag_384:\n        /* \"#utility.yul\":15721:15725   */\n      0x1f\n        /* \"#utility.yul\":15717:15726   */\n      not\n        /* \"#utility.yul\":15709:15715   */\n      dup5\n        /* \"#utility.yul\":15705:15727   */\n      and\n        /* \"#utility.yul\":15755:15792   */\n      tag_387\n        /* \"#utility.yul\":15787:15791   */\n      dup7\n        /* \"#utility.yul\":15755:15792   */\n      tag_184\n      jump\t// in\n    tag_387:\n        /* \"#utility.yul\":15814:15815   */\n      0x00\n        /* \"#utility.yul\":15828:16036   */\n    tag_388:\n        /* \"#utility.yul\":15842:15849   */\n      dup3\n        /* \"#utility.yul\":15839:15840   */\n      dup2\n        /* \"#utility.yul\":15836:15850   */\n      lt\n        /* \"#utility.yul\":15828:16036   */\n      iszero\n      tag_390\n      jumpi\n        /* \"#utility.yul\":15921:15930   */\n      dup5\n        /* \"#utility.yul\":15916:15919   */\n      dup10\n        /* \"#utility.yul\":15912:15931   */\n      add\n        /* \"#utility.yul\":15906:15932   */\n      mload\n        /* \"#utility.yul\":15898:15904   */\n      dup3\n        /* \"#utility.yul\":15891:15933   */\n      sstore\n        /* \"#utility.yul\":15972:15973   */\n      0x01\n        /* \"#utility.yul\":15964:15970   */\n      dup3\n        /* \"#utility.yul\":15960:15974   */\n      add\n        /* \"#utility.yul\":15950:15974   */\n      swap2\n      pop\n        /* \"#utility.yul\":16019:16021   */\n      0x20\n        /* \"#utility.yul\":16008:16017   */\n      dup6\n        /* \"#utility.yul\":16004:16022   */\n      add\n        /* \"#utility.yul\":15991:16022   */\n      swap5\n      pop\n        /* \"#utility.yul\":15865:15869   */\n      0x20\n        /* \"#utility.yul\":15862:15863   */\n      dup2\n        /* \"#utility.yul\":15858:15870   */\n      add\n        /* \"#utility.yul\":15853:15870   */\n      swap1\n      pop\n        /* \"#utility.yul\":15828:16036   */\n      jump(tag_388)\n    tag_390:\n        /* \"#utility.yul\":16064:16070   */\n      dup7\n        /* \"#utility.yul\":16055:16062   */\n      dup4\n        /* \"#utility.yul\":16052:16071   */\n      lt\n        /* \"#utility.yul\":16049:16228   */\n      iszero\n      tag_391\n      jumpi\n        /* \"#utility.yul\":16122:16131   */\n      dup5\n        /* \"#utility.yul\":16117:16120   */\n      dup10\n        /* \"#utility.yul\":16113:16132   */\n      add\n        /* \"#utility.yul\":16107:16133   */\n      mload\n        /* \"#utility.yul\":16165:16213   */\n      tag_392\n        /* \"#utility.yul\":16207:16211   */\n      0x1f\n        /* \"#utility.yul\":16199:16205   */\n      dup10\n        /* \"#utility.yul\":16195:16212   */\n      and\n        /* \"#utility.yul\":16184:16193   */\n      dup3\n        /* \"#utility.yul\":16165:16213   */\n      tag_197\n      jump\t// in\n    tag_392:\n        /* \"#utility.yul\":16157:16163   */\n      dup4\n        /* \"#utility.yul\":16150:16214   */\n      sstore\n        /* \"#utility.yul\":16072:16228   */\n      pop\n        /* \"#utility.yul\":16049:16228   */\n    tag_391:\n        /* \"#utility.yul\":16274:16275   */\n      0x01\n        /* \"#utility.yul\":16270:16271   */\n      0x02\n        /* \"#utility.yul\":16262:16268   */\n      dup9\n        /* \"#utility.yul\":16258:16272   */\n      mul\n        /* \"#utility.yul\":16254:16276   */\n      add\n        /* \"#utility.yul\":16248:16252   */\n      dup9\n        /* \"#utility.yul\":16241:16277   */\n      sstore\n        /* \"#utility.yul\":15676:16287   */\n      pop\n      pop\n      pop\n        /* \"#utility.yul\":15639:16526   */\n    tag_383:\n      pop\n        /* \"#utility.yul\":15229:16532   */\n      pop\n      pop\n      pop\n        /* \"#utility.yul\":15137:16532   */\n      pop\n      pop\n      jump\t// out\n        /* \"#utility.yul\":16538:16711   */\n    tag_199:\n        /* \"#utility.yul\":16678:16703   */\n      0x594f75206d75737420626520636f6e7472696275746f72000000000000000000\n        /* \"#utility.yul\":16674:16675   */\n      0x00\n        /* \"#utility.yul\":16666:16672   */\n      dup3\n        /* \"#utility.yul\":16662:16676   */\n      add\n        /* \"#utility.yul\":16655:16704   */\n      mstore\n        /* \"#utility.yul\":16538:16711   */\n      pop\n      jump\t// out\n        /* \"#utility.yul\":16717:17083   */\n    tag_200:\n        /* \"#utility.yul\":16859:16862   */\n      0x00\n        /* \"#utility.yul\":16880:16947   */\n      tag_395\n        /* \"#utility.yul\":16944:16946   */\n      0x17\n        /* \"#utility.yul\":16939:16942   */\n      dup4\n        /* \"#utility.yul\":16880:16947   */\n      tag_170\n      jump\t// in\n    tag_395:\n        /* \"#utility.yul\":16873:16947   */\n      swap2\n      pop\n        /* \"#utility.yul\":16956:17049   */\n      tag_396\n        /* \"#utility.yul\":17045:17048   */\n      dup3\n        /* \"#utility.yul\":16956:17049   */\n      tag_199\n      jump\t// in\n    tag_396:\n        /* \"#utility.yul\":17074:17076   */\n      0x20\n        /* \"#utility.yul\":17069:17072   */\n      dup3\n        /* \"#utility.yul\":17065:17077   */\n      add\n        /* \"#utility.yul\":17058:17077   */\n      swap1\n      pop\n        /* \"#utility.yul\":16717:17083   */\n      swap2\n      swap1\n      pop\n      jump\t// out\n        /* \"#utility.yul\":17089:17508   */\n    tag_109:\n        /* \"#utility.yul\":17255:17259   */\n      0x00\n        /* \"#utility.yul\":17293:17295   */\n      0x20\n        /* \"#utility.yul\":17282:17291   */\n      dup3\n        /* \"#utility.yul\":17278:17296   */\n      add\n        /* \"#utility.yul\":17270:17296   */\n      swap1\n      pop\n        /* \"#utility.yul\":17342:17351   */\n      dup2\n        /* \"#utility.yul\":17336:17340   */\n      dup2\n        /* \"#utility.yul\":17332:17352   */\n      sub\n        /* \"#utility.yul\":17328:17329   */\n      0x00\n        /* \"#utility.yul\":17317:17326   */\n      dup4\n        /* \"#utility.yul\":17313:17330   */\n      add\n        /* \"#utility.yul\":17306:17353   */\n      mstore\n        /* \"#utility.yul\":17370:17501   */\n      tag_398\n        /* \"#utility.yul\":17496:17500   */\n      dup2\n        /* \"#utility.yul\":17370:17501   */\n      tag_200\n      jump\t// in\n    tag_398:\n        /* \"#utility.yul\":17362:17501   */\n      swap1\n      pop\n        /* \"#utility.yul\":17089:17508   */\n      swap2\n      swap1\n      pop\n      jump\t// out\n        /* \"#utility.yul\":17514:17686   */\n    tag_201:\n        /* \"#utility.yul\":17654:17678   */\n      0x596f75206861766520616c726561647920766f74656400000000000000000000\n        /* \"#utility.yul\":17650:17651   */\n      0x00\n        /* \"#utility.yul\":17642:17648   */\n      dup3\n        /* \"#utility.yul\":17638:17652   */\n      add\n        /* \"#utility.yul\":17631:17679   */\n      mstore\n        /* \"#utility.yul\":17514:17686   */\n      pop\n      jump\t// out\n        /* \"#utility.yul\":17692:18058   */\n    tag_202:\n        /* \"#utility.yul\":17834:17837   */\n      0x00\n        /* \"#utility.yul\":17855:17922   */\n      tag_401\n        /* \"#utility.yul\":17919:17921   */\n      0x16\n        /* \"#utility.yul\":17914:17917   */\n      dup4\n        /* \"#utility.yul\":17855:17922   */\n      tag_170\n      jump\t// in\n    tag_401:\n        /* \"#utility.yul\":17848:17922   */\n      swap2\n      pop\n        /* \"#utility.yul\":17931:18024   */\n      tag_402\n        /* \"#utility.yul\":18020:18023   */\n      dup3\n        /* \"#utility.yul\":17931:18024   */\n      tag_201\n      jump\t// in\n    tag_402:\n        /* \"#utility.yul\":18049:18051   */\n      0x20\n        /* \"#utility.yul\":18044:18047   */\n      dup3\n        /* \"#utility.yul\":18040:18052   */\n      add\n        /* \"#utility.yul\":18033:18052   */\n      swap1\n      pop\n        /* \"#utility.yul\":17692:18058   */\n      swap2\n      swap1\n      pop\n      jump\t// out\n        /* \"#utility.yul\":18064:18483   */\n    tag_112:\n        /* \"#utility.yul\":18230:18234   */\n      0x00\n        /* \"#utility.yul\":18268:18270   */\n      0x20\n        /* \"#utility.yul\":18257:18266   */\n      dup3\n        /* \"#utility.yul\":18253:18271   */\n      add\n        /* \"#utility.yul\":18245:18271   */\n      swap1\n      pop\n        /* \"#utility.yul\":18317:18326   */\n      dup2\n        /* \"#utility.yul\":18311:18315   */\n      dup2\n        /* \"#utility.yul\":18307:18327   */\n      sub\n        /* \"#utility.yul\":18303:18304   */\n      0x00\n        /* \"#utility.yul\":18292:18301   */\n      dup4\n        /* \"#utility.yul\":18288:18305   */\n      add\n        /* \"#utility.yul\":18281:18328   */\n      mstore\n        /* \"#utility.yul\":18345:18476   */\n      tag_404\n        /* \"#utility.yul\":18471:18475   */\n      dup2\n        /* \"#utility.yul\":18345:18476   */\n      tag_202\n      jump\t// in\n    tag_404:\n        /* \"#utility.yul\":18337:18476   */\n      swap1\n      pop\n        /* \"#utility.yul\":18064:18483   */\n      swap2\n      swap1\n      pop\n      jump\t// out\n        /* \"#utility.yul\":18489:18669   */\n    tag_203:\n        /* \"#utility.yul\":18629:18661   */\n      0x546865207265717565737420686173206265656e20636f6d706c657465640000\n        /* \"#utility.yul\":18625:18626   */\n      0x00\n        /* \"#utility.yul\":18617:18623   */\n      dup3\n        /* \"#utility.yul\":18613:18627   */\n      add\n        /* \"#utility.yul\":18606:18662   */\n      mstore\n        /* \"#utility.yul\":18489:18669   */\n      pop\n      jump\t// out\n        /* \"#utility.yul\":18675:19041   */\n    tag_204:\n        /* \"#utility.yul\":18817:18820   */\n      0x00\n        /* \"#utility.yul\":18838:18905   */\n      tag_407\n        /* \"#utility.yul\":18902:18904   */\n      0x1e\n        /* \"#utility.yul\":18897:18900   */\n      dup4\n        /* \"#utility.yul\":18838:18905   */\n      tag_170\n      jump\t// in\n    tag_407:\n        /* \"#utility.yul\":18831:18905   */\n      swap2\n      pop\n        /* \"#utility.yul\":18914:19007   */\n      tag_408\n        /* \"#utility.yul\":19003:19006   */\n      dup3\n        /* \"#utility.yul\":18914:19007   */\n      tag_203\n      jump\t// in\n    tag_408:\n        /* \"#utility.yul\":19032:19034   */\n      0x20\n        /* \"#utility.yul\":19027:19030   */\n      dup3\n        /* \"#utility.yul\":19023:19035   */\n      add\n        /* \"#utility.yul\":19016:19035   */\n      swap1\n      pop\n        /* \"#utility.yul\":18675:19041   */\n      swap2\n      swap1\n      pop\n      jump\t// out\n        /* \"#utility.yul\":19047:19466   */\n    tag_121:\n        /* \"#utility.yul\":19213:19217   */\n      0x00\n        /* \"#utility.yul\":19251:19253   */\n      0x20\n        /* \"#utility.yul\":19240:19249   */\n      dup3\n        /* \"#utility.yul\":19236:19254   */\n      add\n        /* \"#utility.yul\":19228:19254   */\n      swap1\n      pop\n        /* \"#utility.yul\":19300:19309   */\n      dup2\n        /* \"#utility.yul\":19294:19298   */\n      dup2\n        /* \"#utility.yul\":19290:19310   */\n      sub\n        /* \"#utility.yul\":19286:19287   */\n      0x00\n        /* \"#utility.yul\":19275:19284   */\n      dup4\n        /* \"#utility.yul\":19271:19288   */\n      add\n        /* \"#utility.yul\":19264:19311   */\n      mstore\n        /* \"#utility.yul\":19328:19459   */\n      tag_410\n        /* \"#utility.yul\":19454:19458   */\n      dup2\n        /* \"#utility.yul\":19328:19459   */\n      tag_204\n      jump\t// in\n    tag_410:\n        /* \"#utility.yul\":19320:19459   */\n      swap1\n      pop\n        /* \"#utility.yul\":19047:19466   */\n      swap2\n      swap1\n      pop\n      jump\t// out\n        /* \"#utility.yul\":19472:19652   */\n    tag_205:\n        /* \"#utility.yul\":19520:19597   */\n      0x4e487b7100000000000000000000000000000000000000000000000000000000\n        /* \"#utility.yul\":19517:19518   */\n      0x00\n        /* \"#utility.yul\":19510:19598   */\n      mstore\n        /* \"#utility.yul\":19617:19621   */\n      0x12\n        /* \"#utility.yul\":19614:19615   */\n      0x04\n        /* \"#utility.yul\":19607:19622   */\n      mstore\n        /* \"#utility.yul\":19641:19645   */\n      0x24\n        /* \"#utility.yul\":19638:19639   */\n      0x00\n        /* \"#utility.yul\":19631:19646   */\n      revert\n        /* \"#utility.yul\":19658:19843   */\n    tag_123:\n        /* \"#utility.yul\":19698:19699   */\n      0x00\n        /* \"#utility.yul\":19715:19735   */\n      tag_413\n        /* \"#utility.yul\":19733:19734   */\n      dup3\n        /* \"#utility.yul\":19715:19735   */\n      tag_151\n      jump\t// in\n    tag_413:\n        /* \"#utility.yul\":19710:19735   */\n      swap2\n      pop\n        /* \"#utility.yul\":19749:19769   */\n      tag_414\n        /* \"#utility.yul\":19767:19768   */\n      dup4\n        /* \"#utility.yul\":19749:19769   */\n      tag_151\n      jump\t// in\n    tag_414:\n        /* \"#utility.yul\":19744:19769   */\n      swap3\n      pop\n        /* \"#utility.yul\":19788:19789   */\n      dup3\n        /* \"#utility.yul\":19778:19813   */\n      tag_415\n      jumpi\n        /* \"#utility.yul\":19793:19811   */\n      tag_416\n      tag_205\n      jump\t// in\n    tag_416:\n        /* \"#utility.yul\":19778:19813   */\n    tag_415:\n        /* \"#utility.yul\":19835:19836   */\n      dup3\n        /* \"#utility.yul\":19832:19833   */\n      dup3\n        /* \"#utility.yul\":19828:19837   */\n      div\n        /* \"#utility.yul\":19823:19837   */\n      swap1\n      pop\n        /* \"#utility.yul\":19658:19843   */\n      swap3\n      swap2\n      pop\n      pop\n      jump\t// out\n        /* \"#utility.yul\":19849:20024   */\n    tag_206:\n        /* \"#utility.yul\":19989:20016   */\n      0x4d616a6f7269747920646f6573206e6f7420737570706f727400000000000000\n        /* \"#utility.yul\":19985:19986   */\n      0x00\n        /* \"#utility.yul\":19977:19983   */\n      dup3\n        /* \"#utility.yul\":19973:19987   */\n      add\n        /* \"#utility.yul\":19966:20017   */\n      mstore\n        /* \"#utility.yul\":19849:20024   */\n      pop\n      jump\t// out\n        /* \"#utility.yul\":20030:20396   */\n    tag_207:\n        /* \"#utility.yul\":20172:20175   */\n      0x00\n        /* \"#utility.yul\":20193:20260   */\n      tag_419\n        /* \"#utility.yul\":20257:20259   */\n      0x19\n        /* \"#utility.yul\":20252:20255   */\n      dup4\n        /* \"#utility.yul\":20193:20260   */\n      tag_170\n      jump\t// in\n    tag_419:\n        /* \"#utility.yul\":20186:20260   */\n      swap2\n      pop\n        /* \"#utility.yul\":20269:20362   */\n      tag_420\n        /* \"#utility.yul\":20358:20361   */\n      dup3\n        /* \"#utility.yul\":20269:20362   */\n      tag_206\n      jump\t// in\n    tag_420:\n        /* \"#utility.yul\":20387:20389   */\n      0x20\n        /* \"#utility.yul\":20382:20385   */\n      dup3\n        /* \"#utility.yul\":20378:20390   */\n      add\n        /* \"#utility.yul\":20371:20390   */\n      swap1\n      pop\n        /* \"#utility.yul\":20030:20396   */\n      swap2\n      swap1\n      pop\n      jump\t// out\n        /* \"#utility.yul\":20402:20821   */\n    tag_126:\n        /* \"#utility.yul\":20568:20572   */\n      0x00\n        /* \"#utility.yul\":20606:20608   */\n      0x20\n        /* \"#utility.yul\":20595:20604   */\n      dup3\n        /* \"#utility.yul\":20591:20609   */\n      add\n        /* \"#utility.yul\":20583:20609   */\n      swap1\n      pop\n        /* \"#utility.yul\":20655:20664   */\n      dup2\n        /* \"#utility.yul\":20649:20653   */\n      dup2\n        /* \"#utility.yul\":20645:20665   */\n      sub\n        /* \"#utility.yul\":20641:20642   */\n      0x00\n        /* \"#utility.yul\":20630:20639   */\n      dup4\n        /* \"#utility.yul\":20626:20643   */\n      add\n        /* \"#utility.yul\":20619:20666   */\n      mstore\n        /* \"#utility.yul\":20683:20814   */\n      tag_422\n        /* \"#utility.yul\":20809:20813   */\n      dup2\n        /* \"#utility.yul\":20683:20814   */\n      tag_207\n      jump\t// in\n    tag_422:\n        /* \"#utility.yul\":20675:20814   */\n      swap1\n      pop\n        /* \"#utility.yul\":20402:20821   */\n      swap2\n      swap1\n      pop\n      jump\t// out\n        /* \"#utility.yul\":20827:21008   */\n    tag_208:\n        /* \"#utility.yul\":20967:21000   */\n      0x596f7520617265206e6f7420656c696769626c6520666f7220726566756e6400\n        /* \"#utility.yul\":20963:20964   */\n      0x00\n        /* \"#utility.yul\":20955:20961   */\n      dup3\n        /* \"#utility.yul\":20951:20965   */\n      add\n        /* \"#utility.yul\":20944:21001   */\n      mstore\n        /* \"#utility.yul\":20827:21008   */\n      pop\n      jump\t// out\n        /* \"#utility.yul\":21014:21380   */\n    tag_209:\n        /* \"#utility.yul\":21156:21159   */\n      0x00\n        /* \"#utility.yul\":21177:21244   */\n      tag_425\n        /* \"#utility.yul\":21241:21243   */\n      0x1f\n        /* \"#utility.yul\":21236:21239   */\n      dup4\n        /* \"#utility.yul\":21177:21244   */\n      tag_170\n      jump\t// in\n    tag_425:\n        /* \"#utility.yul\":21170:21244   */\n      swap2\n      pop\n        /* \"#utility.yul\":21253:21346   */\n      tag_426\n        /* \"#utility.yul\":21342:21345   */\n      dup3\n        /* \"#utility.yul\":21253:21346   */\n      tag_208\n      jump\t// in\n    tag_426:\n        /* \"#utility.yul\":21371:21373   */\n      0x20\n        /* \"#utility.yul\":21366:21369   */\n      dup3\n        /* \"#utility.yul\":21362:21374   */\n      add\n        /* \"#utility.yul\":21355:21374   */\n      swap1\n      pop\n        /* \"#utility.yul\":21014:21380   */\n      swap2\n      swap1\n      pop\n      jump\t// out\n        /* \"#utility.yul\":21386:21805   */\n    tag_133:\n        /* \"#utility.yul\":21552:21556   */\n      0x00\n        /* \"#utility.yul\":21590:21592   */\n      0x20\n        /* \"#utility.yul\":21579:21588   */\n      dup3\n        /* \"#utility.yul\":21575:21593   */\n      add\n        /* \"#utility.yul\":21567:21593   */\n      swap1\n      pop\n        /* \"#utility.yul\":21639:21648   */\n      dup2\n        /* \"#utility.yul\":21633:21637   */\n      dup2\n        /* \"#utility.yul\":21629:21649   */\n      sub\n        /* \"#utility.yul\":21625:21626   */\n      0x00\n        /* \"#utility.yul\":21614:21623   */\n      dup4\n        /* \"#utility.yul\":21610:21627   */\n      add\n        /* \"#utility.yul\":21603:21650   */\n      mstore\n        /* \"#utility.yul\":21667:21798   */\n      tag_428\n        /* \"#utility.yul\":21793:21797   */\n      dup2\n        /* \"#utility.yul\":21667:21798   */\n      tag_209\n      jump\t// in\n    tag_428:\n        /* \"#utility.yul\":21659:21798   */\n      swap1\n      pop\n        /* \"#utility.yul\":21386:21805   */\n      swap2\n      swap1\n      pop\n      jump\t// out\n\n    auxdata: 0xa26469706673582212208c5822cd8604baeb9fd7ae7d41a563179c27e5ee2aa9bba6552b901d60aa43d464736f6c63430008160033\n}\n",
				"bytecode": {
					"linkReferences": {},
					"object": "608060405234801562000010575f80fd5b506040516200192b3803806200192b8339818101604052810190620000369190620000dd565b8160048190555080426200004b91906200014f565b60038190555060646002819055503360015f6101000a81548173ffffffffffffffffffffffffffffffffffffffff021916908373ffffffffffffffffffffffffffffffffffffffff160217905550505062000189565b5f80fd5b5f819050919050565b620000b981620000a5565b8114620000c4575f80fd5b50565b5f81519050620000d781620000ae565b92915050565b5f8060408385031215620000f657620000f5620000a1565b5b5f6200010585828601620000c7565b92505060206200011885828601620000c7565b9150509250929050565b7f4e487b71000000000000000000000000000000000000000000000000000000005f52601160045260245ffd5b5f6200015b82620000a5565b91506200016883620000a5565b925082820190508082111562000183576200018262000122565b5b92915050565b61179480620001975f395ff3fe6080604052600436106100e7575f3560e01c80635114cb5211610089578063937e09b111610058578063937e09b1146102a75780639fb42b1f146102d1578063c59ee1dc146102fb578063d4b8399214610325576100e7565b80635114cb52146101ff578063590e1ae3146102275780636f9fb98a1461023d57806381d12c5814610267576100e7565b80633eb7647b116100c55780633eb7647b1461015b578063481c6a75146101835780634cb6f4a5146101ad5780634e260f6f146101d5576100e7565b806306e99fef146100eb5780631f6d4942146100f557806329dcb0cf14610131575b5f80fd5b6100f361034f565b005b348015610100575f80fd5b5061011b60048036038101906101169190610c74565b61049f565b6040516101289190610cb7565b60405180910390f35b34801561013c575f80fd5b506101456104b3565b6040516101529190610cb7565b60405180910390f35b348015610166575f80fd5b50610181600480360381019061017c9190610e71565b6104b9565b005b34801561018e575f80fd5b506101976105fb565b6040516101a49190610eec565b60405180910390f35b3480156101b8575f80fd5b506101d360048036038101906101ce9190610f05565b610620565b005b3480156101e0575f80fd5b506101e96107b7565b6040516101f69190610cb7565b60405180910390f35b34801561020a575f80fd5b5061022560048036038101906102209190610f05565b6107bd565b005b348015610232575f80fd5b5061023b6109a5565b005b348015610248575f80fd5b50610251610b07565b60405161025e9190610cb7565b60405180910390f35b348015610272575f80fd5b5061028d60048036038101906102889190610f05565b610b0e565b60405161029e959493929190610fd3565b60405180910390f35b3480156102b2575f80fd5b506102bb610bf1565b6040516102c89190610cb7565b60405180910390f35b3480156102dc575f80fd5b506102e5610bf7565b6040516102f29190610cb7565b60405180910390f35b348015610306575f80fd5b5061030f610bfd565b60405161031c9190610cb7565b60405180910390f35b348015610330575f80fd5b50610339610c03565b6040516103469190610cb7565b60405180910390f35b6003544210610393576040517f08c379a000000000000000000000000000000000000000000000000000000000815260040161038a90611075565b60405180910390fd5b6002543410156103d8576040517f08c379a00000000000000000000000000000000000000000000000000000000081526004016103cf906110dd565b60405180910390fd5b5f805f3373ffffffffffffffffffffffffffffffffffffffff1673ffffffffffffffffffffffffffffffffffffffff1681526020019081526020015f2054036104335760065f81548092919061042d90611128565b91905055505b345f803373ffffffffffffffffffffffffffffffffffffffff1673ffffffffffffffffffffffffffffffffffffffff1681526020019081526020015f205f82825461047e919061116f565b925050819055503460055f828254610496919061116f565b92505081905550565b5f602052805f5260405f205f915090505481565b60035481565b60015f9054906101000a900473ffffffffffffffffffffffffffffffffffffffff1673ffffffffffffffffffffffffffffffffffffffff163373ffffffffffffffffffffffffffffffffffffffff1614610548576040517f08c379a000000000000000000000000000000000000000000000000000000000815260040161053f90611212565b60405180910390fd5b5f60075f60085481526020019081526020015f20905060085f81548092919061057090611128565b919050555083815f019081610585919061142a565b5082816001015f6101000a81548173ffffffffffffffffffffffffffffffffffffffff021916908373ffffffffffffffffffffffffffffffffffffffff1602179055508181600201819055505f816003015f6101000a81548160ff0219169083151502179055505f816004018190555050505050565b60015f9054906101000a900473ffffffffffffffffffffffffffffffffffffffff1681565b5f805f3373ffffffffffffffffffffffffffffffffffffffff1673ffffffffffffffffffffffffffffffffffffffff1681526020019081526020015f20541161069e576040517f08c379a000000000000000000000000000000000000000000000000000000000815260040161069590611543565b60405180910390fd5b5f60075f8381526020019081526020015f2090505f1515816005015f3373ffffffffffffffffffffffffffffffffffffffff1673ffffffffffffffffffffffffffffffffffffffff1681526020019081526020015f205f9054906101000a900460ff16151514610743576040517f08c379a000000000000000000000000000000000000000000000000000000000815260040161073a906115ab565b60405180910390fd5b6001816005015f3373ffffffffffffffffffffffffffffffffffffffff1673ffffffffffffffffffffffffffffffffffffffff1681526020019081526020015f205f6101000a81548160ff021916908315150217905550806004015f8154809291906107ae90611128565b91905055505050565b60065481565b60015f9054906101000a900473ffffffffffffffffffffffffffffffffffffffff1673ffffffffffffffffffffffffffffffffffffffff163373ffffffffffffffffffffffffffffffffffffffff161461084c576040517f08c379a000000000000000000000000000000000000000000000000000000000815260040161084390611212565b60405180910390fd5b600454600554101561085c575f80fd5b5f60075f8381526020019081526020015f2090505f1515816003015f9054906101000a900460ff161515146108c6576040517f08c379a00000000000000000000000000000000000000000000000000000000081526004016108bd90611613565b60405180910390fd5b60026006546108d5919061165e565b81600401541161091a576040517f08c379a0000000000000000000000000000000000000000000000000000000008152600401610911906116d8565b60405180910390fd5b806001015f9054906101000a900473ffffffffffffffffffffffffffffffffffffffff1673ffffffffffffffffffffffffffffffffffffffff166108fc826002015490811502906040515f60405180830381858888f19350505050158015610984573d5f803e3d5ffd5b506001816003015f6101000a81548160ff0219169083151502179055505050565b600354421180156109b95750600454600554105b6109f8576040517f08c379a00000000000000000000000000000000000000000000000000000000081526004016109ef90611740565b60405180910390fd5b5f805f3373ffffffffffffffffffffffffffffffffffffffff1673ffffffffffffffffffffffffffffffffffffffff1681526020019081526020015f205411610a3f575f80fd5b5f3390508073ffffffffffffffffffffffffffffffffffffffff166108fc5f803373ffffffffffffffffffffffffffffffffffffffff1673ffffffffffffffffffffffffffffffffffffffff1681526020019081526020015f205490811502906040515f60405180830381858888f19350505050158015610ac2573d5f803e3d5ffd5b505f805f3373ffffffffffffffffffffffffffffffffffffffff1673ffffffffffffffffffffffffffffffffffffffff1681526020019081526020015f208190555050565b5f47905090565b6007602052805f5260405f205f91509050805f018054610b2d9061125d565b80601f0160208091040260200160405190810160405280929190818152602001828054610b599061125d565b8015610ba45780601f10610b7b57610100808354040283529160200191610ba4565b820191905f5260205f20905b815481529060010190602001808311610b8757829003601f168201915b505050505090806001015f9054906101000a900473ffffffffffffffffffffffffffffffffffffffff1690806002015490806003015f9054906101000a900460ff16908060040154905085565b60025481565b60085481565b60055481565b60045481565b5f604051905090565b5f80fd5b5f80fd5b5f73ffffffffffffffffffffffffffffffffffffffff82169050919050565b5f610c4382610c1a565b9050919050565b610c5381610c39565b8114610c5d575f80fd5b50565b5f81359050610c6e81610c4a565b92915050565b5f60208284031215610c8957610c88610c12565b5b5f610c9684828501610c60565b91505092915050565b5f819050919050565b610cb181610c9f565b82525050565b5f602082019050610cca5f830184610ca8565b92915050565b5f80fd5b5f80fd5b5f601f19601f8301169050919050565b7f4e487b71000000000000000000000000000000000000000000000000000000005f52604160045260245ffd5b610d1e82610cd8565b810181811067ffffffffffffffff82111715610d3d57610d3c610ce8565b5b80604052505050565b5f610d4f610c09565b9050610d5b8282610d15565b919050565b5f67ffffffffffffffff821115610d7a57610d79610ce8565b5b610d8382610cd8565b9050602081019050919050565b828183375f83830152505050565b5f610db0610dab84610d60565b610d46565b905082815260208101848484011115610dcc57610dcb610cd4565b5b610dd7848285610d90565b509392505050565b5f82601f830112610df357610df2610cd0565b5b8135610e03848260208601610d9e565b91505092915050565b5f610e1682610c1a565b9050919050565b610e2681610e0c565b8114610e30575f80fd5b50565b5f81359050610e4181610e1d565b92915050565b610e5081610c9f565b8114610e5a575f80fd5b50565b5f81359050610e6b81610e47565b92915050565b5f805f60608486031215610e8857610e87610c12565b5b5f84013567ffffffffffffffff811115610ea557610ea4610c16565b5b610eb186828701610ddf565b9350506020610ec286828701610e33565b9250506040610ed386828701610e5d565b9150509250925092565b610ee681610c39565b82525050565b5f602082019050610eff5f830184610edd565b92915050565b5f60208284031215610f1a57610f19610c12565b5b5f610f2784828501610e5d565b91505092915050565b5f81519050919050565b5f82825260208201905092915050565b5f5b83811015610f67578082015181840152602081019050610f4c565b5f8484015250505050565b5f610f7c82610f30565b610f868185610f3a565b9350610f96818560208601610f4a565b610f9f81610cd8565b840191505092915050565b610fb381610e0c565b82525050565b5f8115159050919050565b610fcd81610fb9565b82525050565b5f60a0820190508181035f830152610feb8188610f72565b9050610ffa6020830187610faa565b6110076040830186610ca8565b6110146060830185610fc4565b6110216080830184610ca8565b9695505050505050565b7f446561646c696e652068617320706173736564000000000000000000000000005f82015250565b5f61105f601383610f3a565b915061106a8261102b565b602082019050919050565b5f6020820190508181035f83015261108c81611053565b9050919050565b7f4d696e696d756d20436f6e747269627574696f6e206973206e6f74206d6574005f82015250565b5f6110c7601f83610f3a565b91506110d282611093565b602082019050919050565b5f6020820190508181035f8301526110f4816110bb565b9050919050565b7f4e487b71000000000000000000000000000000000000000000000000000000005f52601160045260245ffd5b5f61113282610c9f565b91507fffffffffffffffffffffffffffffffffffffffffffffffffffffffffffffffff8203611164576111636110fb565b5b600182019050919050565b5f61117982610c9f565b915061118483610c9f565b925082820190508082111561119c5761119b6110fb565b5b92915050565b7f4f6e6c79206d616e616765722063616e2063616c6c6c20746869732066756e635f8201527f74696f6e00000000000000000000000000000000000000000000000000000000602082015250565b5f6111fc602483610f3a565b9150611207826111a2565b604082019050919050565b5f6020820190508181035f830152611229816111f0565b9050919050565b7f4e487b71000000000000000000000000000000000000000000000000000000005f52602260045260245ffd5b5f600282049050600182168061127457607f821691505b60208210810361128757611286611230565b5b50919050565b5f819050815f5260205f209050919050565b5f6020601f8301049050919050565b5f82821b905092915050565b5f600883026112e97fffffffffffffffffffffffffffffffffffffffffffffffffffffffffffffffff826112ae565b6112f386836112ae565b95508019841693508086168417925050509392505050565b5f819050919050565b5f61132e61132961132484610c9f565b61130b565b610c9f565b9050919050565b5f819050919050565b61134783611314565b61135b61135382611335565b8484546112ba565b825550505050565b5f90565b61136f611363565b61137a81848461133e565b505050565b5b8181101561139d576113925f82611367565b600181019050611380565b5050565b601f8211156113e2576113b38161128d565b6113bc8461129f565b810160208510156113cb578190505b6113df6113d78561129f565b83018261137f565b50505b505050565b5f82821c905092915050565b5f6114025f19846008026113e7565b1980831691505092915050565b5f61141a83836113f3565b9150826002028217905092915050565b61143382610f30565b67ffffffffffffffff81111561144c5761144b610ce8565b5b611456825461125d565b6114618282856113a1565b5f60209050601f831160018114611492575f8415611480578287015190505b61148a858261140f565b8655506114f1565b601f1984166114a08661128d565b5f5b828110156114c7578489015182556001820191506020850194506020810190506114a2565b868310156114e457848901516114e0601f8916826113f3565b8355505b6001600288020188555050505b505050505050565b7f594f75206d75737420626520636f6e7472696275746f720000000000000000005f82015250565b5f61152d601783610f3a565b9150611538826114f9565b602082019050919050565b5f6020820190508181035f83015261155a81611521565b9050919050565b7f596f75206861766520616c726561647920766f746564000000000000000000005f82015250565b5f611595601683610f3a565b91506115a082611561565b602082019050919050565b5f6020820190508181035f8301526115c281611589565b9050919050565b7f546865207265717565737420686173206265656e20636f6d706c6574656400005f82015250565b5f6115fd601e83610f3a565b9150611608826115c9565b602082019050919050565b5f6020820190508181035f83015261162a816115f1565b9050919050565b7f4e487b71000000000000000000000000000000000000000000000000000000005f52601260045260245ffd5b5f61166882610c9f565b915061167383610c9f565b92508261168357611682611631565b5b828204905092915050565b7f4d616a6f7269747920646f6573206e6f7420737570706f7274000000000000005f82015250565b5f6116c2601983610f3a565b91506116cd8261168e565b602082019050919050565b5f6020820190508181035f8301526116ef816116b6565b9050919050565b7f596f7520617265206e6f7420656c696769626c6520666f7220726566756e64005f82015250565b5f61172a601f83610f3a565b9150611735826116f6565b602082019050919050565b5f6020820190508181035f8301526117578161171e565b905091905056fea26469706673582212208c5822cd8604baeb9fd7ae7d41a563179c27e5ee2aa9bba6552b901d60aa43d464736f6c63430008160033",
					"opcodes": "PUSH1 0x80 PUSH1 0x40 MSTORE CALLVALUE DUP1 ISZERO PUSH3 0x10 JUMPI PUSH0 DUP1 REVERT JUMPDEST POP PUSH1 0x40 MLOAD PUSH3 0x192B CODESIZE SUB DUP1 PUSH3 0x192B DUP4 CODECOPY DUP2 DUP2 ADD PUSH1 0x40 MSTORE DUP2 ADD SWAP1 PUSH3 0x36 SWAP2 SWAP1 PUSH3 0xDD JUMP JUMPDEST DUP2 PUSH1 0x4 DUP2 SWAP1 SSTORE POP DUP1 TIMESTAMP PUSH3 0x4B SWAP2 SWAP1 PUSH3 0x14F JUMP JUMPDEST PUSH1 0x3 DUP2 SWAP1 SSTORE POP PUSH1 0x64 PUSH1 0x2 DUP2 SWAP1 SSTORE POP CALLER PUSH1 0x1 PUSH0 PUSH2 0x100 EXP DUP2 SLOAD DUP2 PUSH20 0xFFFFFFFFFFFFFFFFFFFFFFFFFFFFFFFFFFFFFFFF MUL NOT AND SWAP1 DUP4 PUSH20 0xFFFFFFFFFFFFFFFFFFFFFFFFFFFFFFFFFFFFFFFF AND MUL OR SWAP1 SSTORE POP POP POP PUSH3 0x189 JUMP JUMPDEST PUSH0 DUP1 REVERT JUMPDEST PUSH0 DUP2 SWAP1 POP SWAP2 SWAP1 POP JUMP JUMPDEST PUSH3 0xB9 DUP2 PUSH3 0xA5 JUMP JUMPDEST DUP2 EQ PUSH3 0xC4 JUMPI PUSH0 DUP1 REVERT JUMPDEST POP JUMP JUMPDEST PUSH0 DUP2 MLOAD SWAP1 POP PUSH3 0xD7 DUP2 PUSH3 0xAE JUMP JUMPDEST SWAP3 SWAP2 POP POP JUMP JUMPDEST PUSH0 DUP1 PUSH1 0x40 DUP4 DUP6 SUB SLT ISZERO PUSH3 0xF6 JUMPI PUSH3 0xF5 PUSH3 0xA1 JUMP JUMPDEST JUMPDEST PUSH0 PUSH3 0x105 DUP6 DUP3 DUP7 ADD PUSH3 0xC7 JUMP JUMPDEST SWAP3 POP POP PUSH1 0x20 PUSH3 0x118 DUP6 DUP3 DUP7 ADD PUSH3 0xC7 JUMP JUMPDEST SWAP2 POP POP SWAP3 POP SWAP3 SWAP1 POP JUMP JUMPDEST PUSH32 0x4E487B7100000000000000000000000000000000000000000000000000000000 PUSH0 MSTORE PUSH1 0x11 PUSH1 0x4 MSTORE PUSH1 0x24 PUSH0 REVERT JUMPDEST PUSH0 PUSH3 0x15B DUP3 PUSH3 0xA5 JUMP JUMPDEST SWAP2 POP PUSH3 0x168 DUP4 PUSH3 0xA5 JUMP JUMPDEST SWAP3 POP DUP3 DUP3 ADD SWAP1 POP DUP1 DUP3 GT ISZERO PUSH3 0x183 JUMPI PUSH3 0x182 PUSH3 0x122 JUMP JUMPDEST JUMPDEST SWAP3 SWAP2 POP POP JUMP JUMPDEST PUSH2 0x1794 DUP1 PUSH3 0x197 PUSH0 CODECOPY PUSH0 RETURN INVALID PUSH1 0x80 PUSH1 0x40 MSTORE PUSH1 0x4 CALLDATASIZE LT PUSH2 0xE7 JUMPI PUSH0 CALLDATALOAD PUSH1 0xE0 SHR DUP1 PUSH4 0x5114CB52 GT PUSH2 0x89 JUMPI DUP1 PUSH4 0x937E09B1 GT PUSH2 0x58 JUMPI DUP1 PUSH4 0x937E09B1 EQ PUSH2 0x2A7 JUMPI DUP1 PUSH4 0x9FB42B1F EQ PUSH2 0x2D1 JUMPI DUP1 PUSH4 0xC59EE1DC EQ PUSH2 0x2FB JUMPI DUP1 PUSH4 0xD4B83992 EQ PUSH2 0x325 JUMPI PUSH2 0xE7 JUMP JUMPDEST DUP1 PUSH4 0x5114CB52 EQ PUSH2 0x1FF JUMPI DUP1 PUSH4 0x590E1AE3 EQ PUSH2 0x227 JUMPI DUP1 PUSH4 0x6F9FB98A EQ PUSH2 0x23D JUMPI DUP1 PUSH4 0x81D12C58 EQ PUSH2 0x267 JUMPI PUSH2 0xE7 JUMP JUMPDEST DUP1 PUSH4 0x3EB7647B GT PUSH2 0xC5 JUMPI DUP1 PUSH4 0x3EB7647B EQ PUSH2 0x15B JUMPI DUP1 PUSH4 0x481C6A75 EQ PUSH2 0x183 JUMPI DUP1 PUSH4 0x4CB6F4A5 EQ PUSH2 0x1AD JUMPI DUP1 PUSH4 0x4E260F6F EQ PUSH2 0x1D5 JUMPI PUSH2 0xE7 JUMP JUMPDEST DUP1 PUSH4 0x6E99FEF EQ PUSH2 0xEB JUMPI DUP1 PUSH4 0x1F6D4942 EQ PUSH2 0xF5 JUMPI DUP1 PUSH4 0x29DCB0CF EQ PUSH2 0x131 JUMPI JUMPDEST PUSH0 DUP1 REVERT JUMPDEST PUSH2 0xF3 PUSH2 0x34F JUMP JUMPDEST STOP JUMPDEST CALLVALUE DUP1 ISZERO PUSH2 0x100 JUMPI PUSH0 DUP1 REVERT JUMPDEST POP PUSH2 0x11B PUSH1 0x4 DUP1 CALLDATASIZE SUB DUP2 ADD SWAP1 PUSH2 0x116 SWAP2 SWAP1 PUSH2 0xC74 JUMP JUMPDEST PUSH2 0x49F JUMP JUMPDEST PUSH1 0x40 MLOAD PUSH2 0x128 SWAP2 SWAP1 PUSH2 0xCB7 JUMP JUMPDEST PUSH1 0x40 MLOAD DUP1 SWAP2 SUB SWAP1 RETURN JUMPDEST CALLVALUE DUP1 ISZERO PUSH2 0x13C JUMPI PUSH0 DUP1 REVERT JUMPDEST POP PUSH2 0x145 PUSH2 0x4B3 JUMP JUMPDEST PUSH1 0x40 MLOAD PUSH2 0x152 SWAP2 SWAP1 PUSH2 0xCB7 JUMP JUMPDEST PUSH1 0x40 MLOAD DUP1 SWAP2 SUB SWAP1 RETURN JUMPDEST CALLVALUE DUP1 ISZERO PUSH2 0x166 JUMPI PUSH0 DUP1 REVERT JUMPDEST POP PUSH2 0x181 PUSH1 0x4 DUP1 CALLDATASIZE SUB DUP2 ADD SWAP1 PUSH2 0x17C SWAP2 SWAP1 PUSH2 0xE71 JUMP JUMPDEST PUSH2 0x4B9 JUMP JUMPDEST STOP JUMPDEST CALLVALUE DUP1 ISZERO PUSH2 0x18E JUMPI PUSH0 DUP1 REVERT JUMPDEST POP PUSH2 0x197 PUSH2 0x5FB JUMP JUMPDEST PUSH1 0x40 MLOAD PUSH2 0x1A4 SWAP2 SWAP1 PUSH2 0xEEC JUMP JUMPDEST PUSH1 0x40 MLOAD DUP1 SWAP2 SUB SWAP1 RETURN JUMPDEST CALLVALUE DUP1 ISZERO PUSH2 0x1B8 JUMPI PUSH0 DUP1 REVERT JUMPDEST POP PUSH2 0x1D3 PUSH1 0x4 DUP1 CALLDATASIZE SUB DUP2 ADD SWAP1 PUSH2 0x1CE SWAP2 SWAP1 PUSH2 0xF05 JUMP JUMPDEST PUSH2 0x620 JUMP JUMPDEST STOP JUMPDEST CALLVALUE DUP1 ISZERO PUSH2 0x1E0 JUMPI PUSH0 DUP1 REVERT JUMPDEST POP PUSH2 0x1E9 PUSH2 0x7B7 JUMP JUMPDEST PUSH1 0x40 MLOAD PUSH2 0x1F6 SWAP2 SWAP1 PUSH2 0xCB7 JUMP JUMPDEST PUSH1 0x40 MLOAD DUP1 SWAP2 SUB SWAP1 RETURN JUMPDEST CALLVALUE DUP1 ISZERO PUSH2 0x20A JUMPI PUSH0 DUP1 REVERT JUMPDEST POP PUSH2 0x225 PUSH1 0x4 DUP1 CALLDATASIZE SUB DUP2 ADD SWAP1 PUSH2 0x220 SWAP2 SWAP1 PUSH2 0xF05 JUMP JUMPDEST PUSH2 0x7BD JUMP JUMPDEST STOP JUMPDEST CALLVALUE DUP1 ISZERO PUSH2 0x232 JUMPI PUSH0 DUP1 REVERT JUMPDEST POP PUSH2 0x23B PUSH2 0x9A5 JUMP JUMPDEST STOP JUMPDEST CALLVALUE DUP1 ISZERO PUSH2 0x248 JUMPI PUSH0 DUP1 REVERT JUMPDEST POP PUSH2 0x251 PUSH2 0xB07 JUMP JUMPDEST PUSH1 0x40 MLOAD PUSH2 0x25E SWAP2 SWAP1 PUSH2 0xCB7 JUMP JUMPDEST PUSH1 0x40 MLOAD DUP1 SWAP2 SUB SWAP1 RETURN JUMPDEST CALLVALUE DUP1 ISZERO PUSH2 0x272 JUMPI PUSH0 DUP1 REVERT JUMPDEST POP PUSH2 0x28D PUSH1 0x4 DUP1 CALLDATASIZE SUB DUP2 ADD SWAP1 PUSH2 0x288 SWAP2 SWAP1 PUSH2 0xF05 JUMP JUMPDEST PUSH2 0xB0E JUMP JUMPDEST PUSH1 0x40 MLOAD PUSH2 0x29E SWAP6 SWAP5 SWAP4 SWAP3 SWAP2 SWAP1 PUSH2 0xFD3 JUMP JUMPDEST PUSH1 0x40 MLOAD DUP1 SWAP2 SUB SWAP1 RETURN JUMPDEST CALLVALUE DUP1 ISZERO PUSH2 0x2B2 JUMPI PUSH0 DUP1 REVERT JUMPDEST POP PUSH2 0x2BB PUSH2 0xBF1 JUMP JUMPDEST PUSH1 0x40 MLOAD PUSH2 0x2C8 SWAP2 SWAP1 PUSH2 0xCB7 JUMP JUMPDEST PUSH1 0x40 MLOAD DUP1 SWAP2 SUB SWAP1 RETURN JUMPDEST CALLVALUE DUP1 ISZERO PUSH2 0x2DC JUMPI PUSH0 DUP1 REVERT JUMPDEST POP PUSH2 0x2E5 PUSH2 0xBF7 JUMP JUMPDEST PUSH1 0x40 MLOAD PUSH2 0x2F2 SWAP2 SWAP1 PUSH2 0xCB7 JUMP JUMPDEST PUSH1 0x40 MLOAD DUP1 SWAP2 SUB SWAP1 RETURN JUMPDEST CALLVALUE DUP1 ISZERO PUSH2 0x306 JUMPI PUSH0 DUP1 REVERT JUMPDEST POP PUSH2 0x30F PUSH2 0xBFD JUMP JUMPDEST PUSH1 0x40 MLOAD PUSH2 0x31C SWAP2 SWAP1 PUSH2 0xCB7 JUMP JUMPDEST PUSH1 0x40 MLOAD DUP1 SWAP2 SUB SWAP1 RETURN JUMPDEST CALLVALUE DUP1 ISZERO PUSH2 0x330 JUMPI PUSH0 DUP1 REVERT JUMPDEST POP PUSH2 0x339 PUSH2 0xC03 JUMP JUMPDEST PUSH1 0x40 MLOAD PUSH2 0x346 SWAP2 SWAP1 PUSH2 0xCB7 JUMP JUMPDEST PUSH1 0x40 MLOAD DUP1 SWAP2 SUB SWAP1 RETURN JUMPDEST PUSH1 0x3 SLOAD TIMESTAMP LT PUSH2 0x393 JUMPI PUSH1 0x40 MLOAD PUSH32 0x8C379A000000000000000000000000000000000000000000000000000000000 DUP2 MSTORE PUSH1 0x4 ADD PUSH2 0x38A SWAP1 PUSH2 0x1075 JUMP JUMPDEST PUSH1 0x40 MLOAD DUP1 SWAP2 SUB SWAP1 REVERT JUMPDEST PUSH1 0x2 SLOAD CALLVALUE LT ISZERO PUSH2 0x3D8 JUMPI PUSH1 0x40 MLOAD PUSH32 0x8C379A000000000000000000000000000000000000000000000000000000000 DUP2 MSTORE PUSH1 0x4 ADD PUSH2 0x3CF SWAP1 PUSH2 0x10DD JUMP JUMPDEST PUSH1 0x40 MLOAD DUP1 SWAP2 SUB SWAP1 REVERT JUMPDEST PUSH0 DUP1 PUSH0 CALLER PUSH20 0xFFFFFFFFFFFFFFFFFFFFFFFFFFFFFFFFFFFFFFFF AND PUSH20 0xFFFFFFFFFFFFFFFFFFFFFFFFFFFFFFFFFFFFFFFF AND DUP2 MSTORE PUSH1 0x20 ADD SWAP1 DUP2 MSTORE PUSH1 0x20 ADD PUSH0 KECCAK256 SLOAD SUB PUSH2 0x433 JUMPI PUSH1 0x6 PUSH0 DUP2 SLOAD DUP1 SWAP3 SWAP2 SWAP1 PUSH2 0x42D SWAP1 PUSH2 0x1128 JUMP JUMPDEST SWAP2 SWAP1 POP SSTORE POP JUMPDEST CALLVALUE PUSH0 DUP1 CALLER PUSH20 0xFFFFFFFFFFFFFFFFFFFFFFFFFFFFFFFFFFFFFFFF AND PUSH20 0xFFFFFFFFFFFFFFFFFFFFFFFFFFFFFFFFFFFFFFFF AND DUP2 MSTORE PUSH1 0x20 ADD SWAP1 DUP2 MSTORE PUSH1 0x20 ADD PUSH0 KECCAK256 PUSH0 DUP3 DUP3 SLOAD PUSH2 0x47E SWAP2 SWAP1 PUSH2 0x116F JUMP JUMPDEST SWAP3 POP POP DUP2 SWAP1 SSTORE POP CALLVALUE PUSH1 0x5 PUSH0 DUP3 DUP3 SLOAD PUSH2 0x496 SWAP2 SWAP1 PUSH2 0x116F JUMP JUMPDEST SWAP3 POP POP DUP2 SWAP1 SSTORE POP JUMP JUMPDEST PUSH0 PUSH1 0x20 MSTORE DUP1 PUSH0 MSTORE PUSH1 0x40 PUSH0 KECCAK256 PUSH0 SWAP2 POP SWAP1 POP SLOAD DUP2 JUMP JUMPDEST PUSH1 0x3 SLOAD DUP2 JUMP JUMPDEST PUSH1 0x1 PUSH0 SWAP1 SLOAD SWAP1 PUSH2 0x100 EXP SWAP1 DIV PUSH20 0xFFFFFFFFFFFFFFFFFFFFFFFFFFFFFFFFFFFFFFFF AND PUSH20 0xFFFFFFFFFFFFFFFFFFFFFFFFFFFFFFFFFFFFFFFF AND CALLER PUSH20 0xFFFFFFFFFFFFFFFFFFFFFFFFFFFFFFFFFFFFFFFF AND EQ PUSH2 0x548 JUMPI PUSH1 0x40 MLOAD PUSH32 0x8C379A000000000000000000000000000000000000000000000000000000000 DUP2 MSTORE PUSH1 0x4 ADD PUSH2 0x53F SWAP1 PUSH2 0x1212 JUMP JUMPDEST PUSH1 0x40 MLOAD DUP1 SWAP2 SUB SWAP1 REVERT JUMPDEST PUSH0 PUSH1 0x7 PUSH0 PUSH1 0x8 SLOAD DUP2 MSTORE PUSH1 0x20 ADD SWAP1 DUP2 MSTORE PUSH1 0x20 ADD PUSH0 KECCAK256 SWAP1 POP PUSH1 0x8 PUSH0 DUP2 SLOAD DUP1 SWAP3 SWAP2 SWAP1 PUSH2 0x570 SWAP1 PUSH2 0x1128 JUMP JUMPDEST SWAP2 SWAP1 POP SSTORE POP DUP4 DUP2 PUSH0 ADD SWAP1 DUP2 PUSH2 0x585 SWAP2 SWAP1 PUSH2 0x142A JUMP JUMPDEST POP DUP3 DUP2 PUSH1 0x1 ADD PUSH0 PUSH2 0x100 EXP DUP2 SLOAD DUP2 PUSH20 0xFFFFFFFFFFFFFFFFFFFFFFFFFFFFFFFFFFFFFFFF MUL NOT AND SWAP1 DUP4 PUSH20 0xFFFFFFFFFFFFFFFFFFFFFFFFFFFFFFFFFFFFFFFF AND MUL OR SWAP1 SSTORE POP DUP2 DUP2 PUSH1 0x2 ADD DUP2 SWAP1 SSTORE POP PUSH0 DUP2 PUSH1 0x3 ADD PUSH0 PUSH2 0x100 EXP DUP2 SLOAD DUP2 PUSH1 0xFF MUL NOT AND SWAP1 DUP4 ISZERO ISZERO MUL OR SWAP1 SSTORE POP PUSH0 DUP2 PUSH1 0x4 ADD DUP2 SWAP1 SSTORE POP POP POP POP POP JUMP JUMPDEST PUSH1 0x1 PUSH0 SWAP1 SLOAD SWAP1 PUSH2 0x100 EXP SWAP1 DIV PUSH20 0xFFFFFFFFFFFFFFFFFFFFFFFFFFFFFFFFFFFFFFFF AND DUP2 JUMP JUMPDEST PUSH0 DUP1 PUSH0 CALLER PUSH20 0xFFFFFFFFFFFFFFFFFFFFFFFFFFFFFFFFFFFFFFFF AND PUSH20 0xFFFFFFFFFFFFFFFFFFFFFFFFFFFFFFFFFFFFFFFF AND DUP2 MSTORE PUSH1 0x20 ADD SWAP1 DUP2 MSTORE PUSH1 0x20 ADD PUSH0 KECCAK256 SLOAD GT PUSH2 0x69E JUMPI PUSH1 0x40 MLOAD PUSH32 0x8C379A000000000000000000000000000000000000000000000000000000000 DUP2 MSTORE PUSH1 0x4 ADD PUSH2 0x695 SWAP1 PUSH2 0x1543 JUMP JUMPDEST PUSH1 0x40 MLOAD DUP1 SWAP2 SUB SWAP1 REVERT JUMPDEST PUSH0 PUSH1 0x7 PUSH0 DUP4 DUP2 MSTORE PUSH1 0x20 ADD SWAP1 DUP2 MSTORE PUSH1 0x20 ADD PUSH0 KECCAK256 SWAP1 POP PUSH0 ISZERO ISZERO DUP2 PUSH1 0x5 ADD PUSH0 CALLER PUSH20 0xFFFFFFFFFFFFFFFFFFFFFFFFFFFFFFFFFFFFFFFF AND PUSH20 0xFFFFFFFFFFFFFFFFFFFFFFFFFFFFFFFFFFFFFFFF AND DUP2 MSTORE PUSH1 0x20 ADD SWAP1 DUP2 MSTORE PUSH1 0x20 ADD PUSH0 KECCAK256 PUSH0 SWAP1 SLOAD SWAP1 PUSH2 0x100 EXP SWAP1 DIV PUSH1 0xFF AND ISZERO ISZERO EQ PUSH2 0x743 JUMPI PUSH1 0x40 MLOAD PUSH32 0x8C379A000000000000000000000000000000000000000000000000000000000 DUP2 MSTORE PUSH1 0x4 ADD PUSH2 0x73A SWAP1 PUSH2 0x15AB JUMP JUMPDEST PUSH1 0x40 MLOAD DUP1 SWAP2 SUB SWAP1 REVERT JUMPDEST PUSH1 0x1 DUP2 PUSH1 0x5 ADD PUSH0 CALLER PUSH20 0xFFFFFFFFFFFFFFFFFFFFFFFFFFFFFFFFFFFFFFFF AND PUSH20 0xFFFFFFFFFFFFFFFFFFFFFFFFFFFFFFFFFFFFFFFF AND DUP2 MSTORE PUSH1 0x20 ADD SWAP1 DUP2 MSTORE PUSH1 0x20 ADD PUSH0 KECCAK256 PUSH0 PUSH2 0x100 EXP DUP2 SLOAD DUP2 PUSH1 0xFF MUL NOT AND SWAP1 DUP4 ISZERO ISZERO MUL OR SWAP1 SSTORE POP DUP1 PUSH1 0x4 ADD PUSH0 DUP2 SLOAD DUP1 SWAP3 SWAP2 SWAP1 PUSH2 0x7AE SWAP1 PUSH2 0x1128 JUMP JUMPDEST SWAP2 SWAP1 POP SSTORE POP POP POP JUMP JUMPDEST PUSH1 0x6 SLOAD DUP2 JUMP JUMPDEST PUSH1 0x1 PUSH0 SWAP1 SLOAD SWAP1 PUSH2 0x100 EXP SWAP1 DIV PUSH20 0xFFFFFFFFFFFFFFFFFFFFFFFFFFFFFFFFFFFFFFFF AND PUSH20 0xFFFFFFFFFFFFFFFFFFFFFFFFFFFFFFFFFFFFFFFF AND CALLER PUSH20 0xFFFFFFFFFFFFFFFFFFFFFFFFFFFFFFFFFFFFFFFF AND EQ PUSH2 0x84C JUMPI PUSH1 0x40 MLOAD PUSH32 0x8C379A000000000000000000000000000000000000000000000000000000000 DUP2 MSTORE PUSH1 0x4 ADD PUSH2 0x843 SWAP1 PUSH2 0x1212 JUMP JUMPDEST PUSH1 0x40 MLOAD DUP1 SWAP2 SUB SWAP1 REVERT JUMPDEST PUSH1 0x4 SLOAD PUSH1 0x5 SLOAD LT ISZERO PUSH2 0x85C JUMPI PUSH0 DUP1 REVERT JUMPDEST PUSH0 PUSH1 0x7 PUSH0 DUP4 DUP2 MSTORE PUSH1 0x20 ADD SWAP1 DUP2 MSTORE PUSH1 0x20 ADD PUSH0 KECCAK256 SWAP1 POP PUSH0 ISZERO ISZERO DUP2 PUSH1 0x3 ADD PUSH0 SWAP1 SLOAD SWAP1 PUSH2 0x100 EXP SWAP1 DIV PUSH1 0xFF AND ISZERO ISZERO EQ PUSH2 0x8C6 JUMPI PUSH1 0x40 MLOAD PUSH32 0x8C379A000000000000000000000000000000000000000000000000000000000 DUP2 MSTORE PUSH1 0x4 ADD PUSH2 0x8BD SWAP1 PUSH2 0x1613 JUMP JUMPDEST PUSH1 0x40 MLOAD DUP1 SWAP2 SUB SWAP1 REVERT JUMPDEST PUSH1 0x2 PUSH1 0x6 SLOAD PUSH2 0x8D5 SWAP2 SWAP1 PUSH2 0x165E JUMP JUMPDEST DUP2 PUSH1 0x4 ADD SLOAD GT PUSH2 0x91A JUMPI PUSH1 0x40 MLOAD PUSH32 0x8C379A000000000000000000000000000000000000000000000000000000000 DUP2 MSTORE PUSH1 0x4 ADD PUSH2 0x911 SWAP1 PUSH2 0x16D8 JUMP JUMPDEST PUSH1 0x40 MLOAD DUP1 SWAP2 SUB SWAP1 REVERT JUMPDEST DUP1 PUSH1 0x1 ADD PUSH0 SWAP1 SLOAD SWAP1 PUSH2 0x100 EXP SWAP1 DIV PUSH20 0xFFFFFFFFFFFFFFFFFFFFFFFFFFFFFFFFFFFFFFFF AND PUSH20 0xFFFFFFFFFFFFFFFFFFFFFFFFFFFFFFFFFFFFFFFF AND PUSH2 0x8FC DUP3 PUSH1 0x2 ADD SLOAD SWAP1 DUP2 ISZERO MUL SWAP1 PUSH1 0x40 MLOAD PUSH0 PUSH1 0x40 MLOAD DUP1 DUP4 SUB DUP2 DUP6 DUP9 DUP9 CALL SWAP4 POP POP POP POP ISZERO DUP1 ISZERO PUSH2 0x984 JUMPI RETURNDATASIZE PUSH0 DUP1 RETURNDATACOPY RETURNDATASIZE PUSH0 REVERT JUMPDEST POP PUSH1 0x1 DUP2 PUSH1 0x3 ADD PUSH0 PUSH2 0x100 EXP DUP2 SLOAD DUP2 PUSH1 0xFF MUL NOT AND SWAP1 DUP4 ISZERO ISZERO MUL OR SWAP1 SSTORE POP POP POP JUMP JUMPDEST PUSH1 0x3 SLOAD TIMESTAMP GT DUP1 ISZERO PUSH2 0x9B9 JUMPI POP PUSH1 0x4 SLOAD PUSH1 0x5 SLOAD LT JUMPDEST PUSH2 0x9F8 JUMPI PUSH1 0x40 MLOAD PUSH32 0x8C379A000000000000000000000000000000000000000000000000000000000 DUP2 MSTORE PUSH1 0x4 ADD PUSH2 0x9EF SWAP1 PUSH2 0x1740 JUMP JUMPDEST PUSH1 0x40 MLOAD DUP1 SWAP2 SUB SWAP1 REVERT JUMPDEST PUSH0 DUP1 PUSH0 CALLER PUSH20 0xFFFFFFFFFFFFFFFFFFFFFFFFFFFFFFFFFFFFFFFF AND PUSH20 0xFFFFFFFFFFFFFFFFFFFFFFFFFFFFFFFFFFFFFFFF AND DUP2 MSTORE PUSH1 0x20 ADD SWAP1 DUP2 MSTORE PUSH1 0x20 ADD PUSH0 KECCAK256 SLOAD GT PUSH2 0xA3F JUMPI PUSH0 DUP1 REVERT JUMPDEST PUSH0 CALLER SWAP1 POP DUP1 PUSH20 0xFFFFFFFFFFFFFFFFFFFFFFFFFFFFFFFFFFFFFFFF AND PUSH2 0x8FC PUSH0 DUP1 CALLER PUSH20 0xFFFFFFFFFFFFFFFFFFFFFFFFFFFFFFFFFFFFFFFF AND PUSH20 0xFFFFFFFFFFFFFFFFFFFFFFFFFFFFFFFFFFFFFFFF AND DUP2 MSTORE PUSH1 0x20 ADD SWAP1 DUP2 MSTORE PUSH1 0x20 ADD PUSH0 KECCAK256 SLOAD SWAP1 DUP2 ISZERO MUL SWAP1 PUSH1 0x40 MLOAD PUSH0 PUSH1 0x40 MLOAD DUP1 DUP4 SUB DUP2 DUP6 DUP9 DUP9 CALL SWAP4 POP POP POP POP ISZERO DUP1 ISZERO PUSH2 0xAC2 JUMPI RETURNDATASIZE PUSH0 DUP1 RETURNDATACOPY RETURNDATASIZE PUSH0 REVERT JUMPDEST POP PUSH0 DUP1 PUSH0 CALLER PUSH20 0xFFFFFFFFFFFFFFFFFFFFFFFFFFFFFFFFFFFFFFFF AND PUSH20 0xFFFFFFFFFFFFFFFFFFFFFFFFFFFFFFFFFFFFFFFF AND DUP2 MSTORE PUSH1 0x20 ADD SWAP1 DUP2 MSTORE PUSH1 0x20 ADD PUSH0 KECCAK256 DUP2 SWAP1 SSTORE POP POP JUMP JUMPDEST PUSH0 SELFBALANCE SWAP1 POP SWAP1 JUMP JUMPDEST PUSH1 0x7 PUSH1 0x20 MSTORE DUP1 PUSH0 MSTORE PUSH1 0x40 PUSH0 KECCAK256 PUSH0 SWAP2 POP SWAP1 POP DUP1 PUSH0 ADD DUP1 SLOAD PUSH2 0xB2D SWAP1 PUSH2 0x125D JUMP JUMPDEST DUP1 PUSH1 0x1F ADD PUSH1 0x20 DUP1 SWAP2 DIV MUL PUSH1 0x20 ADD PUSH1 0x40 MLOAD SWAP1 DUP2 ADD PUSH1 0x40 MSTORE DUP1 SWAP3 SWAP2 SWAP1 DUP2 DUP2 MSTORE PUSH1 0x20 ADD DUP3 DUP1 SLOAD PUSH2 0xB59 SWAP1 PUSH2 0x125D JUMP JUMPDEST DUP1 ISZERO PUSH2 0xBA4 JUMPI DUP1 PUSH1 0x1F LT PUSH2 0xB7B JUMPI PUSH2 0x100 DUP1 DUP4 SLOAD DIV MUL DUP4 MSTORE SWAP2 PUSH1 0x20 ADD SWAP2 PUSH2 0xBA4 JUMP JUMPDEST DUP3 ADD SWAP2 SWAP1 PUSH0 MSTORE PUSH1 0x20 PUSH0 KECCAK256 SWAP1 JUMPDEST DUP2 SLOAD DUP2 MSTORE SWAP1 PUSH1 0x1 ADD SWAP1 PUSH1 0x20 ADD DUP1 DUP4 GT PUSH2 0xB87 JUMPI DUP3 SWAP1 SUB PUSH1 0x1F AND DUP3 ADD SWAP2 JUMPDEST POP POP POP POP POP SWAP1 DUP1 PUSH1 0x1 ADD PUSH0 SWAP1 SLOAD SWAP1 PUSH2 0x100 EXP SWAP1 DIV PUSH20 0xFFFFFFFFFFFFFFFFFFFFFFFFFFFFFFFFFFFFFFFF AND SWAP1 DUP1 PUSH1 0x2 ADD SLOAD SWAP1 DUP1 PUSH1 0x3 ADD PUSH0 SWAP1 SLOAD SWAP1 PUSH2 0x100 EXP SWAP1 DIV PUSH1 0xFF AND SWAP1 DUP1 PUSH1 0x4 ADD SLOAD SWAP1 POP DUP6 JUMP JUMPDEST PUSH1 0x2 SLOAD DUP2 JUMP JUMPDEST PUSH1 0x8 SLOAD DUP2 JUMP JUMPDEST PUSH1 0x5 SLOAD DUP2 JUMP JUMPDEST PUSH1 0x4 SLOAD DUP2 JUMP JUMPDEST PUSH0 PUSH1 0x40 MLOAD SWAP1 POP SWAP1 JUMP JUMPDEST PUSH0 DUP1 REVERT JUMPDEST PUSH0 DUP1 REVERT JUMPDEST PUSH0 PUSH20 0xFFFFFFFFFFFFFFFFFFFFFFFFFFFFFFFFFFFFFFFF DUP3 AND SWAP1 POP SWAP2 SWAP1 POP JUMP JUMPDEST PUSH0 PUSH2 0xC43 DUP3 PUSH2 0xC1A JUMP JUMPDEST SWAP1 POP SWAP2 SWAP1 POP JUMP JUMPDEST PUSH2 0xC53 DUP2 PUSH2 0xC39 JUMP JUMPDEST DUP2 EQ PUSH2 0xC5D JUMPI PUSH0 DUP1 REVERT JUMPDEST POP JUMP JUMPDEST PUSH0 DUP2 CALLDATALOAD SWAP1 POP PUSH2 0xC6E DUP2 PUSH2 0xC4A JUMP JUMPDEST SWAP3 SWAP2 POP POP JUMP JUMPDEST PUSH0 PUSH1 0x20 DUP3 DUP5 SUB SLT ISZERO PUSH2 0xC89 JUMPI PUSH2 0xC88 PUSH2 0xC12 JUMP JUMPDEST JUMPDEST PUSH0 PUSH2 0xC96 DUP5 DUP3 DUP6 ADD PUSH2 0xC60 JUMP JUMPDEST SWAP2 POP POP SWAP3 SWAP2 POP POP JUMP JUMPDEST PUSH0 DUP2 SWAP1 POP SWAP2 SWAP1 POP JUMP JUMPDEST PUSH2 0xCB1 DUP2 PUSH2 0xC9F JUMP JUMPDEST DUP3 MSTORE POP POP JUMP JUMPDEST PUSH0 PUSH1 0x20 DUP3 ADD SWAP1 POP PUSH2 0xCCA PUSH0 DUP4 ADD DUP5 PUSH2 0xCA8 JUMP JUMPDEST SWAP3 SWAP2 POP POP JUMP JUMPDEST PUSH0 DUP1 REVERT JUMPDEST PUSH0 DUP1 REVERT JUMPDEST PUSH0 PUSH1 0x1F NOT PUSH1 0x1F DUP4 ADD AND SWAP1 POP SWAP2 SWAP1 POP JUMP JUMPDEST PUSH32 0x4E487B7100000000000000000000000000000000000000000000000000000000 PUSH0 MSTORE PUSH1 0x41 PUSH1 0x4 MSTORE PUSH1 0x24 PUSH0 REVERT JUMPDEST PUSH2 0xD1E DUP3 PUSH2 0xCD8 JUMP JUMPDEST DUP2 ADD DUP2 DUP2 LT PUSH8 0xFFFFFFFFFFFFFFFF DUP3 GT OR ISZERO PUSH2 0xD3D JUMPI PUSH2 0xD3C PUSH2 0xCE8 JUMP JUMPDEST JUMPDEST DUP1 PUSH1 0x40 MSTORE POP POP POP JUMP JUMPDEST PUSH0 PUSH2 0xD4F PUSH2 0xC09 JUMP JUMPDEST SWAP1 POP PUSH2 0xD5B DUP3 DUP3 PUSH2 0xD15 JUMP JUMPDEST SWAP2 SWAP1 POP JUMP JUMPDEST PUSH0 PUSH8 0xFFFFFFFFFFFFFFFF DUP3 GT ISZERO PUSH2 0xD7A JUMPI PUSH2 0xD79 PUSH2 0xCE8 JUMP JUMPDEST JUMPDEST PUSH2 0xD83 DUP3 PUSH2 0xCD8 JUMP JUMPDEST SWAP1 POP PUSH1 0x20 DUP2 ADD SWAP1 POP SWAP2 SWAP1 POP JUMP JUMPDEST DUP3 DUP2 DUP4 CALLDATACOPY PUSH0 DUP4 DUP4 ADD MSTORE POP POP POP JUMP JUMPDEST PUSH0 PUSH2 0xDB0 PUSH2 0xDAB DUP5 PUSH2 0xD60 JUMP JUMPDEST PUSH2 0xD46 JUMP JUMPDEST SWAP1 POP DUP3 DUP2 MSTORE PUSH1 0x20 DUP2 ADD DUP5 DUP5 DUP5 ADD GT ISZERO PUSH2 0xDCC JUMPI PUSH2 0xDCB PUSH2 0xCD4 JUMP JUMPDEST JUMPDEST PUSH2 0xDD7 DUP5 DUP3 DUP6 PUSH2 0xD90 JUMP JUMPDEST POP SWAP4 SWAP3 POP POP POP JUMP JUMPDEST PUSH0 DUP3 PUSH1 0x1F DUP4 ADD SLT PUSH2 0xDF3 JUMPI PUSH2 0xDF2 PUSH2 0xCD0 JUMP JUMPDEST JUMPDEST DUP2 CALLDATALOAD PUSH2 0xE03 DUP5 DUP3 PUSH1 0x20 DUP7 ADD PUSH2 0xD9E JUMP JUMPDEST SWAP2 POP POP SWAP3 SWAP2 POP POP JUMP JUMPDEST PUSH0 PUSH2 0xE16 DUP3 PUSH2 0xC1A JUMP JUMPDEST SWAP1 POP SWAP2 SWAP1 POP JUMP JUMPDEST PUSH2 0xE26 DUP2 PUSH2 0xE0C JUMP JUMPDEST DUP2 EQ PUSH2 0xE30 JUMPI PUSH0 DUP1 REVERT JUMPDEST POP JUMP JUMPDEST PUSH0 DUP2 CALLDATALOAD SWAP1 POP PUSH2 0xE41 DUP2 PUSH2 0xE1D JUMP JUMPDEST SWAP3 SWAP2 POP POP JUMP JUMPDEST PUSH2 0xE50 DUP2 PUSH2 0xC9F JUMP JUMPDEST DUP2 EQ PUSH2 0xE5A JUMPI PUSH0 DUP1 REVERT JUMPDEST POP JUMP JUMPDEST PUSH0 DUP2 CALLDATALOAD SWAP1 POP PUSH2 0xE6B DUP2 PUSH2 0xE47 JUMP JUMPDEST SWAP3 SWAP2 POP POP JUMP JUMPDEST PUSH0 DUP1 PUSH0 PUSH1 0x60 DUP5 DUP7 SUB SLT ISZERO PUSH2 0xE88 JUMPI PUSH2 0xE87 PUSH2 0xC12 JUMP JUMPDEST JUMPDEST PUSH0 DUP5 ADD CALLDATALOAD PUSH8 0xFFFFFFFFFFFFFFFF DUP2 GT ISZERO PUSH2 0xEA5 JUMPI PUSH2 0xEA4 PUSH2 0xC16 JUMP JUMPDEST JUMPDEST PUSH2 0xEB1 DUP7 DUP3 DUP8 ADD PUSH2 0xDDF JUMP JUMPDEST SWAP4 POP POP PUSH1 0x20 PUSH2 0xEC2 DUP7 DUP3 DUP8 ADD PUSH2 0xE33 JUMP JUMPDEST SWAP3 POP POP PUSH1 0x40 PUSH2 0xED3 DUP7 DUP3 DUP8 ADD PUSH2 0xE5D JUMP JUMPDEST SWAP2 POP POP SWAP3 POP SWAP3 POP SWAP3 JUMP JUMPDEST PUSH2 0xEE6 DUP2 PUSH2 0xC39 JUMP JUMPDEST DUP3 MSTORE POP POP JUMP JUMPDEST PUSH0 PUSH1 0x20 DUP3 ADD SWAP1 POP PUSH2 0xEFF PUSH0 DUP4 ADD DUP5 PUSH2 0xEDD JUMP JUMPDEST SWAP3 SWAP2 POP POP JUMP JUMPDEST PUSH0 PUSH1 0x20 DUP3 DUP5 SUB SLT ISZERO PUSH2 0xF1A JUMPI PUSH2 0xF19 PUSH2 0xC12 JUMP JUMPDEST JUMPDEST PUSH0 PUSH2 0xF27 DUP5 DUP3 DUP6 ADD PUSH2 0xE5D JUMP JUMPDEST SWAP2 POP POP SWAP3 SWAP2 POP POP JUMP JUMPDEST PUSH0 DUP2 MLOAD SWAP1 POP SWAP2 SWAP1 POP JUMP JUMPDEST PUSH0 DUP3 DUP3 MSTORE PUSH1 0x20 DUP3 ADD SWAP1 POP SWAP3 SWAP2 POP POP JUMP JUMPDEST PUSH0 JUMPDEST DUP4 DUP2 LT ISZERO PUSH2 0xF67 JUMPI DUP1 DUP3 ADD MLOAD DUP2 DUP5 ADD MSTORE PUSH1 0x20 DUP2 ADD SWAP1 POP PUSH2 0xF4C JUMP JUMPDEST PUSH0 DUP5 DUP5 ADD MSTORE POP POP POP POP JUMP JUMPDEST PUSH0 PUSH2 0xF7C DUP3 PUSH2 0xF30 JUMP JUMPDEST PUSH2 0xF86 DUP2 DUP6 PUSH2 0xF3A JUMP JUMPDEST SWAP4 POP PUSH2 0xF96 DUP2 DUP6 PUSH1 0x20 DUP7 ADD PUSH2 0xF4A JUMP JUMPDEST PUSH2 0xF9F DUP2 PUSH2 0xCD8 JUMP JUMPDEST DUP5 ADD SWAP2 POP POP SWAP3 SWAP2 POP POP JUMP JUMPDEST PUSH2 0xFB3 DUP2 PUSH2 0xE0C JUMP JUMPDEST DUP3 MSTORE POP POP JUMP JUMPDEST PUSH0 DUP2 ISZERO ISZERO SWAP1 POP SWAP2 SWAP1 POP JUMP JUMPDEST PUSH2 0xFCD DUP2 PUSH2 0xFB9 JUMP JUMPDEST DUP3 MSTORE POP POP JUMP JUMPDEST PUSH0 PUSH1 0xA0 DUP3 ADD SWAP1 POP DUP2 DUP2 SUB PUSH0 DUP4 ADD MSTORE PUSH2 0xFEB DUP2 DUP9 PUSH2 0xF72 JUMP JUMPDEST SWAP1 POP PUSH2 0xFFA PUSH1 0x20 DUP4 ADD DUP8 PUSH2 0xFAA JUMP JUMPDEST PUSH2 0x1007 PUSH1 0x40 DUP4 ADD DUP7 PUSH2 0xCA8 JUMP JUMPDEST PUSH2 0x1014 PUSH1 0x60 DUP4 ADD DUP6 PUSH2 0xFC4 JUMP JUMPDEST PUSH2 0x1021 PUSH1 0x80 DUP4 ADD DUP5 PUSH2 0xCA8 JUMP JUMPDEST SWAP7 SWAP6 POP POP POP POP POP POP JUMP JUMPDEST PUSH32 0x446561646C696E65206861732070617373656400000000000000000000000000 PUSH0 DUP3 ADD MSTORE POP JUMP JUMPDEST PUSH0 PUSH2 0x105F PUSH1 0x13 DUP4 PUSH2 0xF3A JUMP JUMPDEST SWAP2 POP PUSH2 0x106A DUP3 PUSH2 0x102B JUMP JUMPDEST PUSH1 0x20 DUP3 ADD SWAP1 POP SWAP2 SWAP1 POP JUMP JUMPDEST PUSH0 PUSH1 0x20 DUP3 ADD SWAP1 POP DUP2 DUP2 SUB PUSH0 DUP4 ADD MSTORE PUSH2 0x108C DUP2 PUSH2 0x1053 JUMP JUMPDEST SWAP1 POP SWAP2 SWAP1 POP JUMP JUMPDEST PUSH32 0x4D696E696D756D20436F6E747269627574696F6E206973206E6F74206D657400 PUSH0 DUP3 ADD MSTORE POP JUMP JUMPDEST PUSH0 PUSH2 0x10C7 PUSH1 0x1F DUP4 PUSH2 0xF3A JUMP JUMPDEST SWAP2 POP PUSH2 0x10D2 DUP3 PUSH2 0x1093 JUMP JUMPDEST PUSH1 0x20 DUP3 ADD SWAP1 POP SWAP2 SWAP1 POP JUMP JUMPDEST PUSH0 PUSH1 0x20 DUP3 ADD SWAP1 POP DUP2 DUP2 SUB PUSH0 DUP4 ADD MSTORE PUSH2 0x10F4 DUP2 PUSH2 0x10BB JUMP JUMPDEST SWAP1 POP SWAP2 SWAP1 POP JUMP JUMPDEST PUSH32 0x4E487B7100000000000000000000000000000000000000000000000000000000 PUSH0 MSTORE PUSH1 0x11 PUSH1 0x4 MSTORE PUSH1 0x24 PUSH0 REVERT JUMPDEST PUSH0 PUSH2 0x1132 DUP3 PUSH2 0xC9F JUMP JUMPDEST SWAP2 POP PUSH32 0xFFFFFFFFFFFFFFFFFFFFFFFFFFFFFFFFFFFFFFFFFFFFFFFFFFFFFFFFFFFFFFFF DUP3 SUB PUSH2 0x1164 JUMPI PUSH2 0x1163 PUSH2 0x10FB JUMP JUMPDEST JUMPDEST PUSH1 0x1 DUP3 ADD SWAP1 POP SWAP2 SWAP1 POP JUMP JUMPDEST PUSH0 PUSH2 0x1179 DUP3 PUSH2 0xC9F JUMP JUMPDEST SWAP2 POP PUSH2 0x1184 DUP4 PUSH2 0xC9F JUMP JUMPDEST SWAP3 POP DUP3 DUP3 ADD SWAP1 POP DUP1 DUP3 GT ISZERO PUSH2 0x119C JUMPI PUSH2 0x119B PUSH2 0x10FB JUMP JUMPDEST JUMPDEST SWAP3 SWAP2 POP POP JUMP JUMPDEST PUSH32 0x4F6E6C79206D616E616765722063616E2063616C6C6C20746869732066756E63 PUSH0 DUP3 ADD MSTORE PUSH32 0x74696F6E00000000000000000000000000000000000000000000000000000000 PUSH1 0x20 DUP3 ADD MSTORE POP JUMP JUMPDEST PUSH0 PUSH2 0x11FC PUSH1 0x24 DUP4 PUSH2 0xF3A JUMP JUMPDEST SWAP2 POP PUSH2 0x1207 DUP3 PUSH2 0x11A2 JUMP JUMPDEST PUSH1 0x40 DUP3 ADD SWAP1 POP SWAP2 SWAP1 POP JUMP JUMPDEST PUSH0 PUSH1 0x20 DUP3 ADD SWAP1 POP DUP2 DUP2 SUB PUSH0 DUP4 ADD MSTORE PUSH2 0x1229 DUP2 PUSH2 0x11F0 JUMP JUMPDEST SWAP1 POP SWAP2 SWAP1 POP JUMP JUMPDEST PUSH32 0x4E487B7100000000000000000000000000000000000000000000000000000000 PUSH0 MSTORE PUSH1 0x22 PUSH1 0x4 MSTORE PUSH1 0x24 PUSH0 REVERT JUMPDEST PUSH0 PUSH1 0x2 DUP3 DIV SWAP1 POP PUSH1 0x1 DUP3 AND DUP1 PUSH2 0x1274 JUMPI PUSH1 0x7F DUP3 AND SWAP2 POP JUMPDEST PUSH1 0x20 DUP3 LT DUP2 SUB PUSH2 0x1287 JUMPI PUSH2 0x1286 PUSH2 0x1230 JUMP JUMPDEST JUMPDEST POP SWAP2 SWAP1 POP JUMP JUMPDEST PUSH0 DUP2 SWAP1 POP DUP2 PUSH0 MSTORE PUSH1 0x20 PUSH0 KECCAK256 SWAP1 POP SWAP2 SWAP1 POP JUMP JUMPDEST PUSH0 PUSH1 0x20 PUSH1 0x1F DUP4 ADD DIV SWAP1 POP SWAP2 SWAP1 POP JUMP JUMPDEST PUSH0 DUP3 DUP3 SHL SWAP1 POP SWAP3 SWAP2 POP POP JUMP JUMPDEST PUSH0 PUSH1 0x8 DUP4 MUL PUSH2 0x12E9 PUSH32 0xFFFFFFFFFFFFFFFFFFFFFFFFFFFFFFFFFFFFFFFFFFFFFFFFFFFFFFFFFFFFFFFF DUP3 PUSH2 0x12AE JUMP JUMPDEST PUSH2 0x12F3 DUP7 DUP4 PUSH2 0x12AE JUMP JUMPDEST SWAP6 POP DUP1 NOT DUP5 AND SWAP4 POP DUP1 DUP7 AND DUP5 OR SWAP3 POP POP POP SWAP4 SWAP3 POP POP POP JUMP JUMPDEST PUSH0 DUP2 SWAP1 POP SWAP2 SWAP1 POP JUMP JUMPDEST PUSH0 PUSH2 0x132E PUSH2 0x1329 PUSH2 0x1324 DUP5 PUSH2 0xC9F JUMP JUMPDEST PUSH2 0x130B JUMP JUMPDEST PUSH2 0xC9F JUMP JUMPDEST SWAP1 POP SWAP2 SWAP1 POP JUMP JUMPDEST PUSH0 DUP2 SWAP1 POP SWAP2 SWAP1 POP JUMP JUMPDEST PUSH2 0x1347 DUP4 PUSH2 0x1314 JUMP JUMPDEST PUSH2 0x135B PUSH2 0x1353 DUP3 PUSH2 0x1335 JUMP JUMPDEST DUP5 DUP5 SLOAD PUSH2 0x12BA JUMP JUMPDEST DUP3 SSTORE POP POP POP POP JUMP JUMPDEST PUSH0 SWAP1 JUMP JUMPDEST PUSH2 0x136F PUSH2 0x1363 JUMP JUMPDEST PUSH2 0x137A DUP2 DUP5 DUP5 PUSH2 0x133E JUMP JUMPDEST POP POP POP JUMP JUMPDEST JUMPDEST DUP2 DUP2 LT ISZERO PUSH2 0x139D JUMPI PUSH2 0x1392 PUSH0 DUP3 PUSH2 0x1367 JUMP JUMPDEST PUSH1 0x1 DUP2 ADD SWAP1 POP PUSH2 0x1380 JUMP JUMPDEST POP POP JUMP JUMPDEST PUSH1 0x1F DUP3 GT ISZERO PUSH2 0x13E2 JUMPI PUSH2 0x13B3 DUP2 PUSH2 0x128D JUMP JUMPDEST PUSH2 0x13BC DUP5 PUSH2 0x129F JUMP JUMPDEST DUP2 ADD PUSH1 0x20 DUP6 LT ISZERO PUSH2 0x13CB JUMPI DUP2 SWAP1 POP JUMPDEST PUSH2 0x13DF PUSH2 0x13D7 DUP6 PUSH2 0x129F JUMP JUMPDEST DUP4 ADD DUP3 PUSH2 0x137F JUMP JUMPDEST POP POP JUMPDEST POP POP POP JUMP JUMPDEST PUSH0 DUP3 DUP3 SHR SWAP1 POP SWAP3 SWAP2 POP POP JUMP JUMPDEST PUSH0 PUSH2 0x1402 PUSH0 NOT DUP5 PUSH1 0x8 MUL PUSH2 0x13E7 JUMP JUMPDEST NOT DUP1 DUP4 AND SWAP2 POP POP SWAP3 SWAP2 POP POP JUMP JUMPDEST PUSH0 PUSH2 0x141A DUP4 DUP4 PUSH2 0x13F3 JUMP JUMPDEST SWAP2 POP DUP3 PUSH1 0x2 MUL DUP3 OR SWAP1 POP SWAP3 SWAP2 POP POP JUMP JUMPDEST PUSH2 0x1433 DUP3 PUSH2 0xF30 JUMP JUMPDEST PUSH8 0xFFFFFFFFFFFFFFFF DUP2 GT ISZERO PUSH2 0x144C JUMPI PUSH2 0x144B PUSH2 0xCE8 JUMP JUMPDEST JUMPDEST PUSH2 0x1456 DUP3 SLOAD PUSH2 0x125D JUMP JUMPDEST PUSH2 0x1461 DUP3 DUP3 DUP6 PUSH2 0x13A1 JUMP JUMPDEST PUSH0 PUSH1 0x20 SWAP1 POP PUSH1 0x1F DUP4 GT PUSH1 0x1 DUP2 EQ PUSH2 0x1492 JUMPI PUSH0 DUP5 ISZERO PUSH2 0x1480 JUMPI DUP3 DUP8 ADD MLOAD SWAP1 POP JUMPDEST PUSH2 0x148A DUP6 DUP3 PUSH2 0x140F JUMP JUMPDEST DUP7 SSTORE POP PUSH2 0x14F1 JUMP JUMPDEST PUSH1 0x1F NOT DUP5 AND PUSH2 0x14A0 DUP7 PUSH2 0x128D JUMP JUMPDEST PUSH0 JUMPDEST DUP3 DUP2 LT ISZERO PUSH2 0x14C7 JUMPI DUP5 DUP10 ADD MLOAD DUP3 SSTORE PUSH1 0x1 DUP3 ADD SWAP2 POP PUSH1 0x20 DUP6 ADD SWAP5 POP PUSH1 0x20 DUP2 ADD SWAP1 POP PUSH2 0x14A2 JUMP JUMPDEST DUP7 DUP4 LT ISZERO PUSH2 0x14E4 JUMPI DUP5 DUP10 ADD MLOAD PUSH2 0x14E0 PUSH1 0x1F DUP10 AND DUP3 PUSH2 0x13F3 JUMP JUMPDEST DUP4 SSTORE POP JUMPDEST PUSH1 0x1 PUSH1 0x2 DUP9 MUL ADD DUP9 SSTORE POP POP POP JUMPDEST POP POP POP POP POP POP JUMP JUMPDEST PUSH32 0x594F75206D75737420626520636F6E7472696275746F72000000000000000000 PUSH0 DUP3 ADD MSTORE POP JUMP JUMPDEST PUSH0 PUSH2 0x152D PUSH1 0x17 DUP4 PUSH2 0xF3A JUMP JUMPDEST SWAP2 POP PUSH2 0x1538 DUP3 PUSH2 0x14F9 JUMP JUMPDEST PUSH1 0x20 DUP3 ADD SWAP1 POP SWAP2 SWAP1 POP JUMP JUMPDEST PUSH0 PUSH1 0x20 DUP3 ADD SWAP1 POP DUP2 DUP2 SUB PUSH0 DUP4 ADD MSTORE PUSH2 0x155A DUP2 PUSH2 0x1521 JUMP JUMPDEST SWAP1 POP SWAP2 SWAP1 POP JUMP JUMPDEST PUSH32 0x596F75206861766520616C726561647920766F74656400000000000000000000 PUSH0 DUP3 ADD MSTORE POP JUMP JUMPDEST PUSH0 PUSH2 0x1595 PUSH1 0x16 DUP4 PUSH2 0xF3A JUMP JUMPDEST SWAP2 POP PUSH2 0x15A0 DUP3 PUSH2 0x1561 JUMP JUMPDEST PUSH1 0x20 DUP3 ADD SWAP1 POP SWAP2 SWAP1 POP JUMP JUMPDEST PUSH0 PUSH1 0x20 DUP3 ADD SWAP1 POP DUP2 DUP2 SUB PUSH0 DUP4 ADD MSTORE PUSH2 0x15C2 DUP2 PUSH2 0x1589 JUMP JUMPDEST SWAP1 POP SWAP2 SWAP1 POP JUMP JUMPDEST PUSH32 0x546865207265717565737420686173206265656E20636F6D706C657465640000 PUSH0 DUP3 ADD MSTORE POP JUMP JUMPDEST PUSH0 PUSH2 0x15FD PUSH1 0x1E DUP4 PUSH2 0xF3A JUMP JUMPDEST SWAP2 POP PUSH2 0x1608 DUP3 PUSH2 0x15C9 JUMP JUMPDEST PUSH1 0x20 DUP3 ADD SWAP1 POP SWAP2 SWAP1 POP JUMP JUMPDEST PUSH0 PUSH1 0x20 DUP3 ADD SWAP1 POP DUP2 DUP2 SUB PUSH0 DUP4 ADD MSTORE PUSH2 0x162A DUP2 PUSH2 0x15F1 JUMP JUMPDEST SWAP1 POP SWAP2 SWAP1 POP JUMP JUMPDEST PUSH32 0x4E487B7100000000000000000000000000000000000000000000000000000000 PUSH0 MSTORE PUSH1 0x12 PUSH1 0x4 MSTORE PUSH1 0x24 PUSH0 REVERT JUMPDEST PUSH0 PUSH2 0x1668 DUP3 PUSH2 0xC9F JUMP JUMPDEST SWAP2 POP PUSH2 0x1673 DUP4 PUSH2 0xC9F JUMP JUMPDEST SWAP3 POP DUP3 PUSH2 0x1683 JUMPI PUSH2 0x1682 PUSH2 0x1631 JUMP JUMPDEST JUMPDEST DUP3 DUP3 DIV SWAP1 POP SWAP3 SWAP2 POP POP JUMP JUMPDEST PUSH32 0x4D616A6F7269747920646F6573206E6F7420737570706F727400000000000000 PUSH0 DUP3 ADD MSTORE POP JUMP JUMPDEST PUSH0 PUSH2 0x16C2 PUSH1 0x19 DUP4 PUSH2 0xF3A JUMP JUMPDEST SWAP2 POP PUSH2 0x16CD DUP3 PUSH2 0x168E JUMP JUMPDEST PUSH1 0x20 DUP3 ADD SWAP1 POP SWAP2 SWAP1 POP JUMP JUMPDEST PUSH0 PUSH1 0x20 DUP3 ADD SWAP1 POP DUP2 DUP2 SUB PUSH0 DUP4 ADD MSTORE PUSH2 0x16EF DUP2 PUSH2 0x16B6 JUMP JUMPDEST SWAP1 POP SWAP2 SWAP1 POP JUMP JUMPDEST PUSH32 0x596F7520617265206E6F7420656C696769626C6520666F7220726566756E6400 PUSH0 DUP3 ADD MSTORE POP JUMP JUMPDEST PUSH0 PUSH2 0x172A PUSH1 0x1F DUP4 PUSH2 0xF3A JUMP JUMPDEST SWAP2 POP PUSH2 0x1735 DUP3 PUSH2 0x16F6 JUMP JUMPDEST PUSH1 0x20 DUP3 ADD SWAP1 POP SWAP2 SWAP1 POP JUMP JUMPDEST PUSH0 PUSH1 0x20 DUP3 ADD SWAP1 POP DUP2 DUP2 SUB PUSH0 DUP4 ADD MSTORE PUSH2 0x1757 DUP2 PUSH2 0x171E JUMP JUMPDEST SWAP1 POP SWAP2 SWAP1 POP JUMP INVALID LOG2 PUSH5 0x6970667358 0x22 SLT KECCAK256 DUP13 PC 0x22 0xCD DUP7 DIV 0xBA 0xEB SWAP16 0xD7 0xAE PUSH30 0x41A563179C27E5EE2AA9BBA6552B901D60AA43D464736F6C634300081600 CALLER "
				},
				"gasEstimates": {
					"creation": {
						"codeDepositCost": "1207200",
						"executionCost": "infinite",
						"totalCost": "infinite"
					},
					"external": {
						"contributors(address)": "2847",
						"createRequests(string,address,uint256)": "infinite",
						"deadline()": "2493",
						"getContractBalance()": "401",
						"makePayment(uint256)": "infinite",
						"manager()": "2553",
						"minimumContribution()": "2447",
						"noOfContributors()": "2514",
						"numRequests()": "2469",
						"raisedAmount()": "2491",
						"refund()": "infinite",
						"requests(uint256)": "infinite",
						"sendEth()": "infinite",
						"target()": "2513",
						"voteRequest(uint256)": "infinite"
					}
				},
				"methodIdentifiers": {
					"contributors(address)": "1f6d4942",
					"createRequests(string,address,uint256)": "3eb7647b",
					"deadline()": "29dcb0cf",
					"getContractBalance()": "6f9fb98a",
					"makePayment(uint256)": "5114cb52",
					"manager()": "481c6a75",
					"minimumContribution()": "937e09b1",
					"noOfContributors()": "4e260f6f",
					"numRequests()": "9fb42b1f",
					"raisedAmount()": "c59ee1dc",
					"refund()": "590e1ae3",
					"requests(uint256)": "81d12c58",
					"sendEth()": "06e99fef",
					"target()": "d4b83992",
					"voteRequest(uint256)": "4cb6f4a5"
				}
			},
			"storageLayout": {
				"storage": [
					{
						"astId": 5,
						"contract": "CrowdFunding.sol:CrowdFunding",
						"label": "contributors",
						"offset": 0,
						"slot": "0",
						"type": "t_mapping(t_address,t_uint256)"
					},
					{
						"astId": 7,
						"contract": "CrowdFunding.sol:CrowdFunding",
						"label": "manager",
						"offset": 0,
						"slot": "1",
						"type": "t_address"
					},
					{
						"astId": 9,
						"contract": "CrowdFunding.sol:CrowdFunding",
						"label": "minimumContribution",
						"offset": 0,
						"slot": "2",
						"type": "t_uint256"
					},
					{
						"astId": 11,
						"contract": "CrowdFunding.sol:CrowdFunding",
						"label": "deadline",
						"offset": 0,
						"slot": "3",
						"type": "t_uint256"
					},
					{
						"astId": 13,
						"contract": "CrowdFunding.sol:CrowdFunding",
						"label": "target",
						"offset": 0,
						"slot": "4",
						"type": "t_uint256"
					},
					{
						"astId": 15,
						"contract": "CrowdFunding.sol:CrowdFunding",
						"label": "raisedAmount",
						"offset": 0,
						"slot": "5",
						"type": "t_uint256"
					},
					{
						"astId": 17,
						"contract": "CrowdFunding.sol:CrowdFunding",
						"label": "noOfContributors",
						"offset": 0,
						"slot": "6",
						"type": "t_uint256"
					},
					{
						"astId": 37,
						"contract": "CrowdFunding.sol:CrowdFunding",
						"label": "requests",
						"offset": 0,
						"slot": "7",
						"type": "t_mapping(t_uint256,t_struct(Request)32_storage)"
					},
					{
						"astId": 39,
						"contract": "CrowdFunding.sol:CrowdFunding",
						"label": "numRequests",
						"offset": 0,
						"slot": "8",
						"type": "t_uint256"
					}
				],
				"types": {
					"t_address": {
						"encoding": "inplace",
						"label": "address",
						"numberOfBytes": "20"
					},
					"t_address_payable": {
						"encoding": "inplace",
						"label": "address payable",
						"numberOfBytes": "20"
					},
					"t_bool": {
						"encoding": "inplace",
						"label": "bool",
						"numberOfBytes": "1"
					},
					"t_mapping(t_address,t_bool)": {
						"encoding": "mapping",
						"key": "t_address",
						"label": "mapping(address => bool)",
						"numberOfBytes": "32",
						"value": "t_bool"
					},
					"t_mapping(t_address,t_uint256)": {
						"encoding": "mapping",
						"key": "t_address",
						"label": "mapping(address => uint256)",
						"numberOfBytes": "32",
						"value": "t_uint256"
					},
					"t_mapping(t_uint256,t_struct(Request)32_storage)": {
						"encoding": "mapping",
						"key": "t_uint256",
						"label": "mapping(uint256 => struct CrowdFunding.Request)",
						"numberOfBytes": "32",
						"value": "t_struct(Request)32_storage"
					},
					"t_string_storage": {
						"encoding": "bytes",
						"label": "string",
						"numberOfBytes": "32"
					},
					"t_struct(Request)32_storage": {
						"encoding": "inplace",
						"label": "struct CrowdFunding.Request",
						"members": [
							{
								"astId": 19,
								"contract": "CrowdFunding.sol:CrowdFunding",
								"label": "description",
								"offset": 0,
								"slot": "0",
								"type": "t_string_storage"
							},
							{
								"astId": 21,
								"contract": "CrowdFunding.sol:CrowdFunding",
								"label": "recipient",
								"offset": 0,
								"slot": "1",
								"type": "t_address_payable"
							},
							{
								"astId": 23,
								"contract": "CrowdFunding.sol:CrowdFunding",
								"label": "value",
								"offset": 0,
								"slot": "2",
								"type": "t_uint256"
							},
							{
								"astId": 25,
								"contract": "CrowdFunding.sol:CrowdFunding",
								"label": "completed",
								"offset": 0,
								"slot": "3",
								"type": "t_bool"
							},
							{
								"astId": 27,
								"contract": "CrowdFunding.sol:CrowdFunding",
								"label": "noOfVoters",
								"offset": 0,
								"slot": "4",
								"type": "t_uint256"
							},
							{
								"astId": 31,
								"contract": "CrowdFunding.sol:CrowdFunding",
								"label": "voters",
								"offset": 0,
								"slot": "5",
								"type": "t_mapping(t_address,t_bool)"
							}
						],
						"numberOfBytes": "192"
					},
					"t_uint256": {
						"encoding": "inplace",
						"label": "uint256",
						"numberOfBytes": "32"
					}
				}
			},
			"userdoc": {
				"kind": "user",
				"methods": {},
				"version": 1
			}
		}
	}
}